:1000000000000220C59202000593020061960200E2
:10001000099302000B9302000D9302000000000000
:10002000000000000000000000000000219D020010
:100030001193020000000000419D02001593020090
:10004000CD9F020089D00100896202007DA90000D5
:1000500071A9000017930200179302001793020082
:10006000179302008954000017930200A1D00100E9
:100070001793020095D00100179302001793020016
:100080001793020071660200179302001793020093
:1000900017930200179302001793020017930200B0
:1000A00017930200179302001793020017930200A0
:1000B00017930200179302000000000000000000E8
:1000C0001793020017930200179302001793020080
:1000D0001793020017930200179302001793020070
:1000E0001793020000000000000000000000000064
:1000F00000000000179302000000000017930200A8
:1001000000000000000000000000000000000000EF
:1001100000000000000000000000000000000000DF
:1001200000000000000000000000000000000000CF
:1001300000000000000000000000000000000000BF
:1001400000000000000000000000000000000000AF
:10015000000000000000000000000000000000009F
:10016000000000000000000000000000000000008F
:10017000000000000000000000000000000000007F
:10018000000000000000000000000000000000006F
:10019000000000000000000000000000000000005F
:1001A000000000000000000000000000000000004F
:1001B000000000000000000000000000000000003F
:1001C000000000000000000000000000000000002F
:1001D000000000000000000000000000000000001F
:1001E000000000000000000000000000000000000F
:1001F00000000000000000000000000000000000FF
:1002000010B5054C237833B9044B13B10448AFF350
:1002100000800123237010BD300200200000000088
:10022000F439030008B5034B1BB103490348AFF38E
:10023000008008BD0000000034020020F4390300F3
:10024000A3F5803A704700BF174B002B08BF134B34
:100250009D46FFF7F5FF00218B460F461348144AD1
:10026000121A2DF043F90E4B002B00D098470D4B7E
:10027000002B00D098470020002104000D000D48FD
:10028000002802D00C48AFF300802DF06DF820005C
:10029000290028F0DBFF2DF053F800BF0000080014
:1002A00000000000000000000000022030020020DA
:1002B00034EC00200000000000000000C30711D44F
:1002C00004280FD9026802F00F03032B0AD101F0B2
:1002D0000301C1F104035B0703F0C04322F0C042F5
:1002E000134303607047C30705D4042805D9006889
:1002F00000F00F0070470220704701207047002077
:1003000070470000014B00221A707047B1020020B4
:10031000034B187818B100221A70024B1868704706
:10032000B8020020BC02002030B404680D4611461B
:100330001A46029B28681B7812680968A44630BCDC
:100340006047012A03D0022A03D0002070470160D1
:10035000FBE70B680360F8E770470000632A28BFDB
:1003600063220D4B0D4870B5154601221A700C4BD7
:100370000C4E1D602A460C462DF090F80A4807F0F6
:10038000DBFE2544AC4205D014F8011B304605F0D5
:100390001FFAF7E770BD00BF4C0200204D0200209D
:1003A000B40200205D1D0300F4E30200002870B5D4
:1003B00018DD0B681A1F53425341174D2C78FCB1BE
:1003C00003B3164E3268D11C48BF911D891000221C
:1003D000032005F07BFB044630B9BDE870400A20DD
:1003E00002F09CBC0023E8E736680D493246043031
:1003F0002DF054F831462046FFF760FF00232B70A4
:10040000204670BD06482DF0CBF90146044805F0A2
:10041000E1FB0446F2E700BF4C020020B4020020DA
:100420004D0200202DE9F04389B00EF029F8064670
:10043000244807F081FE002E3ED035680024B542E6
:1004400007D0A86818B10DF0B3FD00B101342D68D4
:10045000F5E78CB30022611C092005F037FB054647
:1004600050B3640044F00104446034680027A6429D
:1004700023D0A068F0B10DF09BFDD8B1A16868460B
:100480000DF0EDFC694602A80CF016F9DDF80880C5
:1004900002A829F0E3FD404607F04EFE40462DF04D
:1004A0007FF90146404605F095FB07F10209013747
:1004B00045F829002468DAE70025284609B0BDE898
:1004C000F08300BF0BE40200F0B58DB006460DF0DE
:1004D000D7FF04680546A54221D0A068E8B10DF019
:1004E00067FDD0B1A16801A80DF0B9FC01A906A86B
:1004F0000CF0E2F8069903A825F02FFF314603A877
:1005000025F03EFF074603A825F0E2FE06A829F0E5
:10051000A5FD17B1A0680DB0F0BD2468DBE7002091
:10052000F9E710B5044628F0CBFE204610BD08B50B
:10053000086805F015F9FFF7C7FF10B113210DF09A
:1005400092FB002008BD0000094B186810B560B18F
:10055000084A13784BB90968012414702141064AEE
:100560000FF038F9054807F0E7FD002010BD00BF87
:10057000C0020020B1020020050300001EE40200BA
:1005800008B5064B1B6823B901200EF041F8002086
:1005900008BD034807F0D0FDF9E700BFD4020020F2
:1005A00038E4020010B50446006808B128F088FE5F
:1005B000204610BD024A03480C2107F035BA00BF9F
:1005C000E4E502005EE4020073B5044616460D46FB
:1005D00019B912B10D4829F014FD731B0F2B0193AB
:1005E00007D9002201A9204629F016FD019B2060B1
:1005F000A36032462946206829F041FD019B22680C
:1006000063600021D15402B070BD00BF62E40200FB
:1006100038B500F10803044603600D4659B1084699
:100620002DF0BEF82A1820464FF000032946FFF7A8
:10063000CBFF204638BD4FF0FF32F4E7F0B503287A
:1006400093B00E4604DC1C2002F068FB13B0F0BD32
:10065000086805F085F80746684610F05FFA72688A
:100660001046FFF740FE042816D1104605F078F832
:1006700001460CA8FFF7CCFF06AC0CA906A810F0A9
:10068000A6F90FCC6D460FC594E8030045F8040B9E
:100690000CA8297029F0E2FC71680846FFF723FED8
:1006A00002280DD1C1F34F010CA80CAC10F018FAC0
:1006B0000FCC6D460FC594E8030045F8040B297074
:1006C000B06805F04DF805463846FFF7FDFE48B323
:1006D00069460DF00DFC294604460CA8FFF798FF6B
:1006E0000CA906A810F073F906A920460EF0BAFE70
:1006F00004460CA829F0B2FC20460EF09DF988B102
:10070000094B0C93094B0F93094B0E930CAA002332
:10071000012120460EF00AFC0E9B1BB10CA90322FE
:1007200008469847002091E75D0300002903000078
:10073000430300002DE9F043032893B00D4605DC88
:100740001C2002F0EBFA13B0BDE8F083C868FFF795
:10075000CAFD032801D02420F3E7086805F000F85B
:100760000746684610F0DAF96A681046FFF7BBFDE5
:10077000042816D1104604F0F3FF01460CA8FFF739
:1007800047FF06AC0CA906A810F021F90FCC6E4665
:100790000FC694E8030046F8040B0CA8317029F04A
:1007A0005DFC69680846FFF79EFD02280DD1C1F384
:1007B0004F010CA80CAC10F093F90FCC6E460FC68D
:1007C00094E8030046F8040B3170A86804F0C8FFF1
:1007D00080463846EC68FFF777FEB8B369460DF0FF
:1007E00087FB414606460CA8FFF712FF0CA906A896
:1007F00010F0EDF806A930460EF034FE06460CA8BF
:10080000271D04F1030829F029FCC4F1FF2404F595
:100810007F04DFF83C90FD34EB681A68C2F30F13D5
:10082000C2F34172C2EB830204EB08039A4205D97A
:1008300018F8011F484604F0CBFFEDE700233946C6
:1008400030460EF083FA0A2025F0B2FE00207AE747
:100850005D1D03002DE9F0473F4B1B6896B0002B50
:1008600077D0002805DC1C2002F058FA16B0BDE84D
:10087000F087086804F074FF06AC384906460CA8F7
:10088000FFF7C6FE00220CA920460BF0A5FE94E857
:1008900003000DF07FFD07460CA829F0DFFB0DF0EB
:1008A00069FD01460CA80FF05DF82D4B0C9A1868F5
:1008B0001A600D9A5A600E9A9A600023CDE90C33A3
:1008C0000E9308B128F0FCFC0C9808B128F0F8FC55
:1008D000DFF88C90DFF890A0002548460EF0B1FFBD
:1008E000A84236DD2A4649460CA80EF0AFFF0CA9F7
:1008F00001A80BF0EBFE01A920460BF0DDFE0699E6
:1009000003A825F02AFD314603A825F039FD8046CD
:1009100003A825F0DDFC204629F0A0FBB8F1000F6C
:1009200011D001220CA938460DF08AFA40B10D48C9
:1009300007F002FC139808B128F0C2FC042095E7E8
:10094000504607F0F9FB139808B128F0B9FC0135BF
:10095000C3E700208AE700BFC00200205D1D03003E
:10096000C40200208CE402009CE4020030B587B091
:100970000DF0D8FD48B914496846FFF749FE6846AE
:100980000DF084FD684629F069FB0DF0F3FC0F4C77
:1009900005462060042028F08FFC0D4B03600022E8
:1009A000014628460EF09EFE206801210EF093FEBF
:1009B000206864210EF09EFE206863210EF0AAFEDE
:1009C000002007B030BD00BF5D1D0300C002002045
:1009D000ECE402002DE9F041A8B00FA80C460BF0A2
:1009E0009EFF0F9903A8FFF713FE0FA829F036FB0F
:1009F000214609A8DDF80C800BF068FE09A90FA8B4
:100A00000BF05AFE0FA80F9F29F028FB20460BF091
:100A1000E1FE002843D00022214609A80BF02EFF5A
:100A20000FA809A910F090F90FA80F9D29F016FB47
:100A30003B4642461B4900950FA828F0AFFB0FA884
:100A400007F07AFB00220421092005F03FF8164E3A
:100A5000072343600446306040462CF0A1FE014667
:100A6000404605F0B7F8A06038462CF099FE0146E4
:100A70003846346805F0AEF8E06028462CF090FE69
:100A800001462846346805F0A5F8084B206101228C
:100A900003A81A7029F0E2FA28B0BDE8F081044DED
:100AA000C6E700BFB5E40200BC020020B802002087
:100AB000B2E402002DE9F0430646A7B0006804F056
:100AC0004FFE074601A810F029F872681046FFF79C
:100AD0000AFC042816D1104604F042FE014607A87D
:100AE000FFF796FD0DAC07A90DA80FF070FF0FCC16
:100AF00001AD0FC594E8030045F8040B07A8297061
:100B000029F0ACFA71680846FFF7EDFB02280DD119
:100B1000C1F34F010DA80DAC0FF0E2FF0FCC01ADFA
:100B20000FC594E8030045F8040B2970B06804F081
:100B300017FE05463846F668FFF7C6FC044600284F
:100B400062D001A90DF0D4F92946044607A8FFF7A1
:100B50005FFD07A90DA80FF03AFF0DA920460EF082
:100B600081FC054607A829F079FA28460DF068FFB0
:100B70000446002854D0002229460DA80EF03CF867
:100B80000D99BDF83A2009AB079307A84FF0000371
:100B90000A44FFF719FD0D9808B127F0C0F9DDE907
:100BA00007452148DFF88880632D28BF632507F0BB
:100BB000C3FA274605EB0409B94505D017F8011B10
:100BC000404604F005FEF7E72A4621460DA82CF022
:100BD00065FC042E1CD1E91C00228908032004F0C6
:100BE00075FF044620B90A2002F098F8044608E090
:100BF0000DA92A4604302CF051FC29462046FFF767
:100C00005DFB07A829F02AFA204627B0BDE8F0834B
:100C10000DA82CF0C5FD01460DA804F0DBFFE5E7AB
:100C2000024807F089FAEFE7C0E40200D5E40200C9
:100C30005D1D0300032802DC1C2002F06FB808468B
:100C4000FFF738BF0448054A05490023C0E90033CF
:100C5000836029F0C2B900BFC40200200000002058
:100C6000A505000000207047002070470020704755
:100C700000207047024A0348042106F0D5BE00BF99
:100C800074E6020044E60200C30711D404280FD919
:100C9000026802F00F03032B0AD101F00301C1F136
:100CA00004035B0703F0C04322F0C0421343036018
:100CB0007047024610F001000FD1042A0ED91368C4
:100CC000C3F30F1050B1431E9800031D0432115C92
:100CD00021B101308342FAD1704700207047037878
:100CE00083B11A0601D40130704703F0C003C02B52
:100CF00008BF0130024610460132037803F0C003FA
:100D0000802BF8D0704708B5002103780BB908464E
:100D100008BDFFF7E4FF0131F7E7014600787F28BF
:100D200029DDDF2807DC8301487803F4F86300F04D
:100D30003F0018437047EF2808DC4A78030392010C
:100D400002F47C629BB288781343F0E7F72810DC4A
:100D50004A7883041203C87802F47C3203F4E01367
:100D600000F03F00134303438878800100F47C6067
:100D7000DFE74FF0FF30704738B5002204460D46DC
:100D8000411C092004F0A2FE40B16300024643F07A
:100D9000010342F8043F0023A34200DB38BD55F8AD
:100DA000231042F8041F0133F6E7002838B504DCAD
:100DB0001C20BDE8384001F0B1BF0C68E20701D447
:100DC0000D20F6E701281ED04A68D307F8D5B2F502
:100DD000007F4FEA620301D31320EAE71A0442EAD4
:100DE00003621A4342EA0322641024EAE474E11C19
:100DF0008910032004F06AFE054610B12146FFF772
:100E000043FF284638BD0022EEE7012838B504DC50
:100E10001C20BDE8384001F081BF0C68E20701D416
:100E20001120F6E74868C30706D4042804D90368EC
:100E300003F00F03042B01D00E20EAE704F090FC2E
:100E40006410002C054603DDFFF75DFFA04205DAC4
:100E50001220DEE7FFF743FF013C0546012C284640
:100E6000F8D1FFF75AFF400040F0010038BD0128DB
:100E70002DE9F3478246884605DC1C2002B0BDE818
:100E8000F04701F04BBF4C6814F0010901D10D206F
:100E9000F4E7022802D08B68DA07F8D5D8F800709A
:100EA000FB0700F1B180042F40F2AE803D68641072
:100EB000012C05F00F02B8BF0124092A2CD17B6850
:100EC000BAF1020F18BFD8F808704FEA63030CBFDD
:100ED0001F467F109F42A8BF1F463D1B01350122C0
:100EE00025EAE575A918092004F0F0FD064648B189
:100EF0006D00034645F00105D8F8002043F8045F73
:100F0000BC4203DD304602B0BDE8F087013452F840
:100F1000241043F8041FF3E7042A43D1384604F0B1
:100F20001FFCFFF7F0FEBAF1020F16BFD8F80860F9
:100F3000064676108642A8BF0646B44205DD00206C
:100F400002B0BDE8F04704F03DBE384604F008FCAE
:100F500005464C451FD1384604F002FC074628469A
:100F600009F10109FFF7BBFE4E45F9DA441B2046A3
:100F700004F028FE06460028C4D004F0F1FB8146A8
:100F8000D8F8000004F0ECFBED1B4119224648465E
:100F90002CF084FAB6E72846FFF7A1FE09F1010913
:100FA0000546D6E7032A2FD1BAF1020FC5F30F1277
:100FB000C5F34175C5EB820216BFD8F80850154637
:100FC0006D109542A8BF1546AC4207DD00221146C0
:100FD000032002B0BDE8F04704F078BD2D1B291DA9
:100FE00048BFE91D00228910032004F06FFD06466A
:100FF000002887D06A1C11460192FFF745FEE11CCC
:10100000019A39440430C3E7212037E70028F8B5B6
:1010100004DC1C20BDE8F84001F080BE0D6815F02E
:10102000010713D0B5F5007F4FEA650601D3132001
:10103000F0E700220121032004F048FD044618B126
:101040000121FFF721FE06712046F8BD042DEED9DF
:101050002B6803F00F03042B1AD12846FFF729FE53
:10106000C11C48BF811D064600228910032004F0E0
:101070002DFD04460028E7D03146FFF705FE28463F
:1010800004F06EFB32460146201D2CF007FADBE728
:10109000092B1FD16E687610F11C48BFB11D0022CC
:1010A0008910032004F012FD04460028CCD03146FC
:1010B000FFF7EAFD0435021DB742C5DA55F8043FD3
:1010C000D90705D5B3F5007F4FEA6301AFD2D155FB
:1010D0000137F1E7032BAAD12C46B5E7486838B5AC
:1010E000C3070D4606D4042804D9026802F00F0392
:1010F000092B04D0BDE838400B2001F00FBE436837
:10110000C2F30F12511EB1EB630F4FEA630411D803
:101110000B2C4FF0030304DD94FBF3F3642BA8BF07
:101120006423991804F010FD0368C3F30F13013B07
:101130009C4208D2A31C013464002A6840F8232092
:1011400044F001044460002038BD01282DE9F84333
:1011500004DC1C20BDE8F84301F0E0BD02284E6825
:101160000CD08C68E70709D56410012CB8BF0124A6
:10117000F50705D54FF0FF30BDE8F8830124F7E708
:10118000042EF7D933680D6803F00F02042A30D11A
:10119000E80706D4042D04D92B6803F00F03042BB1
:1011A00001D00E20D6E73046FFF783FDA042E1DBF9
:1011B000304604F0D5FA0646284604F0D1FA037802
:1011C0000146002BD6D0601E30442CF016FB04469E
:1011D0000028CFD0012133780BB1A64203D34800B9
:1011E00040F00100C8E73046FFF779FD06460131BF
:1011F000F1E7092A38D17368B4EB630F4FEA63094A
:10120000B8DCE90728D4042D26D92B6803F00F0396
:10121000042B21D1284604F0A3FA80462746013446
:1012200056F82400854201D17800D9E7C2070ED4D0
:1012300004280CD9036803F00F03042B07D104F032
:101240008FFA014640462CF099FA0028ECD04C4524
:10125000E4DD8FE74C458DDC2046013456F8243020
:10126000AB42F7D14000BBE7032A83D1C3F30F1889
:10127000C3F34173C3EB880844453FF77BAFEB07EB
:1012800027D4042D25D92B6803F00F02032A16D189
:10129000C3F30F10C3F341732F1DC3EB8000A8EB02
:1012A00000083B18013C033644453FF763AF311952
:1012B0003A469A4210460ED314D1601CD2E7042A53
:1012C00007D1284604F04CFA07462846FFF7F1FC00
:1012D000E5E70F203EE711F8015F0078854202F153
:1012E0000102E6D00134DFE701282DE9F047884606
:1012F00004DC1C20BDE8F04701F010BD0868C207FF
:1013000006D4042804D9036803F00F03042B01D08A
:101310000E20EFE74B6813F00109F9D1042BF7D940
:101320001B6803F00F03042BF2D104F019FA0446F2
:10133000D8F8040004F014FA07462CF031FA0646F7
:1013400078B92046FFF7DFFC05460122A9180920DD
:1013500004F0BCFB374B18609A4690B90020BDE8FA
:10136000F087394620462CF048FA231A5D425D4149
:1013700020463946304401352CF03FFA0028F8D198
:10138000E3E76B0043F001034360D6B92046FFF763
:10139000A6FC4D45064602DCDAF80000DFE7311B0B
:1013A000204604F017FC0028D8D0DAF8003003EB10
:1013B0008903344698603046FFF791FC09F1010932
:1013C000E7E7012D03D1D8F800308360C7E739463D
:1013D00020462CF012FA4FF001088146B9F1000FB7
:1013E00016D04545D8DBA9EB0401204604F0F2FBFA
:1013F0000028B3D0DAF8003008F1010809EB060440
:1014000043F82800394620462CF0F7F98146E5E7F5
:101410004545C1DB20462CF0C3F90146204604F0C7
:10142000D9FB00289AD0DAF8003008F1010843F817
:101430002800B1E73478002008B504F075F94000C1
:1014400040F0010008BD7F2902DC00F8011B704755
:10145000B1F5006F0CDA03468A1162F03F0203F81F
:10146000022B01F03F0161F07F0141701846704787
:10147000B1F5803F0FDA0B1363F01F030370C1F364
:10148000851301F03F0163F07F0361F07F0143703A
:10149000817003307047B1F5883F0DDAF023037097
:1014A000902343708B1101F03F0163F07F0361F0E3
:1014B0007F018370C17004307047000010B5094C83
:1014C000002220600221092004F000FB226820B9DC
:1014D000BDE810400A2001F021BC0321C0E901123F
:1014E00010BD00BF3478002038B5C30709D5B0F56A
:1014F000007F4FEA600507D31320BDE8384001F0B4
:101500000DBC051E18BF012500220121032004F097
:10151000DDFA08B90A20F0E70121FFF7B5FB0571F4
:1015200038BD07B510F0010104D04110084603B0E2
:101530005DF804FB042813D9026802F00F02042AA4
:1015400009D1019104F00CF901990A2203B05DF868
:1015500004EB2CF0EFB9032A02D10A220430F5E79C
:101560000D20019101F0DAFB0199DFE70128F8B5C0
:1015700007460E4604DC1C20BDE8F84001F0CEBB57
:101580000868FFF7CEFF05467068FFF7CAFF022F15
:10159000044606D0B068FFF7C4FF061E02DC29200F
:1015A000EAE70126A542D5BF641B2C1BB4FBF6F469
:1015B000B4FBF6F4D4BF013401344FF0000204F15F
:1015C00001014FF00900C8BF764204F07FFA80B1F4
:1015D0006300024643F0010342F8043F6D007300CC
:1015E00002EB840445F0010142F8041F94421D44BB
:1015F000F8D1F8BD00282DE9F3410F4603DC1C208B
:1016000001F08CFB16E00C6814F0010506D1042CE7
:101610001DD9236803F00F03042B0DD12046FFF7DB
:1016200080FF6C4601462046FFF70DFF011B204658
:1016300004F0D0FA044634E0092B08D166684FF074
:1016400001087610B04504DD01F06EFBE0B12A2000
:10165000D6E708F1010854F82800FFF762FF7F2859
:101660000CDDB0F5006F0BDBB0F5803F0ADBB0F5A9
:10167000883FACBF002304231D44E3E70123FBE7BD
:101680000223F9E70323F7E7284604F09BFA044610
:1016900038B1D7F8008004F063F801270546B74257
:1016A00003DD204602B0BDE8F081013758F827007D
:1016B000FFF737FF01462846FFF7C5FE0546EEE770
:1016C00010B5044611F0010011D104290ED90A68A1
:1016D00002F00F02042A09D1084604F041F801463D
:1016E00020462CF04BF8B0FA80F0400910BD0020E5
:1016F000FCE700000128F8B50E4604DC1C20BDE81C
:10170000F84001F00BBB4D68EA0706D4042D04D95C
:101710002B6803F00F02092A01D00B20EFE76A685B
:101720000968C3F30F13B3EB620F4FEA620498BF6B
:1017300003F1FF3411F001070DD0481000283CDD03
:1017400084423ADB2B1D844219DD013053F82020FE
:1017500045F82020F7E71A48FFF7B2FF40B1012310
:10176000BC4201DA0020F8BD013745F82730F7E721
:1017700031681448FFF7A4FF50B1002CF2D00122C9
:10178000631C013C9440144345F823206C60E9E756
:101790003068C3070FD404280DD9036803F00F0382
:1017A000042B08D1FFF7BDFE0028C8D131680648D8
:1017B000FFF786FF08B91120A1E712209FE700BFBD
:1017C00094E6020098E60200D0130300002310B54F
:1017D0000B70C3070C4606D50E4942102046BDE8E3
:1017E000104027F0DBBC28B90B492046BDE810406B
:1017F0002BF0A8BF042801D10849F6E709D90368EE
:1018000003F00F03042B04D103F0AAFF044902469E
:10181000E4E710BD11EE0200D0130300B3E40200B0
:101820009DE602002DE9F04301288FB080460E4668
:1018300007DC1C2001F072FA054628460FB0BDE80F
:10184000F0830B6813F0010440F0AE80042B40F2EB
:10185000E2801B6803F00F03092B48D1274656F896
:10186000273013F0010906D1042B04D9186800F0C1
:101870000F00092803D02220DCE71F46EFE75B6852
:1018800004EB63047B1C9845F7D10122A11804F0F6
:101890001DF9054608B90025CFE7640044F00104AE
:1018A0004460494600F1080456F821301868D3F81E
:1018B00004C0C0F30F10B0EB6C0F4FEA6C0203F1E1
:1018C000040398BF00F1FF320020824209DC22EAC3
:1018D000E2728F4204EB820401F10103ADDD19468F
:1018E000E2E753F804CF44F820C00130EDE7032BC2
:1018F00040F09180274656F82700C507BBD404283E
:10190000B9D9036803F00F02032A3CD1C3F30F12C5
:10191000C3F34173C3EB82031C447B1C984530D155
:10192000E11C48BFA11D00228910032004F0CEF85D
:1019300005460028AFD02146FFF7A6F94FF0000872
:1019400000F1040956F82840E10723D4042C21D9DA
:10195000206800F00F03032B1CD1C0F30F13C0F35A
:101960004170C0EB830003340023834216DB002860
:10197000A8BF8144474508F101037FF75EAF984651
:10198000E0E71F46B7E7042A7FF475AFFFF791F948
:101990000444C2E72046FFF78CF9E4E714F8012F6E
:1019A00009F803200133E0E700252C4656F825000E
:1019B000C20732D4042830D9036803F00F02042A86
:1019C00032D1FFF776F904440135A845EED120461F
:1019D00004F0F8F8054600283FF45DAF041DB14659
:1019E00006EB880859F8046BF30728D4042E26D98F
:1019F000336803F00F02042A34D13046FFF759F957
:101A00000746304603F0ACFE3A46014620462BF02E
:101A100045FD3C4421E02546C8E701A9FFF7D6FE75
:101A200001A82BF0BDFECEE7032A7FF424AFC3F359
:101A30000F12C3F34173C3EB82031C44C4E701A933
:101A40003046FFF7C3FE01A82BF0AAFE01A9064607
:101A5000024620462BF022FD3444C845C2D1002363
:101A60002370EAE6032AF8D1C3F30F17C3F34173D7
:101A7000C3EB87073A46311DC8E700002DE9F04F58
:101A8000002893B00E4607DC1C2001F047F90446FD
:101A9000204613B0BDE8F08F0C6814F0010906D1A0
:101AA000042C04D9236803F00F03092B01D00B2069
:101AB000EBE763684FEA6308B8F1000F03DC4846C0
:101AC00004F080F8E3E7012827D04868C20724D44F
:101AD000042822D9036803F00F03042B1DD103F05F
:101AE0003FFE054628462BF05BFE043408F1FF3329
:101AF0000746019303FB00FB04EB880A54F8040F2C
:101B0000C3076BD4042869D9026802F00F010429C5
:101B100005D1FFF7CEF883440AE0354DE2E703290B
:101B200063D1C2F30F11C2F34172C2EB810293443D
:101B3000A245E3D1584604F045F804460028A7D052
:101B4000D6F800A01FB1706803F00AFE05462046D3
:101B500003F006FE0AF1040A06465AF804BF584686
:101B600003F0FEFD1BF001030146029302D1BBF11D
:101B7000040F04D805A95846FFF728FE05A9084612
:101B800003912BF00DFEDDE9023102468BB9BBF16A
:101B9000040F0ED9DBF8000000F00F0CBCF1030FAE
:101BA00001BFC0F30F12C0F341700BF10401C0EB91
:101BB0008202304602922BF071FC029A164447B121
:101BC000019B4B4505DD30463A4629462BF066FC25
:101BD0003E4409F10109C845BFD159E705A9FFF7FE
:101BE000F5FD05A82BF0DCFD95E703F0B9FDF9E75D
:101BF0005D1D03002DE9F041012888B003DC1C20A5
:101C000001F08CF85EE00C68E30730D4042C30D986
:101C1000266806F00F06486803F0A2FDB3490746A0
:101C20002BF0ACFDB249002838460CBF01254FF01F
:101C3000FF352BF0A3FDAF490028384608BF022529
:101C40002BF09CFDAC490028384608BF04252BF03A
:101C500095FDAA490028384608BF09252BF08EFDBE
:101C6000002800F0EA816F1C05D13020C8E7022669
:101C7000D1E70126CFE7013E082E17D8DFE816F09E
:101C80000900240073015300160016001600160008
:101C9000CF00023D072D09D8DFE805F004410C080C
:101CA0000808083D042C0CBF03240124204608B07A
:101CB000BDE8F0819248934B0121042C18BF1846CF
:101CC00003F088FF0446F1E7013D082DEED801A39B
:101CD00053F825F0F91C0000AD1C00001F1D00008A
:101CE000011D0000AD1C0000AD1C0000AD1C00007B
:101CF000AD1C0000171D0000630835D00424D5E793
:101D000081496210684627F049FA68462BF048FD81
:101D100001466846D4E72046FFF7D0FBD2E72046CD
:101D2000FFF7E2FBCEE7013D082DBFD801A353F832
:101D300025F000BF591D00006D1D0000D91D0000D9
:101D4000AD1C0000AD1C0000AD1C0000AD1C00006F
:101D5000AD1C00007B1D0000204603F001FD694919
:101D60002BF00CFD0028C9D100249FE72046FFF787
:101D7000D8FB400040F0010498E7204603F0F0FC57
:101D8000FEF7C1FF614D411C0646002209202C6070
:101D900003F09CFE044608B90A2031E707467300A9
:101DA00043F00103286847F8043F03F0D9FC4FF0E3
:101DB0000008054646457FF779AF2846FEF7ADFF98
:101DC000400040F0010047F8040F2846FEF787FF67
:101DD00008F101080546EDE7204603F0C1FC2BF0B1
:101DE000DFFC4A4DC11C06460022891003202C60EE
:101DF00003F06CFE04460028CED02D683146FEF775
:101E000043FF284603F0ACFCE21C00239E427FF710
:101E10004DAFC15C02F8011F0133F7E70325666887
:101E20006B1E7610032B3FF641AFDFE803F0021282
:101E3000713A012E0BD1A468E00708D4042C7FF678
:101E400035AF236803F00F03012B3FF42FAF2D2094
:101E5000D6E6012E03D1A468E1073FF527AF2C2079
:101E6000CEE6013754F82700FFF75BFB7F2812DD31
:101E7000B0F5006F11DBB0F5803F10DBB0F5883FA7
:101E8000B4BF2B4600239844BE42EADA00F04CFF70
:101E900058B12A20B4E60123F5E70223F3E7032330
:101EA000F1E701274FF00008EEE7184D40462C609F
:101EB00003F088FE2F68044600283FF455AF03F076
:101EC0004FFC0125AE42FFF6F1AE013557F8253043
:101ED000DA0701D4272093E6B3F5081F4FEA630120
:101EE00001D331208CE6FFF7AEFAEBE7A6E602005D
:101EF000AEE60200B5E60200BCE60200C1E6020062
:101F0000B3E40200D013030011EE02003478002085
:101F1000F11C48BFB11D554D0022891003202C60D3
:101F200003F0D4FD044600283FF436AF31462D6857
:101F3000FEF7AAFE021D6FF0030005F10803001B67
:101F400011188E427FF7B2AE53F8041BCD07C1D5EE
:101F5000B1F5007F4FEA610501D3132050E602F886
:101F6000015BEDE735462668013DC6F30F13C6F366
:101F70004176C6EB8306082D3FF698AE01A353F8D1
:101F800025F000BFA91F0000B91F0000AD1C000014
:101F9000C31F0000AD1C0000AD1C0000AD1C000004
:101FA000AD1C0000F71F0000012E7FF450AF237915
:101FB000002B7FF4A3AED7E6012E7FF450AF20793B
:101FC000D7E62A4D30462C6003F0FCFD2B68044612
:101FD00000283FF4E1AE1A1DC3F1FF2303F57F0390
:101FE000C11CFC33D018B042BFF660AE12F8010B32
:101FF00001F8010FF6E71D4D0022711C09202C602D
:1020000003F064FD2B68044600283FF4C5AE01468A
:10201000720042F0010241F8042F6FF00202D81C56
:10202000D21A13189E427FF741AE10F8013F5B00B1
:1020300043F0010341F8043FF3E7731E082B3FF61A
:1020400035AE01A252F823F01F1D00001F1D000035
:10205000651F0000D91D0000AD1C0000AD1C000074
:10206000AD1C0000AD1C00001D1E000034780020D7
:10207000021E10B513DD0B6813F001041CBF5C10C9
:1020800024EAE474012A00D04A68611C092003F0A4
:102090001DFD18B1640044F00104446010BD00242B
:1020A0000122F2E70A6812F0010038B53AD1042A99
:1020B00038D91368496803F00F04092C1AD1556800
:1020C000C3F30F13B3EB650F4FEA650498BF03F139
:1020D000FF34151D844205DC01330220984205DBE4
:1020E000002038BD45F8041F0130F3E742F8201006
:1020F0000130F3E7032C15D1C80704D4BDE83840FC
:10210000132000F00BBEB1F5007F4FEA6100F5D25D
:102110000432C3F30F1302EB83039A42E0D202F8B6
:10212000010BFAE70B2000F0F9FDD9E72DE9F041AA
:102130004E6816F0010788462BD1042E29D9326843
:1021400002F00F03092B14D17368C2F30F12B2EB24
:10215000630F4FEA630500D8551ED8F8008018F0C9
:10216000010F1AD04FEA6804002C1CDDA54223DAC7
:1021700019E0042B04D13046FEF79BFD0546ECE741
:10218000032B08D1C2F30F13C2F34172C2EB8305D4
:10219000E3E70025E1E73D46DFE734484146FFF746
:1021A0008FFAC0B10DB912202FE02BF0D5F990FBBA
:1021B000F5F303FB15035C1C002F54D1042E52D9F8
:1021C000336803F00F03092B25D1013456F824405E
:1021D0002046BDE8F08126484146FFF771FAC0B9B4
:1021E000B8F1040F10D9D8F8003003F00F03042B16
:1021F0000AD14046FFF795F9041EB6D11D48414665
:10220000FFF75EFA0028CED11120BDE8F04100F0C2
:1022100085BD2C46D0E7042B1DD1304603F0A0FA33
:10222000012C05460FDCFEF75AFD461B304603F035
:10223000C9FC04460028CBD003F092FA3246294666
:102240002BF02CF9C4E72B78013C002BABD02846AF
:10225000FEF745FDE4E7032B05D13444E478640040
:1022600044F00104B4E70B20CFE700BFCCE6020046
:1022700098E60200D01303002DE9F0414C6814F0F9
:102280000106884632D1042C30D923688F6803F0C8
:102290000F02092A15D16268C3F30F13B3EB620F63
:1022A0004FEA620500D85D1ED8F800103748FFF7E6
:1022B00007FA98B3236803F00F03092B20D10123F9
:1022C00019E0032A12D1FA0704D41320BDE8F04123
:1022D00000F024BDB7F5007F4FEA6706F5D2C3F3DF
:1022E0000F15C3F34173C3EB8505DDE70B20EDE765
:1022F000013344F823709D42FADA0020BDE8F081F2
:10230000032BFAD1E31CC4F1FF2404F57F04FE344F
:10231000E218AA42F1DC03F8016FF9E7D8F800806F
:1023200018F0010F0ED04FEA6800002822DD854228
:1023300020DB236803F00F03092B21D1013044F87F
:102340002070DAE712484146FFF7BAF9B0B9B8F1A0
:10235000040F11D9D8F8003003F00F03042B0BD170
:102360004046FFF7DEF80028E0D10A484146FFF773
:10237000A7F908B11220A9E71120A7E72846D8E756
:10238000032B04BF2418E670B7E700BF94E60200F1
:1023900098E60200D0130300086808B5C3071BD4F1
:1023A000042819D9036803F00F02092A01D14068F3
:1023B00008BD032A09D1C3F30F12C3F34170C0EB68
:1023C0008200400040F00100F2E7042A04D103F04B
:1023D000C7F9FEF798FCF4E70120E9E7024A034851
:1023E0000F2105F021BB00BF68E70200D3E6020021
:1023F000002070470420704701207047002003F040
:10240000E1BB00207047002070470020704700208B
:102410007047002070470020704700207047002060
:10242000704700207047002070470120704700006F
:10243000024A03480F2105F0F7BA00BF74E8020012
:10244000E0E702007047002070470020704700203E
:102450007047002070470020704700207047002020
:102460007047002070470000024A0348082105F029
:10247000DBBA00BF48E90200ECE80200014A136041
:10248000704700BF0C0700207047000008B50846E1
:102490000DF039FC002211460AF076FB034B4FF693
:1024A000FF721A80024B00221A6008BD040000204F
:1024B000D402002010B5084614460DF024FC0AF0A2
:1024C00003FD034B228C1A80024B01221A6010BDBF
:1024D00004000020D402002010B5044626F0F0FECF
:1024E000204610BDF0B5104E85B0002201A80AF0BC
:1024F00049FF3468BDF80A50019FC4F580629542D7
:1025000004DD0A48036801330360154608482A467B
:10251000394620442AF0C2FF2C443846346025F066
:10252000FEFC05B0F0BD00BF04070020140700202A
:10253000D802002010B5034B036004460AF062FE87
:10254000204610BD40EA020010B50446FFF7F2FF36
:10255000204626F0B5FE204610BD10B5044602F018
:102560004FFE044402F04CFEA04205D204F000FAF3
:10257000012024F01DF8F5E710BD000037B5104D1F
:1025800000F108030360044628462BF009F90F28E0
:102590000544019007D9002201A9204627F03CFDFF
:1025A000019B2060A360206805492A4627F067FD4B
:1025B000019B2268636000212046D15403B030BDE6
:1025C000D90600202DE9F043624D2C7887B0002C0D
:1025D00040F0BC8068460094ADF8044003F034FE3F
:1025E000BDF804305C4ADFF89C91D4705BBA1A20C5
:1025F0009BB2B3FBF0F100FB113341331370B1FB1D
:10260000F0F6B6FBF0F300FB161100FB136041314E
:1026100041305170907051495148524E26F0BEFDE4
:102620006846FFF7ABFF68460BF030FF684627F0BF
:1026300015FD0BF063FE07463060042026F03CFEDB
:10264000494B03600146012238460DF067FB4749BC
:102650003068474F0DF07FFD1022464938604FF437
:1026600000730EF073F9444B80461860042026F086
:1026700023FE0146C0F8009040460AF0CBFF4FF41D
:10268000007304223D4938680EF060F9804604204A
:1026900026F012FE0146C0F8009040460AF0BAFF4C
:1026A00038680DF0E5FF30680DF02DFB3968804685
:1026B00068460DF099FF694640460AF019FD3068FA
:1026C0000DF021FB07466846FFF758FF694638467C
:1026D0000AF080FD684627F0C1FC3068204F0DF0FD
:1026E00012FB224621460AF04FFA254A1C480123D4
:1026F0002B7013702BF054F803260546041FA542D7
:102700001CD00121381903F065FA694600900120B8
:1027100003F0A0FF6946CDE900060320029604F00D
:102720001FF84FF4C870FFF718FF6946002003F048
:10273000EFFE6420FFF711FF0134E0E76946002057
:1027400003F0E6FE4FF49670FFF707FF07B0BDE811
:10275000F08300BFD8060020D002002088E90200E4
:10276000D90600201007002010EA020097E90200B5
:1027700018070020BCE9020008070020E1E9020078
:102780000007002040EA0200F8B5134E33780BB37F
:10279000124D134C28682188124F13220DF0B5FA00
:1027A0004FF6FF732380104B286800241C600F4BEA
:1027B0001C700DF0A8FA0AF087FB396828682246D9
:1027C0000DF0FCFC20460BF023FF094B2C603C6015
:1027D0001C603470F8BD00BFD80600201007002030
:1027E0000400002018070020D40200200007002069
:1027F000080700202DE9F043454D2B6887B00646B9
:102800000C46002B49D0434823F034FC022861DDFC
:10281000052023F0CDFE3F4823F02CFC142802466F
:1028200001A9A8BF14223B4823F0D7FB01AB00222B
:10283000023890424EDD13F8011BFA2902F1010221
:10284000F7D119781A29F4D15F78002FF1D1DFF888
:10285000D490DFF8D480B9F80010D8F80000132223
:102860000DF053FA4FF6FF73A9F800302A4BD8F851
:10287000000019683A460DF0A1FC284B2F601F702C
:10288000244823F0F7FB844222463146A8BF024683
:10289000204823F0A2FB044636E0DFF8808098F859
:1028A0000030002BECD105F033FC074690B91A4BF1
:1028B000DFF874901968D9F800000DF061FCD9F8C0
:1028C00000000DF020FA3A4639460AF05DF901237E
:1028D00088F800302B68002BD2D0114F3D68AC42F5
:1028E000A8BF2C4684B1DFF84480224641463046DA
:1028F0002D1B2AF0D3FD002D05DD2A4608EB04012F
:1029000040462AF0CBFD3D60204607B0BDE8F0838D
:10291000D4020020D0B900201807002000070020B2
:10292000040700200400002010070020D802002027
:102930000B462DE9F341D41A1B4B1B68411833B9E0
:102940001A48224602B0BDE8F04123F0ABBA184D58
:10295000019102F055FC2B68019998423CBF00237D
:102960002B602B68C31A132B06461BD9002C19DDCC
:10297000FA2CDFF844800F4FD8F80000A8BFFA24E3
:10298000002322463B600AF04DFED8F800000AF012
:102990003DFE3B682E60002B18BF0024204602B08D
:1029A000BDE8F0810024F9E7D4020020D0B900206E
:1029B000FC0600200C0700200807002008B5054889
:1029C00023F030FBBDE8084002484FF4E13123F02A
:1029D00017BB00BFD0B90020037883B11A0601D419
:1029E0000130704703F0C003C02B08BF013002461E
:1029F00010460132037803F0C003802BF8D07047F3
:102A000073B50646084611F00101144627D1042883
:102A100042D9036803F00F03042B3DD1D30714D42C
:102A2000042A39D9136803F00F03042B34D102F0C0
:102A300097FE0546204602F093FE014628462AF0FE
:102A40009DFE002830DB21D129E0019102F088FEB3
:102A500001990A222AF06EFF0546641013E012F075
:102A6000010117D1042A17D9136803F00F03042BAF
:102A700012D145101046019102F072FE01990A220E
:102A80002AF058FF0446A5420EDB08DD002E09DCC3
:102A900000200CE04510E0E7064B0F221A700136CB
:102AA000022EF5D8042002E0701700F0040002B0F6
:102AB00070BD00BF4007002007B510F0010104D031
:102AC0004110084603B05DF804FB042813D90268DE
:102AD00002F00F02042A09D1019102F041FE01998E
:102AE0000A2203B05DF804EB2AF024BF032A02D1C6
:102AF0000A220430F5E7024B0D221A70E1E700BF0D
:102B0000400700202DE9F041304E0546002433797E
:102B1000032B0FD00134FF2C06F10806F7D128460D
:102B200004F096FF20B92A4B1B221A704FF0FF3099
:102B3000BDE8F08128462AF033FE29460246E0B27D
:102B400005F012F800283ED132685768111DB842CE
:102B5000E0D051F8043FF02B00F1010301D01846FA
:102B6000F5E79B000833D00702EB0301D2D4042918
:102B7000D0D9D35803F00F02042ACBD1C3F30F13DB
:102B80000133CF0701EB8300C4D40428C2D951F824
:102B9000233003F00F03042BBCD102F0E1FD4FF012
:102BA00003080746092138462AF0DBFD0028B1D08A
:102BB000B8F1010800F10107F4D1294638462AF09E
:102BC0001CFE8742A6D164F0FF00B1E728D60020A2
:102BD0004007002010F0010210B516D1042802D9D8
:102BE0000268C2F30F1211F0010310D1042902D9B7
:102BF0000B68C3F30F13934214D1043000EB83032B
:102C00000331834205D8012010BD0022EBE70023E9
:102C1000F1E710F8014B11F8012F54EA020CF2D041
:102C20009442EED00020EFE72DE9F04F85B0CDE9DA
:102C30000113314F314E80468AB102233B7001238C
:102C400033603368DFF8C890DFF8C8A0DFF8C8B099
:102C50000024FC54444504DB05B0BDE8F08F32602D
:102C6000EFE7019B316853F82400C30707EB010528
:102C7000C1F5487105D5224A4310284626F0A2FA2C
:102C800004E0A8B91F4A284626F09CFA1A482AF000
:102C900087FD029B30604BB108F1FF33A34205DD95
:102CA000431C20223A540022FA5433600134D1E705
:102CB000042801D1144AE6E71BD9026802F00F0389
:102CC000042B06D1039102F04BFD104A03990346F1
:102CD000D3E7092B03D143685A465B10CDE7032B9A
:102CE00008D1C2F30F13C2F34172C2EB8303524601
:102CF000C3E701234A46C0E741070020640A0020D9
:102D000011EE020064EA02006AEA0200BDE4020079
:102D100089EA02007EEA02006FEA0200014B1870A5
:102D20000020704740070020024B1878003818BF79
:102D30000120704740070020024B1860024BFF2221
:102D40001A7070476C0A00204007002008B5002365
:102D50001A46FFF769FF034B0348196805F00EFC9C
:102D6000002008BD640A00204107002010B502F0D1
:102D700053FA084C231D01461F2218462AF02AFD4B
:102D80002AF00EFD031D9B081B0143F00403236082
:102D9000204610BD1C0700202DE9F04F074607F123
:102DA000180979693D6985B009EB81010291C24931
:102DB000D0E902300E78AA0003EB800409EB850508
:102DC0008846002E49D153F8203092101E123A61E5
:102DD00003F07F03B94A52F823300434924643F09B
:102DE00001031847BA68BB787878A21A921043EAB0
:102DF000022205F0C6F800233B7088F80030BB685B
:102E0000E41A029BA5EB0905A3EB0909A410AD1078
:102E10004FEAA903FC603D617B6105B0BDE8F08F1E
:102E2000787805F0A8F800233B70E8E798F80030C0
:102E30009BB954F8043BA5EB09021E1203F07F0373
:102E400092105AF823303A61C9E7291DA1EB090312
:102E5000D82B18DD1A2388F8003098F80010FF29C5
:102E6000C0D1974E002388F800303368002BC6DDB0
:102E700001233B7002F0BCF933684FF47A7202FB15
:102E800003007860BBE79A1098F800302E600BB111
:102E90000D46E2E754F8043B3A611E1203F07F034B
:102EA0000D465AF823309AE7291DA1EB0903D82BC8
:102EB00003DD1A2388F80030CFE7204650F8042BB2
:102EC0002A609A1098F8003013B10D460446C4E702
:102ED00063683A611E1203F07F030D465AF82330EF
:102EE00008347CE7291DA1EB0903D82B03DD1A2345
:102EF00088F80030B1E79A1098F8003004EB8606A5
:102F00002E600BB10D46A8E754F8043B3A611E123F
:102F100003F07F030D465AF8233060E7291DA1EB2B
:102F20000903D82B03DD1A2388F8003095E7654A9A
:102F300052F826202A609A1098F800300BB10D46FE
:102F40008BE754F8043B3A611E1203F07F030D46F1
:102F50005AF8233043E75B4B55F8042D43F82620FD
:102F600098F80030002B7FF478AF54F8043BA5EBC1
:102F700009021E1203F07F0392105AF823303A61BF
:102F80002DE7DFF840B15BF82600FFF795FD98F8D4
:102F90000020002A7FF461AF009055F8040DFFF780
:102FA0008BFD009B1844400098F8003040F0010071
:102FB000A5EB09024BF826009210002B7FF44DAFD1
:102FC00054F8043B3A611E1203F07F035AF8233091
:102FD00005E72A1DA2EB0903D82B03DD1A2388F885
:102FE00000303AE7029B994534BF53F80C3C01236B
:102FF0002B6098F80030A2EB090189100BB115463F
:103000002BE754F8043B39611E1203F07F03154689
:103010005AF82330E3E62A1DA2EB0903D82B03DD7F
:103020001A2388F8003018E7029989450FD251F821
:103030000C0C06F18046033EA6EB600651F8261004
:103040002960991098F8003043B1154605E7182318
:1030500088F8003000232B601546FEE654F8043B48
:1030600039611E1203F07F0315465AF82330B6E685
:10307000029B99451CD2029A55F8043D52F80C0C5B
:1030800006F18046033EA6EB600642F8263098F82B
:103090000030A5EB09029210002B7FF4DEAE54F84D
:1030A000043B3A611E1203F07F035AF8233096E680
:1030B000182388F80030D0E640070020ACEA020070
:1030C0006C0A002020DE0020029B99452DD253F887
:1030D0000C3C029A06F18046033EA6EB630352F8CD
:1030E0002300FFF7E9FC834655F8040DFFF7E4FCE5
:1030F000029B029A53F80C3C5844A6EB630643002B
:1031000043F0010342F8263098F80030A5EB09029D
:103110009210002B7FF4A1AE54F8043B3A611E12CA
:1031200003F07F035AF8233059E6182388F800305B
:1031300093E6291DA1EB0903D82B03DD1A2388F898
:1031400000308AE6029A52F826202A609A1098F8EF
:1031500000300BB10D4680E654F8043B3A611E1274
:1031600003F07F030D465AF8233038E6029A55F8EB
:10317000043D42F8263098F80030002B7FF46DAE05
:1031800054F8043BA5EB09021E1203F07F039210D2
:103190005AF823303A6122E6029B53F826004FEAA0
:1031A000600B55F8040DFFF787FC5844029B400064
:1031B00040F0010043F8260098F80030002B7FF41F
:1031C0004CAE54F8043BA5EB09021E1203F07F033A
:1031D00092105AF823303A6101E6A5EB8605A9451D
:1031E000A5EB09060ED898F80020B310002A7FF44A
:1031F00034AE54F8042B3B61161202F07F025AF8E9
:103200002230ECE5C94802F09BFA98F80020B31090
:10321000002A7FF422AE54F8042B3B61161202F010
:103220007F025AF82230DAE5002E04EB8604FFF61E
:10323000E6AD98F80030A5EB09029210002B7FF460
:103240000CAE54F8043B3A611E1203F07F035AF8A7
:103250002330C4E555F8043D042B04D1002E04EBC3
:103260008604FFF6CCAD98F80030A5EB0902921069
:10327000002B7FF4F2AD54F8043B3A611E1203F0C8
:103280007F035AF82330AAE555F8043D042B04D0F7
:10329000002E04EB8604FFF6B2AD98F80030A5EBE3
:1032A00009029210002B7FF4D8AD54F8043B3A6128
:1032B0001E1203F07F035AF8233090E555F8040CF2
:1032C000C107A5F1040B0BD54010013800280ADB1B
:1032D000400040F0010004EB8604CBF800008EE5CE
:1032E000FFF7EAFBF1E798F80030ABEB0902921028
:1032F0000BB15D46B1E554F8043B3A611E1203F090
:103300007F035D465AF8233069E5029B05F10C0EF8
:10331000AEEB0901A3EB0903D8294FEAA30303DDB0
:103320001A2388F8003098E5760006F4FF7646F018
:1033300001062E60AB46BD68641BBD78A41045EA4B
:1033400004256D005B0045F0010543F00103CBF857
:103350000450CBF80830BA7098F8002050F83C3090
:10336000BB607546891022B103F10804CDF808E06E
:1033700073E503F10C049B68CDF808E01E1203F01E
:103380007F0339615AF8233029E5029B55F8046C14
:1033900099452CD1F2071ED4042E15D9336803F0B9
:1033A0000F03042B19D1304602F0DAF92AF0F8F9AC
:1033B000B0F5487FA8BF4FF448700630643004F081
:1033C00005FC78B9043C1AE50AD0002E0CBF072092
:1033D0004FF40070F2E70A20F0E74FF40070EDE7D9
:1033E0000720EBE77878314604F0E2FD1BE5029B0D
:1033F0004F4953F80C2C4F4B98F80000A3EB620395
:10340000029A42F8236002EB830552F8083C5A10F6
:10341000BA70D2B2043551F83210029AB96052F83B
:10342000042C521009EB8202C3F355230292A5EB40
:10343000090201EB8304921000287FF40EAD51F8CD
:1034400023303A611E1203F07F0304345AF823300C
:10345000C5E455F8040CFFF72FFB1E28A5EB8605E5
:103460002FDCA5EB090B00284FEAAB0B0EDC98F81C
:103470000030002B7FF4F1AC54F8043BC7F810B0D7
:103480001E1203F07F035AF82330A8E4009001F0E5
:10349000AFFE009B033B1E1801F0AAFE264B801BCB
:1034A0009842F9D298F80030002B7FF4D6AC54F84B
:1034B000043BC7F810B01E1203F07F035AF8233004
:1034C0008DE401223A70009001F092FE009B0A38D0
:1034D00003447B6093E455F8040CFFF7EDFAA5EB89
:1034E0008605061E10DC98F80030A5EB0902921044
:1034F000002B7FF4B2AC54F8043B3A611E1203F087
:103500007F035AF823306AE40C4B9E4203DD1D23EF
:1035100088F80030A1E401233B7001F069FE4FF40C
:103520007A7303FB06000A38ABE400BF9BEA020093
:1035300028D60020FDFFFF3F8096980080EE3600E1
:1035400000233046A5EB8605CD4E1A462946FFF7E7
:103550006BFB3168CB4802F03DFBCB4B3168186008
:10356000C84804F0DFFE3168C64805F007F898F84F
:103570000030002B7FF471AC54F8043BA5EB09023A
:103580001E1203F07F0392105AF823303A6126E4AA
:1035900098F80030A5EB8605002B7FF45EAC54F85C
:1035A000043BA5EB09021E1203F07F0392105AF8A8
:1035B00023303A6113E4384604F066FB98F8003093
:1035C000002B7FF44AAC54F8043BA5EB09021E1211
:1035D00003F07F0392105AF823303A61FFF7FFBBE4
:1035E00055F8043C002B48D155F80C0C10F0010B99
:1035F00020D04FEA600B4FEA4B0343F0010345F83C
:10360000083CBBF1000F40F3998055F8080C4FEAD5
:103610004B03CBEB600B55F80C0C43F0010345F862
:10362000043CC3072ED50BF1010B4FEA4B0343F0CB
:10363000010332E004281BD9036803F00F02092AB2
:1036400001D14068D5E7042A09D102F089F803784E
:10365000002BD0D0FFF7C0F90BF1010BF7E7032ADD
:1036600006D1C3F30F1BC3F34173C3EB8B0BC2E74C
:10367000192388F80030FFF7F0BB4FEA630B0BF11A
:10368000FF3BBEE7042854D9036803F00F03092B5E
:1036900018D10BF1020B50F82B30029A42F8263069
:1036A00098F80030A5EB09029210002B7FF4D5ABFF
:1036B00054F8043B3A611E1203F07F035AF823309A
:1036C000FFF78DBB042B2DD1029B03EB86030093E8
:1036D00002F046F80BF1010B0646BBF1010F10DCBE
:1036E0003046FFF779F9821B1046039202F06AFA1E
:1036F000834670B102F034F8039A314629F0CEFEC9
:1037000007E030780BF1FF3B38B9122388F800301E
:103710008346009BC3F800B0C2E73046FFF75CF970
:103720000646DAE7032B04D183449BF804305B00A0
:103730007DE7192388F80030FFF78FBB0434AFE72B
:1037400005EB8603A3EB0903D82B16DC0122002E20
:1037500006F1FF3316DC98F80030A5EB0902921051
:10376000002B7FF47AAB54F8043B3A611E1203F04D
:103770007F035AF82330FFF732BB1A2388F8003052
:10378000FFF76BBB45F8042B1E46E0E72B1DA3EBB0
:103790000903D82B04DD1A2388F80030FFF75DBB3E
:1037A000029B994531D255F8040CFFF785F90028A2
:1037B00027DD029B53F80C3CB0EB630F4FEA63022A
:1037C0001FDC801A00F18040029B043853F820204F
:1037D000A5EB86031A60C6F1010605EB860598F88D
:1037E0000030A5EB09029210002B7FF436AB54F8A1
:1037F000043B3A611E1203F07F035AF82330FFF7AF
:10380000EEBA202388F80030E5E71823FAE71E4BCC
:103810001A68A5EB8603C6F101061A6098F8003015
:1038200005EB8605002B7FF418AB54F8043BA5EBA1
:1038300009021E1203F07F0392105AF823303A61F6
:10384000FFF7CDBA55F8043C042BA5F1040298F813
:10385000003008BF2A46A2EB090108BF04EB86042A
:10386000891013B11546FFF7F8BA54F8043B3961D3
:103870001E1203F07F0315465AF82330FFF7AFBA44
:10388000640A0020410700201000002055F8043D84
:10389000042B1CBF002345F8043B98F80030A5EB2F
:1038A000090218BF04EB86049210002B7FF4D5AAFE
:1038B00054F8043B3A611E1203F07F035AF8233098
:1038C000FFF78DBA002EA5EB86011ADC1C2388F8C1
:1038D00000300022C6F1010605EB860598F800309D
:1038E0000A60A5EB09029210002B7FF4B6AA54F8E7
:1038F000043B3A611E1203F07F035AF82330FFF7AE
:103900006EBA0B684FF0000C5B1051F82C0010F0F1
:10391000010203D10D2388F80030DBE74010834219
:103920000CF1010CA8BF03466645EEDC5B0043F0DA
:103930000102CFE7002EA5EB86011ADC1C2388F8D4
:1039400000300022C6F1010605EB860598F800302C
:103950000A60A5EB09029210002B7FF47EAA54F8AE
:10396000043B3A611E1203F07F035AF82330FFF73D
:1039700036BA0B684FF0000C5B1051F82C0010F0B9
:10398000010203D10D2388F80030DBE740108342A9
:103990000CF1010CB8BF03466645EEDC5B0043F05A
:1039A0000102CFE755F8081C11F0010F4FEA86031A
:1039B00023D055F8042C12F0010F1ED05210B2EB98
:1039C000610FA5EB0303CCBF042200221A60C6F1ED
:1039D000010605EB860598F80030A5EB0902921068
:1039E000002B7FF43AAA54F8043B3A611E1203F00C
:1039F0007F035AF82330FFF7F2B955F8042C6FF023
:103A00000100A5EB030BFEF7FBFFCBF80000DEE7A0
:103A100055F8081C11F0010F4FEA860323D055F822
:103A2000042C12F0010F1ED05210B2EB610FA5EB67
:103A30000303ACBF042200221A60C6F1010605EBA5
:103A4000860598F80030A5EB09029210002B7FF450
:103A500004AA54F8043B3A611E1203F07F035AF89B
:103A60002330FFF7BCB955F8042C4FF0FF30A5EB1D
:103A7000030BFEF7C5FFCBF80000DEE755E90201B6
:103A80004FEA860B8142A5EB0B0B18D10423CBF830
:103A90000030C6F1010605EB860598F80030A5EB6D
:103AA00009029210002B7FF4D8A954F8043B3A6124
:103AB0001E1203F07F035AF82330FFF790B9042851
:103AC00001D80023E3E7C207FBD4036803F00F0328
:103AD000042BF6D1CB07F4D40429F2D90B6803F0F8
:103AE0000F03042BEDD1FFF775F8002814BF042352
:103AF0000023CCE755E902014FEA860B8142A5EB92
:103B00000B0B18D10023CBF80030C6F1010605EBF2
:103B1000860598F80030A5EB09029210002B7FF47F
:103B20009CA954F8043B3A611E1203F07F035AF833
:103B30002330FFF754B9042801D80423E3E7C20770
:103B4000FBD4036803F00F03042BF6D1CB07F4D4A6
:103B50000429F2D90B6803F00F03042BEDD1FFF712
:103B600039F8002814BF00230423CCE755F8081CBB
:103B700011F0010F4FEA860323D055F8042C12F000
:103B8000010F1ED05210B2EB610FA5EB0303D4BF9F
:103B9000042200221A60C6F1010605EB860598F89A
:103BA0000030A5EB09029210002B7FF456A954F8BF
:103BB000043B3A611E1203F07F035AF82330FFF7EB
:103BC0000EB955F8042C0120A5EB030BFEF718FFE6
:103BD000CBF80000DFE755F8081C11F0010F4FEAA1
:103BE000860323D055F8042C12F0010F1ED052107A
:103BF000B2EB610FA5EB0303B4BF042200221A60ED
:103C0000C6F1010605EB860598F80030A5EB090220
:103C10009210002B7FF421A954F8043B3A611E1244
:103C200003F07F035AF82330FFF7D9B855F8042C76
:103C30000220A5EB030BFEF7E3FECBF80000DFE765
:103C400055F8043C042BA5EB86030CBF002204228C
:103C5000C6F101061A6005EB860598F80030A5EB61
:103C600009029210002B7FF4F8A854F8043B3A6143
:103C70001E1203F07F035AF82330FFF7B0B855F84F
:103C8000080CFEF719FF834655F8040CFEF714FFE5
:103C90005844A5EB8603400040F00100186098F8F6
:103CA0000030C6F1010605EB8605002B7FF4D5A890
:103CB00054F8043BA5EB09021E1203F07F03921097
:103CC0005AF823303A61FFF78AB855F8080CFEF726
:103CD000F3FE834655F8040CFEF7EEFEABEB000056
:103CE000A5EB8603400040F00100186098F8003012
:103CF000C6F1010605EB8605002B7FF4AEA854F84B
:103D0000043BA5EB09021E1203F07F0392105AF840
:103D100023303A61FFF763B855F8080CFEF7CCFE84
:103D2000834655F8040CFEF7C7FE00FB0BF0A5EB2D
:103D30008603400040F00100186098F80030C6F19A
:103D4000010605EB8605002B7FF487A854F8043B99
:103D5000A5EB09021E1203F07F0392105AF82330DC
:103D60003A61FFF73CB855F8040CFEF7A5FE834610
:103D7000D8B91F2388F80030A5EB8603C6F10106E9
:103D8000186005EB860598F80030A5EB0902921043
:103D9000002B7FF462A854F8043B3A611E1203F032
:103DA0007F035AF82330FFF71AB855F8080CFEF7CE
:103DB00083FE90FBFBF0400040F00100DCE7A5EB48
:103DC000860BDBF80000FEF777FE0090DBF80400BE
:103DD000FEF772FE009BD0B91F2388F80030C6F1B1
:103DE000010605EB860598F80030CBF80000A5EB3E
:103DF00009029210002B7FF430A854F8043B3A617A
:103E00001E1203F07F035AF82330FEF7E8BF80EA62
:103E1000E072A2EBE07293FBF2F002FB103000289C
:103E2000B8BF8018400040F00100D8E755F8040CF6
:103E3000FEF742FE0028B8BF4042A5EB86034000D3
:103E400040F00100186098F80030C6F1010605EB5B
:103E50008605002B7FF401A854F8043BA5EB09026A
:103E60001E1203F07F0392105AF823303A61FEF7D6
:103E7000B6BF012EA5EB860B35D1DBF80000FEF7AF
:103E80001BFE0028ACBF01224FF0FF32824202DD50
:103E90001346024618460130831A0392009329F014
:103EA0005BFB009B039A90FBF3F101FB13031A44A5
:103EB0005200C6F1010642F0010205EB860598F8B2
:103EC0000030CBF80020A5EB09029210002B7EF405
:103ED000C4AF54F8043B3A611E1203F07F035AF852
:103EE0002330FEF77CBF022E0AD1DBF80000FEF77C
:103EF000E3FD0090DBF80400FEF7DEFD009AC5E765
:103F000064200122C7E7A5EB860B3046594601F035
:103F1000BCFF98F80030CBF80000C6F1010605EBB5
:103F20008605002B7EF499AF54F8043BA5EB0902FB
:103F30001E1203F07F0392105AF823303A61FEF705
:103F40004EBF55F8080CFEF7B7FD834655F8040C34
:103F5000FEF7B2FD0BEA0000A5EB8603400040F03F
:103F60000100186098F80030C6F1010605EB8605DF
:103F7000002B7EF472AF54F8043BA5EB09021E122D
:103F800003F07F0392105AF823303A61FEF727BFFF
:103F900055F8080CFEF790FD834655F8040CFEF723
:103FA0008BFD4BEA0000A5EB8603400040F00100CA
:103FB000186098F80030C6F1010605EB8605002B65
:103FC0007EF44BAF54F8043BA5EB09021E1203F03C
:103FD0007F0392105AF823303A61FEF700BF55F87C
:103FE000080CFEF769FD834655F8040CFEF764FDE6
:103FF0008BEA0000A5EB8603400040F0010018604A
:1040000098F80030C6F1010605EB8605002B7EF41A
:1040100024AF54F8043BA5EB09021E1203F07F0302
:1040200092105AF823303A61FEF7D9BE55F8040CC5
:10403000FEF742FDC043A5EB8603400040F00100BF
:10404000186098F80030C6F1010605EB8605002BD4
:104050007EF403AF54F8043BA5EB09021E1203F0F3
:104060007F0392105AF823303A61FEF7B8BE55F834
:10407000080CFEF721FD834655F8040CFEF71CFDE5
:104080000BFA00F0A5EB8603400040F00100186039
:1040900098F80030C6F1010605EB8605002B7EF48A
:1040A000DCAE54F8043BA5EB09021E1203F07F03BB
:1040B00092105AF823303A61FEF791BE55F8080C79
:1040C000FEF7FAFC834655F8040CFEF7F5FC4BFAB4
:1040D00000F0A5EB8603400040F00100186098F85E
:1040E0000030C6F1010605EB8605002B7EF4B5AE67
:1040F00054F8043BA5EB09021E1203F07F03921053
:104100005AF823303A61FEF76ABE55F80C0CFEF7F8
:10411000D3FC834655F8080CFEF7CEFC8BFB00233E
:1041200055F8040CCDE90023FEF7C6FCDDE90023B9
:10413000C0F1200CB0F1200103FA0CFC22FA00F0CF
:1041400040EA0C005CBF43FA01F10843A5EB860E80
:10415000400098F8003040F00100C6F10106CEF8AA
:10416000000005EB8605002B7EF477AE54F8043B87
:10417000A5EB09021E1203F07F0392105AF82330B8
:104180003A61FEF72CBEA5EB860B30465946FDF78B
:104190006FFF98F80030CBF80000C6F1010605EB80
:1041A0008605002B7EF459AE54F8043BA5EB0902BA
:1041B0001E1203F07F0392105AF823303A61FEF783
:1041C0000EBEA5EB860529463046FDF76BFF98F835
:1041D0000030002B7EF441AE54F8043BA5EB0902FD
:1041E0001E1203F07F0392105AF823303A61FEF753
:1041F000F6BDA5EB860B30465946FDF797FF98F8BC
:104200000030CBF80000C6F1010605EB8605002B57
:104210007EF423AE54F8043BA5EB09021E1203F012
:104220007F0392105AF823303A61FEF7D8BDA5EB10
:10423000860529463046FEF71FF898F80030002B17
:104240007EF40BAE54F8043BA5EB09021E1203F0FA
:104250007F0392105AF823303A61FEF7C0BDA5EBF8
:10426000860B30465946FEF797F898F80030CBF8A1
:104270000000C6F1010605EB8605002B7EF4EDADCE
:1042800054F8043BA5EB09021E1203F07F039210C1
:104290005AF823303A61FEF7A2BD55F8040C01F03C
:1042A0005FFA55F8083CDA072ED4042B0CD91B68AA
:1042B00003F00F03013B082B10D8DFE803F00525BE
:1042C0002B270F0F0F0F2900C54929F057FAA5EB2F
:1042D000860300280CBF042200221A60C6F10106E2
:1042E00005EB860598F80030A5EB09029210002B2B
:1042F0007EF4B3AD54F8043B3A611E1203F07F0321
:104300005AF82330FEF76BBDB649DEE7B649DCE765
:10431000B649DAE7B649D8E705F1040BABEB090675
:10432000D82E04DD1A2388F80030FEF796BD00F081
:1043300067FF98F80030400040F001002860B2109C
:1043400013B15D46FEF789BD54F8043B3A611E1275
:1043500003F07F035D465AF82330FEF740BD05F1B8
:10436000040BABEB0906D82E04DD1A2388F80030C5
:10437000FEF773BD00F03CFF9E4B03EA400098F847
:10438000003040F001002860B21013B15D46FEF726
:1043900064BD54F8043B3A611E1203F07F035D468E
:1043A0005AF82330FEF71BBD05F1040BABEB0903F4
:1043B000D82B04DD1A2388F80030FEF74EBD00F03C
:1043C0001FFF8D4B1B6898423DBFC3F5830303F667
:1043D0003713C018C01A400098F8003040F00100B0
:1043E000ABEB09022860921013B15D46FEF735BDB4
:1043F00054F8043B3A611E1203F07F035D465AF8FD
:104400002330FEF7ECBC00F0FBFE7B4B186098F805
:104410000030A5EB8605002B7EF41FAD54F8043B5D
:10442000A5EB09021E1203F07F0392105AF8233005
:104430003A61FEF7D4BC03F06BFEB30090B9ED1AFD
:1044400098F80030A5EB09029210002B7EF405AD20
:1044500054F8043B3A611E1203F07F035AF82330EC
:10446000FEF7BDBC3046A5EB0308644E01231A4697
:104470004146FEF7D9FB3068643003F0A7FB002803
:104480003EF4A0AF7A7831685D4803F096FD0123D1
:104490003B7000F0ADFE5B4A33681268063302FBE6
:1044A000030078604546FEF7AABC03F031FEB10078
:1044B00090B96D1A98F80030A5EB09029210002B04
:1044C0007EF4CBAC54F8043B3A611E1203F07F0338
:1044D0005AF82330FEF783BC3046A5EB0108474E5F
:1044E000012300224146FEF79FFB3068643003F051
:1044F0006DFB00283EF466AF414803F01FFDC6E7A0
:10450000FEF734FCA5EB860B98F80030CBF80000E2
:10451000C6F1010605EB8605002B7EF49EAC54F82F
:10452000043BA5EB09021E1203F07F0392105AF818
:1045300023303A61FEF753BC98F80030A5EB8605AE
:10454000002B7EF48AAC54F8043BA5EB09021E1242
:1045500003F07F0392105AF823303A61FEF73FBC14
:10456000012E4FEA86021BDC1C2388F80030AA1AB1
:1045700000231360C6F1010605EB860598F80030AC
:10458000A5EB09029210002B7EF467AC54F8043BB3
:104590003A611E1203F07F035AF82330FEF71FBC66
:1045A000029B9945A5EB020202D355F8043CE0E7D3
:1045B00055F8083C55F8041C5B10002B0DDD0298E3
:1045C00050F80C0CB3EB600F4FEA600CDFBFA3EBAD
:1045D0000C030299043B51F823101160CAE700BF95
:1045E000A6E60200AEE60200B5E60200BCE6020066
:1045F000C1E60200FEFFFF7F700A0020640A00206F
:10460000410700200C000020A5EB860B584600F067
:1046100030FE98F80030CBF80000C6F1010605EB3B
:104620008605002B7EF419AC54F8043BA5EB090277
:104630001E1203F07F0392105AF823303A61FEF7FE
:10464000CEBBA5EB860B584600F015FE98F800305F
:10465000CBF80000C6F1010605EB8605002B7EF4C1
:10466000FCAB54F8043BA5EB09021E1203F07F03D8
:1046700092105AF823303A61FEF7B1BBA5EB860BD6
:104680003046594600F0DAFC98F80030CBF80000CC
:10469000C6F1010605EB8605002B7EF4DEAB54F86F
:1046A000043BA5EB09021E1203F07F0392105AF897
:1046B00023303A61FEF793BBA5EB8605284600F050
:1046C000DDFD98F80030002B7EF4C7AB54F8043BB6
:1046D000A5EB09021E1203F07F0392105AF8233053
:1046E0003A61FEF77CBBA5EB860B3046594600F0DD
:1046F00067FC98F80030CBF80000C6F1010605EB26
:104700008605002B7EF4A9AB54F8043BA5EB090207
:104710001E1203F07F0392105AF823303A61FEF71D
:104720005EBBA5EB8605284600F09AFE98F800309F
:10473000002B7EF492AB54F8043BA5EB09021E1249
:1047400003F07F0392105AF823303A61FEF747BB1B
:104750000121304600F042FE98F80030002B7EF434
:104760007CAB54F8043BA5EB09021E1203F07F0357
:1047700092105AF823303A61FEF731BB00213046DF
:1047800000F02CFE98F80030002B7EF466AB54F855
:10479000043BA5EB09021E1203F07F0392105AF8A6
:1047A00023303A61FEF71BBBA5EB860B584600F0A1
:1047B000D7FD98F80030CBF80000C6F1010605EBF4
:1047C0008605002B7EF449AB54F8043BA5EB0902A7
:1047D0001E1203F07F0392105AF823303A61FEF75D
:1047E000FEBAA5EB860B584600F0CEFD98F80030D7
:1047F000CBF80000C6F1010605EB8605002B7EF420
:104800002CAB54F8043BA5EB09021E1203F07F0306
:1048100092105AF823303A61FEF7E1BAA5EB86050B
:10482000284600F07FFD98F80030002B7EF415AB91
:1048300054F8043BA5EB09021E1203F07F0392100B
:104840005AF823303A61FEF7CABAA5EB8605284626
:1048500004F012FB98F80030002B7EF4FEAA54F806
:10486000043BA5EB09021E1203F07F0392105AF8D5
:1048700023303A61FEF7B3BAA5EB860B584604F035
:1048800007FC98F80030CBF80000C6F1010605EBF4
:104890008605002B7EF4E1AA54F8043BA5EB09023F
:1048A0001E1203F07F0392105AF823303A61FEF78C
:1048B00096BAA5EB8605284604F028FA98F8003049
:1048C000002B7EF4CAAA54F8043BA5EB09021E1281
:1048D00003F07F0392105AF823303A61FEF77FBA53
:1048E000A5EB860B584604F02FFA98F80030CBF869
:1048F0000000C6F1010605EB8605002B7EF4ADAA8B
:1049000054F8043BA5EB09021E1203F07F0392103A
:104910005AF823303A61FEF762BAA5EB86052946BC
:10492000304602F00FF898F80030002B7EF495AA7C
:1049300054F8043BA5EB09021E1203F07F0392100A
:104940005AF823303A61FEF74ABAA5EB86052946A4
:10495000304601F0DDFD98F80030002B7EF47DAA92
:1049600054F8043BA5EB09021E1203F07F039210DA
:104970005AF823303A61FEF732BAA5EB860529468C
:10498000304601F09FFE98F80030002B7EF465AAB7
:1049900054F8043BA5EB09021E1203F07F039210AA
:1049A0005AF823303A61FEF71ABAA5EB8605294674
:1049B000304601F0ADFE98F80030002B7EF44DAA91
:1049C00054F8043BA5EB09021E1203F07F0392107A
:1049D0005AF823303A61FEF702BAA5EB860B30464F
:1049E000594604F071FC98F80030CBF80000C6F18D
:1049F000010605EB8605002B7EF42FAA54F8043B34
:104A0000A5EB09021E1203F07F0392105AF823301F
:104A10003A61FEF7E4B9A5EB860B3046594604F03F
:104A20005BFC98F80030CBF80000C6F1010605EBFE
:104A30008605002B7EF411AA54F8043BA5EB09026D
:104A40001E1203F07F0392105AF823303A61FEF7EA
:104A5000C6B9A5EB860B3046594604F045FC98F8DC
:104A60000030CBF80000C6F1010605EB8605002BEF
:104A70007EF4F3A954F8043BA5EB09021E1203F0DF
:104A80007F0392105AF823303A61FEF7A8B9A5EBDC
:104A9000860B3046594603F0CFFF98F80030CBF82C
:104AA0000000C6F1010605EB8605002B7EF4D5A9B2
:104AB00054F8043BA5EB09021E1203F07F03921089
:104AC0005AF823303A61FEF78AB9A5EB86052946E4
:104AD000304601F0C1FE98F80030002B7EF4BDA9ED
:104AE00054F8043BA5EB09021E1203F07F03921059
:104AF0005AF823303A61FEF772B9A5EB86052946CC
:104B0000304601F02DFE98F80030002B7EF4A5A968
:104B100054F8043BA5EB09021E1203F07F03921028
:104B20005AF823303A61FEF75AB9A5EB860B3046A6
:104B3000594601F08FFD98F80030CBF80000C6F11F
:104B4000010605EB8605002B7EF487A954F8043B8B
:104B5000A5EB09021E1203F07F0392105AF82330CE
:104B60003A61FEF73CB9A5EB86052946304601F0CF
:104B700015FD98F80030002B7EF46FA954F8043B23
:104B8000A5EB09021E1203F07F0392105AF823309E
:104B90003A61FEF724B9002E40F38880012E55F8C3
:104BA00004BC48D11BF0010F52D1BBF1040F4FD907
:104BB000DBF8003003F00F03042B49D1584600F016
:104BC000CFFDFDF79FFF03465A1CA5EB86056DD070
:104BD000022E4ED11BF0010F43D1BBF1040F40D97F
:104BE000DBF8002002F00F02092A3AD1DBF80400BA
:104BF0002E1FC0F34700012181422CDD05EB80050B
:104C0000A5EB090292103A6123F0FF0212F5807FB2
:104C100031D11E02B6B206434A48C6F3072C00EB58
:104C2000CC0332121B79032B3EF46FAB022388F8BE
:104C30000030FEF712B9022E0AD155F8080CC10750
:104C400006D4042804D9036803F00F03042BB6D05C
:104C50004FF0FF33B8E701315BF8212046F8042F0D
:104C6000CAE70B2388F80030002345F8043BFEF721
:104C7000F4B80020C4E7A5EB800529469847324ADE
:104C80000023136045F8040B98F80030A5EB0902E7
:104C90009210002B7EF4E1A854F8043B3A611E12F6
:104CA00003F07F035AF82330FEF799B8002345F844
:104CB000043B98F80030A5EB09029210002B7EF41B
:104CC000CCA854F8043B3A611E1203F07F035AF853
:104CD0002330FEF784B8A5EB86052946304603F05D
:104CE00051FA98F80030002B7EF4B7A854F8043B32
:104CF000A5EB09021E1203F07F0392105AF823302D
:104D00003A61FEF76CB8A5EB860B3046594603F0C6
:104D100039FA98F80030CBF80000C6F1010605EB2F
:104D20008605002B7EF499A854F8043BA5EB0902F4
:104D30001E1203F07F0392105AF823303A61FEF7F7
:104D40004EB800BF28D60020347800202DE9F84F57
:104D500003F02CFC03F01CFB01F00AFE1E4E64273E
:104D60000025DFF88080284617E0012B0ED108B916
:104D700000F03EFAF02303FB09F39B441749DBF8EC
:104D80000420821A8A423CBF0222E254F02303FB31
:104D900009F3E35C022B18D00135D8F80020AA42B1
:104DA00016DD33680E4C01339342A8BF00233360F5
:104DB000D6F80090F02303FB09F304EB030AE35C4D
:104DC000A346002BE8D0022BCFD15046FDF7E4FFDD
:104DD000013FC5D1BDE8F88F0800002080969800FB
:104DE000C8CC0020680A002020B1034B800143F0AA
:104DF00001031847704700BFD0ED02000A4B4FF483
:104E000000721A60094B01211964D3F8402505325C
:104E1000C3F84825C3F84C254FF44022C3F80423B7
:104E2000034B1970704700BF00E100E000900040A4
:104E3000B70A002004207047F8B5D1E9003513F017
:104E4000010031D015F001002ED0392B4FEA630458
:104E500044D8234F6D1041F288363B5DAE42A8BF67
:104E60002E46012B05D00121204624F08BFD012385
:104E70003B551C4B1B780BB9FFF7C0FF002D1A4B9D
:104E800013DC1A49002240F2DC50FF2513F8016BB5
:104E9000B44208BF21F8120002F1010208BF03F872
:104EA000015C082AF2D10420F8BD194618460022F8
:104EB00010F8015BAC4203D10C4B23F81260F2E70F
:104EC0000132082AF4D1002211F8010BFF2801D188
:104ED0009C54F1E70132082AF6D1E4E70020E3E729
:104EE000980A0020B70A00202C000020160000209D
:104EF0000A68012838B5CCBF4B680123D00711D50B
:104F0000D9070FD5012A0DDD392B4FEA630409D8E3
:104F1000054D2B5D012B05D00121204624F032FDEB
:104F200001232B55002038BD980A002070B5D1E927
:104F3000003513F0010020D015F001001DD0392BF1
:104F40004FEA6304174E88BF1B24335D012B05D045
:104F50000121204624F016FD01233355124B6D101C
:104F6000A5F110029A42114B08D94FF0FF320021EF
:104F700020461A6024F044FD042070BD1C600C4BD8
:104F80000C4890FBF5F018800B4B1B780BB9FFF722
:104F900035FF0A4B01229A64D3F848251044C3F820
:104FA0004805E9E7980A00209086010028000020C3
:104FB0001400002020A10700B70A00200090004044
:104FC0000B68DA0770B504D40D20FDF7A7FE0120A9
:104FD00070BD392B4FEA630414D8012814DD4B68E7
:104FE000042B14BF00250225094E335DAB4204D0CB
:104FF0002946204624F0C6FC3555204624F024FDE1
:10500000012803D00020E3E70025EDE70420DFE7D7
:10501000980A0020002802DC1C20FDF77FBE0B68E8
:10502000DB0701D40D20F8E700207047002802DCE0
:105030001C20FDF773BE0120704700000B68DA07E3
:1050400073B505460C4604D40D20FDF767FE01201C
:1050500009E05B100A2B23D0062B06D103F086FE55
:10506000400040F0010002B070BDF0D80D4A0E4E75
:1050700052F82300335C33B10021019024F082FC0C
:10508000019800233354012D07DD6368042B04D1FC
:105090000221019024F076FC019824F08DFBDFE7DB
:1050A0000523E3E7B4ED0200980A002007B510F0ED
:1050B000010104D04110084603B05DF804FB042848
:1050C00013D9026802F00F02042A09D1019100F0FD
:1050D00047FB01990A2203B05DF804EB28F02ABCD3
:1050E000032A02D10A220430F5E70D200191FDF7D1
:1050F00015FE0199DFE700000228F8B50D4604DC33
:10510000BDE8F8401C20FDF709BE0868FFF7CEFF98
:1051100006466868FFF7CAFF0446A868FFF7C6FF9F
:105120001C2C05465BD82F4F3B5D012B05D0012180
:10513000204624F027FC01233B550021204624F083
:105140005FFC294B93FBF5F5013D2846FFF74CFE2C
:1051500006F00101204624F053FC2846FFF744FEE8
:10516000C6F34001204624F04BFC2846FFF73CFEE6
:10517000C6F38001204624F043FC2846FFF734FEA6
:10518000C6F3C001204624F03BFC2846FFF72CFE66
:10519000C6F30011204624F033FC2846FFF724FE16
:1051A000C6F34011204624F02BFC2846FFF71CFED6
:1051B000C6F38011204624F023FC2846FFF714FE96
:1051C000C6F3C011204624F01BFC2846FFF70CFE56
:1051D0002046012124F014FC2846FFF705FE00209C
:1051E000F8BD00BF980A002040420F00042070471D
:1051F000024B01221A64D3F840057047009000402A
:10520000044B01221A64D3F840054FF47A73B0FBC3
:10521000F3F070470090004000487047ACEC02008B
:105220001D20704770B5054E335C8B4204460D4619
:1052300002D024F0A7FB355570BD00BF980A0020AE
:1052400070B50024094D264615F8013B012B09D104
:105250000021204624F0D4FB0021204624F092FBBC
:1052600005F8016C01341D2CEED170BD980A0020A8
:1052700070470F2070473B20704700000368D90734
:1052800070B502D54668F20704D4BDE870400D2021
:10529000FDF744BD392B4FEA630432D8194D2B5D1D
:1052A000012B18D00121204624F06CFB01231B2C7C
:1052B0002B5510D1144BDA6E144B202AB8BF4FF087
:1052C000A04302F01F0203EB8203D3F8002742F44D
:1052D0004072C3F800270E4BD3F8082132B1D3F83F
:1052E0001821002AFBD00022C3F81821A6F34A0196
:1052F0008910204624F0F4FA2B5D012B04BF054AE7
:10530000135570BD980A002068E3020000030050A6
:1053100000C00140740A002008B50846FFF7AEFF40
:10532000002008BD13B50A4A044692E8030022682B
:105330006B46042A83E8030019464FF0020003D1AC
:1053400001F0C0F902B010BD01F0E2F9FAE700BFC8
:1053500044ED020008B50846FFF7E4FF002008BD51
:1053600010B5084C63792BB10021052024F00AFB0D
:1053700000236371052024F067FB00280CBF042084
:10538000002010BD980A002010B5084CE37A2BB11C
:1053900000210B2024F0F6FA0023E3720B2024F006
:1053A00053FB00280CBF0420002010BD980A0020E9
:1053B00007480849084A012343604B6053600023B3
:1053C000C0F80035C1F80035C2F80035704700BF9D
:1053D00000C0014000100240002002401C2870B5AF
:1053E00004460D4632D81A4E335C012B04D00121FD
:1053F00024F0C8FA012333551C2C12D1FFF7D8FF33
:10540000144B1A6F144B202AB8BF4FF0A04302F080
:105410001F0203EB8203D3F8002742F44072C3F863
:1054200000270E4B1B5D4BB1002D40F2FF31204693
:1054300008BF0021BDE8704024F052BA291E204662
:1054400018BF0121BDE8704024F0DABA70BD00BF7A
:10545000980A002068E3020000030050740A00204C
:105460000368D90702D40D20FDF758BC41680A1F14
:10547000514251415810FFF7B1BF08B50846FFF738
:10548000EFFF002008BD0000F8B5324CD4F84831D9
:10549000ABB10023D4F84855C4F848312E4B1868F6
:1054A00000280CDB2D4A1178B1FA81F149091170FD
:1054B00024F0A6FA2A4B1B882B44C4F84835254B08
:1054C000D3F84C21002A37D0264ED3F84C45264D30
:1054D0000021C3F84C11337833B12B68072B03D864
:1054E000224AD05C24F08CFA2B68204F01335A42B8
:1054F00002F0070203F0070358BF53422B6000225B
:10550000082B194619D00133F81810F8010CFF28A0
:1055100001D10122F4E702B12960012124F070FADF
:1055200001232A683370124B33F8122004F10C0364
:105530001344084AC2F84C35F8BD4FF0FF33054A12
:105540002B6004F58C4400235C343370C2F84C4566
:10555000F2E700BF0090004028000020B60A0020BB
:1055600014000020B50A0020940A00202C0000201E
:10557000160000200849094A10B50823FF2440F20C
:10558000DC50013B01F8014B22F8020BF9D1044A2F
:105590001370044A136010BD2C0000201600002078
:1055A000B50A0020940A0020024B4FF0FF321A6027
:1055B000704700BF28000020024A03480D2102F076
:1055C00033BA00BF4CED020011F8020038B54FF4B9
:1055D000E1312A4820F014FD294B012200211A61F3
:1055E000C3F804150321C3F808150421C3F81015E6
:1055F0001A604FF080430221C3F818159A604FF0EB
:105600001023D3F80C32DB070FD51E4BC3F804254B
:10561000D3F80024002AFBD04FF010226FF00101D4
:10562000C2F80C120022C3F80425082024F0ACF8BC
:10563000154A0023FF2101331D2B02F8011BFAD16B
:10564000124B134D01221A600020124A0423014616
:105650001468002CFCD02C681160013B44EA002047
:10566000F6D10D4B01221A6020F02EFE01F0F6F962
:1056700004F09CFCBDE8384004F082BCD0B90020A6
:105680000090004000E00140980A002000D0004057
:1056900008D5004000D1004004D00040C3070CD41E
:1056A000064B1B68984208D3054B1B68984204D8E8
:1056B00050F8043C002B18BF18467047C00A002061
:1056C000BC0A00200B4908B5012200230133642BDA
:1056D00041F8042BFAD1084B1A60084B46F6705279
:1056E0001846002127F002FF054B40F8043F054B08
:1056F000186008BD20DE002010000020C40A002031
:10570000A0B50100B80A0020034B044A1A60044BFC
:10571000044A1A60FFF7D6BFC00A0020C40A00205E
:10572000BC0A002034780020044B1B681868C0F3C2
:105730000F10023820EAE070704700BFB80A00205E
:1057400000B59BB00246054901A823F027FD01A83A
:1057500002F0F2FC02F02AFFFCE700BFD6ED0200E7
:10576000C30713D4042802D812D00B48704703682B
:1057700003F00F03042B01D104307047092B09D02B
:10578000064A0748032B08BF104670470548704774
:10579000054870470548704764EA020001EE0200C0
:1057A000E7ED0200F0ED02006AEA0200FAED020005
:1057B00000B59BB002460B4601A8044923F0EEFC5D
:1057C00001A802F0B9FC1BB05DF804FB0DEE02006D
:1057D00000B59BB002460B4601A8044923F0DEFC4D
:1057E00001A802F0A9FC1BB05DF804FB14EE020056
:1057F000064B074900201A6843F8040CC2F30F1245
:10580000023203EB82038B42F5D37047C80A0020B3
:10581000347800202C4B2D4A18682D4B2DE9F0418F
:105820001C682C4D13681F0726D41368C3F30F138D
:10583000023302EB8302AA42F4D3274964220868A8
:10584000FFF72CFF013A41F8040BF8D1234A106806
:10585000FFF724FF1060224A106810B1FFF71EFF07
:105860001060204B20491E6800240F464FF03C0872
:10587000B44214DBBDE8F081C3F30F1302EB8303E2
:105880009A42D2D01968CE0707D4884205D28C42FA
:1058900003D351F8041C01B11960043BF0E70B7805
:1058A00013B90134F031E3E70A69551E08FB0422FD
:1058B000053207EB8202002DF3DB1068FFF7EEFEE6
:1058C000013D42F80409F6E7C00A0020C80A00209A
:1058D000BC0A00203478002020DE002010000020C8
:1058E00034780020680A0020C8CC0020C307F0B537
:1058F0003ED4204B1C68A0423AD31F4B1D68A842DF
:1059000036D850F8043C9BBB03680246C3F30F1320
:10591000012673B9904242F8046C29D0116851F8FD
:10592000043C51F82370176041F82320013B0A46DC
:10593000EFE752F82310CF0702EB830C16D48C420A
:1059400014D88D4212D351F8047C7FB90F6817F038
:10595000080F08D0CCF8007042F8043C0B680A60CD
:10596000C3F30F13E3E741F8046CD2E7013BD0E740
:10597000F0BD00BFC00A0020BC0A00200D4930B5B0
:105980000D4C0B461A6853F8045CC2F30F12901CBE
:1059900065B18B4214BF0A46002243F8042C01EB88
:1059A000800103EB8003A342ECD330BD12011A60E7
:1059B000F7E700BFC80A002034780020144B2DE917
:1059C000F041144C1D464FF000082A68C2F30F172F
:1059D00012070FD09D4207F1010605D01846B2000C
:1059E000294627F069FD034603EB8602134604337C
:1059F000C2F80080023705EB8705A542E5D3E41A1B
:105A0000A410054A013C24011C601360BDE8F0812C
:105A1000C80A002034780020B80A00202DE9F0419F
:105A20009AB0FFF7E5FB224D0646002455F8040B1B
:105A30000134FFF75BFF642CF8D11E4B1868FFF7A9
:105A400055FF1D4B186808B1FFF750FF1B4DDFF8DD
:105A500078800027D8F800309F4218DBFFF78EFFD0
:105A6000FFF7D8FEFFF7AAFFFFF7C2FB144B15495B
:105A70001B681B68C3F30F13821B023B01A823F0B2
:105A80008DFB01A802F058FB1AB0BDE8F08115F8B3
:105A9000183C13B90137F035DCE755F8084C013CE8
:105AA000002CF7DB55F82400FFF720FFF7E700BFD5
:105AB00020DE00201000002034780020E0CC002000
:105AC000B80A00201DEE0200680A00202DE9F84304
:105AD0001C4C23681B6801F10109C3F30F1399459E
