:10000000000002202570020065700200C17302002A
:10001000697002006B7002006D7002000000000049
:10002000000000000000000000000000817A0200D3
:100030007170020000000000A17A020075700200D9
:100040002D7D020061AE01006D41020029A7000074
:100050001DA7000077700200777002007770020021
:1000600077700200695100007770020079AE0100DC
:10007000777002006DAE01007770020077700200A9
:1000800077700200814402007770020077700200EE
:1000900077700200777002007770020077700200BC
:1000A00077700200777002007770020077700200AC
:1000B000777002007770020000000000000000006E
:1000C000777002007770020077700200777002008C
:1000D000777002007770020077700200777002007C
:1000E0007770020000000000000000000000000027
:1000F000000000007770020000000000777002002E
:1001000000000000000000000000000000000000EF
:1001100000000000000000000000000000000000DF
:1001200000000000000000000000000000000000CF
:1001300000000000000000000000000000000000BF
:1001400000000000000000000000000000000000AF
:10015000000000000000000000000000000000009F
:10016000000000000000000000000000000000008F
:10017000000000000000000000000000000000007F
:10018000000000000000000000000000000000006F
:10019000000000000000000000000000000000005F
:1001A000000000000000000000000000000000004F
:1001B000000000000000000000000000000000003F
:1001C000000000000000000000000000000000002F
:1001D000000000000000000000000000000000001F
:1001E000000000000000000000000000000000000F
:1001F00000000000000000000000000000000000FF
:1002000010B5054C237833B9044B13B10448AFF350
:1002100000800123237010BD380200200000000080
:10022000801D030008B5034B1BB103490348AFF31E
:10023000008008BD000000003C020020801D03007B
:10024000A3F5803A704700BF174B002B08BF134B34
:100250009D46FFF7F5FF00218B460F461348144AD1
:10026000121A2BF08BFC0E4B002B00D098470D4B35
:10027000002B00D098470020002104000D000D48FD
:10028000002802D00C48AFF300802BF0B5FB200013
:10029000290026F08BFE2BF09BFB00BF000008001E
:1002A00000000000000000000000022038020020D2
:1002B000A43B012000000000000000007047000087
:1002C00010B5064C20680DF075FD2068044ABDE8A5
:1002D0001040002301210DF08FBD00BF5802002007
:1002E000C102000010B5044626F09AFE204610BD5B
:1002F00008B5034B1B680BB102F0B6F8002008BD2F
:100300005402002000F1080373B5044603600D4653
:10031000E1B108462BF084FD0F2805EB00060190A3
:1003200007D9002201A9204627F0A6FE019B2060E4
:10033000A36020683246294627F0D6FE019B22683A
:10034000636000212046D15402B070BD014827F0FF
:1003500084FE00BF74CA020070B5002888B02BDD8F
:10036000086810F0010227D1042825D9036803F09A
:100370000F03042B20D1019205F062F8054602F02C
:1003800051F80DF0F7FA0E4C20600CF038FD0D49D5
:1003900020680CF05BFE2668294602A8FFF7B2FF32
:1003A00002A930460CF0CCFE02A827F087FE019A85
:1003B000206811460CF07AFB002008B070BD00BF29
:1003C000540200209ECA02002DE9F041294C251D4F
:1003D000A76806460123A84677B107F11001304609
:1003E00027F087FE0028B4BFBA68FA683D46B4BF5C
:1003F000012300231746EFE77BB1E368AB4208D047
:10040000284627F0E5FC3146103027F072FE002820
:100410001CDA454503D1012707E02846F3E705F13B
:100420001001304627F065FEC70F282026F0F4FDA6
:1004300031468046103027F0A3FE0F4B2A46414636
:10044000384627F0C7FC6369013363616369642B35
:100450000DD90949E06827F019FD0546103027F04D
:100460002DFE284626F0DCFD6369013B6361BDE893
:10047000F08100BFF4030020F8030020024A034883
:10048000052107F079B900BF58CB0200C3CA0200AA
:1004900070B505460C466CB1E1682846FFF7F8FFD9
:1004A00004F11000A66827F009FE204626F0B8FDEA
:1004B0003446F0E770BD0000F8B5164F3D7845BBF7
:1004C0000DF078FA144C06462060042026F0A4FDB6
:1004D000124B03602A46014630460DF036FC206878
:1004E00029460DF02FFC206801210DF024FC206826
:1004F0000B4C0C4A2B4601210DF07EFCA1682046D6
:10050000FFF7C6FF231DC4E903330123A56065611E
:100510003B70F8BDF00300205802002008CB020019
:10052000F4030020C102000008B5064B1B780BB98C
:10053000FFF7C2FF044B187818B100221A70034B62
:10054000186808BDF00300201004002014040020E7
:100550001B4B1B7870B50BB9FFF7AEFF194E346813
:100560005CB3E11C48BFA11D00228910032005F0E7
:100570000DF9054620B9BDE870400A2002F03EBAE8
:100580001149224604302BF0D1FAEB0711D4042D87
:100590000FD92A6802F00F03032B0AD104F00303DA
:1005A000C3F104035B0703F0C04322F0C0421343CE
:1005B0002B6000233360284670BD2546FBE700BF53
:1005C000F00300200C0400206002002008B5084B56
:1005D0001B780BB9FFF770FF064B187830B100227B
:1005E0001A70054B1868400040F0010008BD00BFBC
:1005F000F00300205C0200201804002010B5816880
:100600000446FFF745FF204610BDF8B5041D856878
:100610000F46264655B105F11000394627F069FD11
:100620000028AABF2E46ED68AD68F3E7B44208D0B3
:1006300006F11001384627F05CFD36EA200628BF97
:1006400026463046F8BD00002DE9F043084699B033
:100650000C460CF005F800283FD0002221466846E1
:100660000CF058F8694612A80EF064FD129906A81D
:10067000FFF748FE12A827F021FD714906A827F0D0
:1006800046FD38BB21460CA80CF0BBF86D490CA800
:1006900027F03DFDD8B16C480CA9FFF7B6FF6B4BB6
:1006A000834214D1DDE90C321344694A13F8013C4A
:1006B0000CA9303B12A8136027F062FD12A8FFF7C7
:1006C00083FE12A827F0FAFC624B01221A700CA8D4
:1006D00027F0F4FC06A827F0F1FC20460BF086FF7B
:1006E000002837D00022214668460CF0AFF80022DF
:1006F000214606A80CF053F806A912A80EF01AFD20
:1007000012990CA8FFF7FEFD12A827F0D7FC52495A
:100710000CA827F0FCFCB8B94B486946FFF775FFF9
:100720004A4B834210D1009BDA79494B694612A8A3
:100730001A6027F025FD12A8FFF746FE12A827F041
:10074000BDFC444B01221A700CA827F0B7FC684688
:1007500027F0B4FC20460BF09CFF404D6428D4BF2A
:10076000286064232046C8BF2B600BF090FF2A68E6
:1007700001463B482BF0DAF9214612A80CF041F86B
:10078000129906A8FFF7BEFD12A827F097FC214694
:100790000CA8DDF818900BF091FE0CA912A80BF034
:1007A00083FE12A8DDF8488027F088FC20460BF075
:1007B00090FE054620460BF053FF00283ED0002255
:1007C00021460CA80BF0A6FF12A80CA90EF0B2FC53
:1007D00012A8129F27F072FC00220521092004F0C4
:1007E000D5FF204E092343600446306048462BF075
:1007F00017FB0146484605F04DF8A06040462BF037
:100800000FFB01464046346805F044F8E060384686
:100810002BF006FB01463846346805F03BF86D00C6
:100820003368206145F001055D610F4B012206A888
:100830001A7027F043FC19B0BDE8F0830B4FCBE7EB
:100840009ECA0200CACA0200F4030020F803002076
:10085000180400205C020020DBCA02000C04002007
:10086000600200201404002010040020C7CA020007
:10087000054806490023021DC0E903220371044A0A
:100880008360436127F059BAF4030020FD0500009E
:1008900000000020002070470020704700207047B3
:1008A00000207047024A0348042106F065BF00BFDC
:1008B000B0CB020080CB0200C30711D404280FD9AB
:1008C000026802F00F03032B0AD101F00301C1F10A
:1008D00004035B0703F0C04322F0C04213430360EC
:1008E0007047024610F001000FD1042A0ED9136898
:1008F000C3F30F1050B1431E9800031D0432115C66
:1009000021B101308342FAD170470020704703784B
:1009100083B11A0601D40130704703F0C003C02B25
:1009200008BF0130024610460132037803F0C003CD
:10093000802BF8D0704708B5002103780BB9084622
:1009400008BDFFF7E4FF0131F7E7014600787F2893
:1009500029DDDF2807DC8301487803F4F86300F021
:100960003F0018437047EF2808DC4A7803039201E0
:1009700002F47C629BB288781343F0E7F72810DC1E
:100980004A7883041203C87802F47C3203F4E0133B
:1009900000F03F00134303438878800100F47C603B
:1009A000DFE74FF0FF30704738B5002204460D46B0
:1009B000411C092004F0EAFE40B16300024643F006
:1009C000010342F8043F0023A34200DB38BD55F881
:1009D000231042F8041F0133F6E7002838B504DC81
:1009E0001C20BDE8384002F009B80C68E20701D4C9
:1009F0000D20F6E701281ED04A68D307F8D5B2F5D6
:100A0000007F4FEA620301D31320EAE71A0442EAA7
:100A100003621A4342EA0322641024EAE474E11CEC
:100A20008910032004F0B2FE054610B12146FFF7FD
:100A300043FF284638BD0022EEE7012838B504DC24
:100A40001C20BDE8384001F0D9BF0C68E20701D492
:100A50001120F6E74868C30706D4042804D90368C0
:100A600003F00F03042B01D00E20EAE704F0E8FCAA
:100A70006410002C054603DDFFF75DFFA04205DA98
:100A80001220DEE7FFF743FF013C0546012C284614
:100A9000F8D1FFF75AFF400040F0010038BD0128AF
:100AA0002DE9F3478246884605DC1C2002B0BDE8EC
:100AB000F04701F0A3BF4C6814F0010901D10D20EB
:100AC000F4E7022802D08B68DA07F8D5D8F800706E
:100AD000FB0700F1B180042F40F2AE803D68641046
:100AE000012C05F00F02B8BF0124092A2CD17B6824
:100AF000BAF1020F18BFD8F808704FEA63030CBFB1
:100B00001F467F109F42A8BF1F463D1B0135012293
:100B100025EAE575A918092004F038FE064648B113
:100B20006D00034645F00105D8F8002043F8045F46
:100B3000BC4203DD304602B0BDE8F087013452F814
:100B4000241043F8041FF3E7042A43D1384604F085
:100B500077FCFFF7F0FEBAF1020F16BFD8F8086075
:100B6000064676108642A8BF0646B44205DD002040
:100B700002B0BDE8F04704F085BE384604F060FCE2
:100B800005464C451FD1384604F05AFC0746284616
:100B900009F10109FFF7BBFE4E45F9DA441B204677
:100BA00004F070FE06460028C4D004F049FC8146DB
:100BB000D8F8000004F044FCED1B411922464846D9
:100BC0002AF0B4FFB6E72846FFF7A1FE09F10109B4
:100BD0000546D6E7032A2FD1BAF1020FC5F30F124B
:100BE000C5F34175C5EB820216BFD8F8085015460B
:100BF0006D109542A8BF1546AC4207DD0022114694
:100C0000032002B0BDE8F04704F0C0BD2D1B291D34
:100C100048BFE91D00228910032004F0B7FD0646F5
:100C2000002887D06A1C11460192FFF745FEE11C9F
:100C3000019A39440430C3E7212037E70028F8B58A
:100C400004DC1C20BDE8F84001F0D8BE0D6815F0AA
:100C5000010713D0B5F5007F4FEA650601D31320D5
:100C6000F0E700220121032004F090FD044618B1B2
:100C70000121FFF721FE06712046F8BD042DEED9B3
:100C80002B6803F00F03042B1AD12846FFF729FE27
:100C9000C11C48BF811D064600228910032004F0B4
:100CA00075FD04460028E7D03146FFF705FE2846CB
:100CB00004F0C6FB32460146201D2AF037FFDBE771
:100CC000092B1FD16E687610F11C48BFB11D0022A0
:100CD0008910032004F05AFD04460028CCD0314688
:100CE000FFF7EAFD0435021DB742C5DA55F8043FA7
:100CF000D90705D5B3F5007F4FEA6301AFD2D155CF
:100D00000137F1E7032BAAD12C46B5E7486838B57F
:100D1000C3070D4606D4042804D9026802F00F0365
:100D2000092B04D0BDE838400B2001F067BE4368B2
:100D3000C2F30F12511EB1EB630F4FEA630411D8D7
:100D40000B2C4FF0030304DD94FBF3F3642BA8BFDB
:100D50006423991804F058FD0368C3F30F13013B93
:100D60009C4208D2A31C013464002A6840F8232066
:100D700044F001044460002038BD01282DE9F84307
:100D800004DC1C20BDE8F84301F038BE02284E68A0
:100D90000CD08C68E70709D56410012CB8BF01247A
:100DA000F50705D54FF0FF30BDE8F8830124F7E7DC
:100DB000042EF7D933680D6803F00F02042A30D1EE
:100DC000E80706D4042D04D92B6803F00F03042B85
:100DD00001D00E20D6E73046FFF783FDA042E1DBCD
:100DE000304604F02DFB0646284604F029FB037824
:100DF0000146002BD6D0601E30442BF03EF804464E
:100E00000028CFD0012133780BB1A64203D348008C
:100E100040F00100C8E73046FFF779FD0646013192
:100E2000F1E7092A38D17368B4EB630F4FEA63091D
:100E3000B8DCE90728D4042D26D92B6803F00F036A
:100E4000042B21D1284604F0FBFA804627460134C2
:100E500056F82400854201D17800D9E7C2070ED4A4
:100E600004280CD9036803F00F03042B07D104F006
:100E7000E7FA014640462AF0C9FF0028ECD04C456D
:100E8000E4DD8FE74C458DDC2046013456F82430F4
:100E9000AB42F7D14000BBE7032A83D1C3F30F185D
:100EA000C3F34173C3EB880844453FF77BAFEB07BF
:100EB00027D4042D25D92B6803F00F02032A16D15D
:100EC000C3F30F10C3F341732F1DC3EB8000A8EBD6
:100ED00000083B18013C033644453FF763AF311926
:100EE0003A469A4210460ED314D1601CD2E7042A27
:100EF00007D1284604F0A4FA07462846FFF7F1FC7C
:100F0000E5E70F203EE711F8015F0078854202F126
:100F10000102E6D00134DFE701282DE9F0478846D9
:100F200004DC1C20BDE8F04701F068BD0868C2077A
:100F300006D4042804D9036803F00F03042B01D05E
:100F40000E20EFE74B6813F00109F9D1042BF7D914
:100F50001B6803F00F03042BF2D104F071FA04466E
:100F6000D8F8040004F06CFA07462AF059FF064648
:100F700078B92046FFF7DFFC05460122A9180920B1
:100F800004F004FC374B18609A4690B90020BDE885
:100F9000F087394620462AF070FF231A5D425D41F2
:100FA00020463946304401352AF067FF0028F8D141
:100FB000E3E76B0043F001034360D6B92046FFF737
:100FC000A6FC4D45064602DCDAF80000DFE7311BDF
:100FD000204604F05FFC0028D8D0DAF8003003EB9C
:100FE0008903344698603046FFF791FC09F1010906
:100FF000E7E7012D03D1D8F800308360C7E7394611
:1010000020462AF03AFF4FF001088146B9F1000F5F
:1010100016D04545D8DBA9EB0401204604F03AFC84
:101020000028B3D0DAF8003008F1010809EB060413
:1010300043F82800394620462AF01FFF8146E5E79D
:101040004545C1DB20462AF0EBFE0146204604F070
:1010500021FC00289AD0DAF8003008F1010843F8A2
:101060002800B1E7A0C7002008B504F0CDF9400082
:1010700040F0010008BD7F2902DC00F8011B704729
:10108000B1F5006F0CDA03468A1162F03F0203F8F3
:10109000022B01F03F0161F07F014170184670475B
:1010A000B1F5803F0FDA0B1363F01F030370C1F338
:1010B000851301F03F0163F07F0361F07F0143700E
:1010C000817003307047B1F5883F0DDAF02303706B
:1010D000902343708B1101F03F0163F07F0361F0B7
:1010E0007F018370C17004307047000010B5094C57
:1010F000002220600221092004F048FB226820B968
:10110000BDE810400A2001F079BC0321C0E90112BA
:1011100010BD00BFA0C7002038B5C30709D5B0F582
:10112000007F4FEA600507D31320BDE8384001F087
:1011300065BC051E18BF012500220121032004F013
:1011400025FB08B90A20F0E70121FFF7B5FB05717F
:1011500038BD07B510F0010104D04110084603B0B6
:101160005DF804FB042813D9026802F00F02042A78
:1011700009D1019104F064F901990A2203B05DF8E4
:1011800004EB2AF017BF032A02D10A220430F5E744
:101190000D20019101F032FC0199DFE70128F8B53B
:1011A00007460E4604DC1C20BDE8F84001F026BCD2
:1011B0000868FFF7CEFF05467068FFF7CAFF022FE9
:1011C000044606D0B068FFF7C4FF061E02DC2920E3
:1011D000EAE70126A542D5BF641B2C1BB4FBF6F43D
:1011E000B4FBF6F4D4BF013401344FF0000204F133
:1011F00001014FF00900C8BF764204F0C7FA80B180
:101200006300024643F0010342F8043F6D0073009F
:1012100002EB840445F0010142F8041F94421D448E
:10122000F8D1F8BD00282DE9F3410F4603DC1C205E
:1012300001F0E4FB16E00C6814F0010506D1042C63
:101240001DD9236803F00F03042B0DD12046FFF7AF
:1012500080FF6C4601462046FFF70DFF011B20462C
:1012600004F018FB044634E0092B08D166684FF0FF
:1012700001087610B04504DD01F0C6FBE0B12A207C
:10128000D6E708F1010854F82800FFF762FF7F282D
:101290000CDDB0F5006F0BDBB0F5803F0ADBB0F57D
:1012A000883FACBF002304231D44E3E70123FBE791
:1012B0000223F9E70323F7E7284604F0E3FA04469C
:1012C00038B1D7F8008004F0BBF801270546B742D3
:1012D00003DD204602B0BDE8F081013758F8270051
:1012E000FFF737FF01462846FFF7C5FE0546EEE744
:1012F00010B5044611F0010011D104290ED90A6875
:1013000002F00F02042A09D1084604F099F80146B8
:1013100020462AF07BFDB0FA80F0400910BD002085
:10132000FCE700000128F8B50E4604DC1C20BDE8EF
:10133000F84001F063BB4D68EA0706D4042D04D9D8
:101340002B6803F00F02092A01D00B20EFE76A682F
:101350000968C3F30F13B3EB620F4FEA620498BF3F
:1013600003F1FF3411F001070DD0481000283CDDD7
:1013700084423ADB2B1D844219DD013053F82020D2
:1013800045F82020F7E71A48FFF7B2FF40B10123E4
:10139000BC4201DA0020F8BD013745F82730F7E7F5
:1013A00031681448FFF7A4FF50B1002CF2D001229D
:1013B000631C013C9440144345F823206C60E9E72A
:1013C0003068C3070FD404280DD9036803F00F0356
:1013D000042B08D1FFF7BDFE0028C8D131680648AC
:1013E000FFF786FF08B91120A1E712209FE700BF91
:1013F000D0CB0200D4CB0200DEF70200002310B5F0
:101400000B70C3070C4606D50E4942102046BDE8B6
:10141000104025F073BD28B90B492046BDE81040A7
:101420002AF0D8BC042801D10849F6E709D9036895
:1014300003F00F03042B04D104F002F80449024620
:10144000E4E710BD51D30200DEF70200C8CA020073
:10145000D9CB02002DE9F04301288FB080460E461B
:1014600007DC1C2001F0CAFA054628460FB0BDE88B
:10147000F0830B6813F0010440F0AE80042B40F2BF
:10148000E2801B6803F00F03092B48D1274656F86A
:10149000273013F0010906D1042B04D9186800F095
:1014A0000F00092803D02220DCE71F46EFE75B6826
:1014B00004EB63047B1C9845F7D10122A11804F0CA
:1014C00065F9054608B90025CFE7640044F001043A
:1014D0004460494600F1080456F821301868D3F8F2
:1014E00004C0C0F30F10B0EB6C0F4FEA6C0203F1B5
:1014F000040398BF00F1FF320020824209DC22EA97
:10150000E2728F4204EB820401F10103ADDD194662
:10151000E2E753F804CF44F820C00130EDE7032B95
:1015200040F09180274656F82700C507BBD4042811
:10153000B9D9036803F00F02032A3CD1C3F30F1299
:10154000C3F34173C3EB82031C447B1C984530D129
:10155000E11C48BFA11D00228910032004F016F9E8
:1015600005460028AFD02146FFF7A6F94FF0000846
:1015700000F1040956F82840E10723D4042C21D9AE
:10158000206800F00F03032B1CD1C0F30F13C0F32E
:101590004170C0EB830003340023834216DB002834
:1015A000A8BF8144474508F101037FF75EAF984625
:1015B000E0E71F46B7E7042A7FF475AFFFF791F91C
:1015C0000444C2E72046FFF78CF9E4E714F8012F42
:1015D00009F803200133E0E700252C4656F82500E2
:1015E000C20732D4042830D9036803F00F02042A5A
:1015F00032D1FFF776F904440135A845EED12046F3
:1016000004F040F9054600283FF45DAF041DB146E3
:1016100006EB880859F8046BF30728D4042E26D962
:10162000336803F00F02042A34D13046FFF759F92A
:101630000746304603F004FF3A46014620462AF0AA
:1016400075FA3C4421E02546C8E701A9FFF7D6FE1C
:1016500001A82AF0E5FBCEE7032A7FF424AFC3F309
:101660000F12C3F34173C3EB82031C44C4E701A907
:101670003046FFF7C3FE01A82AF0D2FB01A90646B7
:10168000024620462AF052FA3444C845C2D100230B
:101690002370EAE6032AF8D1C3F30F17C3F34173AB
:1016A000C3EB87073A46311DC8E700002DE9F04F2C
:1016B000002893B00E4607DC1C2001F09FF9044679
:1016C000204613B0BDE8F08F0C6814F0010906D174
:1016D000042C04D9236803F00F03092B01D00B203D
:1016E000EBE763684FEA6308B8F1000F03DC484694
:1016F00004F0C8F8E3E7012827D04868C20724D4DB
:10170000042822D9036803F00F03042B1DD103F032
:1017100097FE054628462AF083FB043408F1FF3380
:101720000746019303FB00FB04EB880A54F8040FFF
:10173000C3076BD4042869D9026802F00F01042999
:1017400005D1FFF7CEF883440AE0354DE2E70329DF
:1017500063D1C2F30F11C2F34172C2EB8102934411
:10176000A245E3D1584604F08DF804460028A7D0DE
:10177000D6F800A01FB1706803F062FE054620464F
:1017800003F05EFE0AF1040A06465AF804BF584602
:1017900003F056FE1BF001030146029302D1BBF198
:1017A000040F04D805A95846FFF728FE05A90846E6
:1017B00003912AF035FBDDE9023102468BB9BBF11A
:1017C000040F0ED9DBF8000000F00F0CBCF1030F82
:1017D00001BFC0F30F12C0F341700BF10401C0EB65
:1017E0008202304602922AF0A1F9029A164447B1C9
:1017F000019B4B4505DD30463A4629462AF096F9CD
:101800003E4409F10109C845BFD159E705A9FFF7D1
:10181000F5FD05A82AF004FB95E703F011FEF9E7B2
:10182000BD0003002DE9F041012888B003DC1C2035
:1018300001F0E4F85EE00C68E30730D4042C30D902
:10184000266806F00F06486803F0FAFDB34907461C
:101850002AF0DCFAB249002838460CBF01254FF0C7
:10186000FF352AF0D3FAAF490028384608BF0225D1
:101870002AF0CCFAAC490028384608BF04252AF0E3
:10188000C5FAAA490028384608BF09252AF0BEFA39
:10189000002800F0EA816F1C05D13020C8E702263D
:1018A000D1E70126CFE7013E082E17D8DFE816F072
:1018B00009002400730153001600160016001600DC
:1018C000CF00023D072D09D8DFE805F004410C08E0
:1018D0000808083D042C0CBF03240124204608B04E
:1018E000BDE8F0819248934B0121042C18BF1846A3
:1018F00003F0D0FF0446F1E7013D082DEED801A327
:1019000053F825F029190000DD1800004F190000D8
:1019100031190000DD180000DD180000DD1800009E
:10192000DD18000047190000630835D00424D5E70E
:1019300081496210684625F0E1FA68462AF070FA9B
:1019400001466846D4E72046FFF7D0FBD2E72046A1
:10195000FFF7E2FBCEE7013D082DBFD801A353F806
:1019600025F000BF891900009D190000091A000028
:10197000DD180000DD180000DD180000DD18000093
:10198000DD180000AB190000204603F059FD69493D
:101990002AF03CFA0028C9D100249FE72046FFF72F
:1019A000D8FB400040F0010498E7204603F048FDD2
:1019B000FEF7C1FF614D411C0646002209202C6044
:1019C00003F0E4FE044608B90A2031E70746730035
:1019D00043F00103286847F8043F03F031FD4FF05E
:1019E0000008054646457FF779AF2846FEF7ADFF6C
:1019F000400040F0010047F8040F2846FEF787FF3B
:101A000008F101080546EDE7204603F019FD2AF02C
:101A100007FA4A4DC11C06460022891003202C609B
:101A200003F0B4FE04460028CED02D683146FEF700
:101A300043FF284603F004FDE21C00239E427FF78B
:101A40004DAFC15C02F8011F0133F7E7032566685B
:101A50006B1E7610032B3FF641AFDFE803F0021256
:101A6000713A012E0BD1A468E00708D4042C7FF64C
:101A700035AF236803F00F03012B3FF42FAF2D2068
:101A8000D6E6012E03D1A468E1073FF527AF2C204D
:101A9000CEE6013754F82700FFF75BFB7F2812DD05
:101AA000B0F5006F11DBB0F5803F10DBB0F5883F7B
:101AB000B4BF2B4600239844BE42EADA00F0A4FFEC
:101AC00058B12A20B4E60123F5E70223F3E7032304
:101AD000F1E701274FF00008EEE7184D40462C6073
:101AE00003F0D0FE2F68044600283FF455AF03F002
:101AF000A7FC0125AE42FFF6F1AE013557F82530BF
:101B0000DA0701D4272093E6B3F5081F4FEA6301F3
:101B100001D331208CE6FFF7AEFAEBE7E2CB02000F
:101B2000EACB0200F1CB0200F8CB0200FDCB0200B1
:101B3000C8CA0200DEF7020051D30200A0C700208D
:101B4000F11C48BFB11D554D0022891003202C60A7
:101B500003F01CFE044600283FF436AF31462D68E2
:101B6000FEF7AAFE021D6FF0030005F10803001B3B
:101B700011188E427FF7B2AE53F8041BCD07C1D5C2
:101B8000B1F5007F4FEA610501D3132050E602F85A
:101B9000015BEDE735462668013DC6F30F13C6F33A
:101BA0004176C6EB8306082D3FF698AE01A353F8A5
:101BB00025F000BFD91B0000E91B0000DD18000064
:101BC000F31B0000DD180000DD180000DD18000028
:101BD000DD180000271C0000012E7FF450AF237990
:101BE000002B7FF4A3AED7E6012E7FF450AF20790F
:101BF000D7E62A4D30462C6003F044FE2B6804469D
:101C000000283FF4E1AE1A1DC3F1FF2303F57F0363
:101C1000C11CFC33D018B042BFF660AE12F8010B05
:101C200001F8010FF6E71D4D0022711C09202C6000
:101C300003F0ACFD2B68044600283FF4C5AE014616
:101C4000720042F0010241F8042F6FF00202D81C2A
:101C5000D21A13189E427FF741AE10F8013F5B0085
:101C600043F0010341F8043FF3E7731E082B3FF6EE
:101C700035AE01A252F823F04F1900004F190000B1
:101C8000951B0000091A0000DD180000DD18000097
:101C9000DD180000DD1800004D1A0000A0C700206C
:101CA000021E10B513DD0B6813F001041CBF5C109D
:101CB00024EAE474012A00D04A68611C092003F078
:101CC00065FD18B1640044F00104446010BD0024B7
:101CD0000122F2E70A6812F0010038B53AD1042A6D
:101CE00038D91368496803F00F04092C1AD15568D4
:101CF000C3F30F13B3EB650F4FEA650498BF03F10D
:101D0000FF34151D844205DC01330220984205DBB7
:101D1000002038BD45F8041F0130F3E742F82010D9
:101D20000130F3E7032C15D1C80704D4BDE83840CF
:101D3000132000F063BEB1F5007F4FEA6100F5D2D9
:101D40000432C3F30F1302EB83039A42E0D202F88A
:101D5000010BFAE70B2000F051FED9E72DE9F04125
:101D60004E6816F0010788462BD1042E29D9326817
:101D700002F00F03092B14D17368C2F30F12B2EBF8
:101D8000630F4FEA630500D8551ED8F8008018F09D
:101D9000010F1AD04FEA6804002C1CDDA54223DA9B
:101DA00019E0042B04D13046FEF79BFD0546ECE715
:101DB000032B08D1C2F30F13C2F34172C2EB8305A8
:101DC000E3E70025E1E73D46DFE734484146FFF71A
:101DD0008FFAC0B10DB912202FE029F005FF90FB5A
:101DE000F5F303FB15035C1C002F54D1042E52D9CC
:101DF000336803F00F03092B25D1013456F8244032
:101E00002046BDE8F08126484146FFF771FAC0B987
:101E1000B8F1040F10D9D8F8003003F00F03042BE9
:101E20000AD14046FFF795F9041EB6D11D48414638
:101E3000FFF75EFA0028CED11120BDE8F04100F096
:101E4000DDBD2C46D0E7042B1DD1304603F0F8FA57
:101E5000012C05460FDCFEF75AFD461B304603F009
:101E600011FD04460028CBD003F0EAFA3246294699
:101E700029F05CFEC4E72B78013C002BABD0284650
:101E8000FEF745FDE4E7032B05D13444E478640014
:101E900044F00104B4E70B20CFE700BF08CC0200F8
:101EA000D4CB0200DEF702002DE9F0414C6814F0BB
:101EB0000106884632D1042C30D923688F6803F09C
:101EC0000F02092A15D16268C3F30F13B3EB620F37
:101ED0004FEA620500D85D1ED8F800103748FFF7BA
:101EE00007FA98B3236803F00F03092B20D10123CD
:101EF00019E0032A12D1FA0704D41320BDE8F041F7
:101F000000F07CBDB7F5007F4FEA6706F5D2C3F35A
:101F10000F15C3F34173C3EB8505DDE70B20EDE738
:101F2000013344F823709D42FADA0020BDE8F081C5
:101F3000032BFAD1E31CC4F1FF2404F57F04FE3423
:101F4000E218AA42F1DC03F8016FF9E7D8F8008043
:101F500018F0010F0ED04FEA6800002822DD8542FC
:101F600020DB236803F00F03092B21D1013044F853
:101F70002070DAE712484146FFF7BAF9B0B9B8F174
:101F8000040F11D9D8F8003003F00F03042B0BD144
:101F90004046FFF7DEF80028E0D10A484146FFF747
:101FA000A7F908B11220A9E71120A7E72846D8E72A
:101FB000032B04BF2418E670B7E700BFD0CB0200A4
:101FC000D4CB0200DEF70200086808B5C3071BD4B3
:101FD000042819D9036803F00F02092A01D14068C7
:101FE00008BD032A09D1C3F30F12C3F34170C0EB3C
:101FF0008200400040F00100F2E7042A04D103F01F
:102000001FFAFEF798FCF4E70120E9E7024A0348CB
:102010000F2105F0B1BB00BFA4CC02000FCC020021
:10202000002070470420704701207047002003F013
:1020300029BC002070470020704700207047002016
:102040007047002070470020704700207047002034
:102050007047002070470020704701207047000043
:10206000024A03480F2105F087BB00BFB0CD020034
:102070001CCD0200704700207047002070470020F0
:1020800070470020704700207047002070470020F4
:102090007047002070470000024A0348082105F0FD
:1020A0006BBB00BF84CE020028CE0200014A136041
:1020B000704700BF580800207047000008B5084668
:1020C0000CF0C3F8002211460AF0F0FC034B4FF667
:1020D000FF721A80024B00221A6008BD0400002023
:1020E0002004002010B5084614460CF0AEF80AF0A3
:1020F0007DFE034B228C1A80024B01221A6010BD18
:10210000040000202004002010B5044624F088FFBD
:10211000204610BDF0B5104E85B0002201A80BF08E
:10212000E7F83468BDF80A50019FC4F58062954213
:1021300004DD0A48036801330360154608482A464F
:102140003946204429F0F2FC2C443846346023F010
:1021500098FD05B0F0BD00BF5008002060080020C9
:102160002404002010B5034B036004460BF000F874
:10217000204610BD7CCF020010B50446FFF7F2FFE9
:10218000204624F04DFF204610BD10B5044602F055
:10219000A7FE044402F0A4FEA04205D204F090FA87
:1021A000012022F00DF9F5E710BD00F1080373B529
:1021B0000360044608460D4629F032FE0F2805EB61
:1021C0000006019007D9002201A9204625F054FFFE
:1021D000019B2060A36020683246294625F084FFD9
:1021E000019B2268636000212046D15402B070BD7B
:1021F0002DE9F043634D2C7887B0002C40F0BE8071
:1022000068460094ADF8044003F0C6FEBDF8043003
:102210005D4ADFF8A091D4705BBA1A209BB2B3FB81
:10222000F0F100FB113341331370B1FBF0F6B6FB54
:10223000F0F300FB161100FB136041314130517087
:10224000907052495248534E24F058FE5049684607
:10225000FFF7ABFF68460BF019FC684625F02EFF30
:102260000BF06CFB07463060042024F0D5FE4A4B8F
:1022700003600146012238460BF0F2FF47493068FF
:10228000474F0CF00AFA1022464938604FF40073A9
:102290000CF0FEFD444B80461860042024F0BCFE88
:1022A0000146C0F8009040460BF06AF94FF4007305
:1022B00004223E4938680CF0EBFD8046042024F0EF
:1022C000ABFE0146C0F8009040460BF059F9386863
:1022D0000CF070FC30680BF0B8FF39688046684637
:1022E0000CF024FC694640460AF094FE30680BF07E
:1022F000ACFF274907466846FFF757FF694638464F
:102300000AF01EFF684625F0D9FE3068204F0BF01A
:102310009CFF224621460AF0C9FB254A1C4801239E
:102320002B70137029F07CFD03260546041FA5427F
:102330001CD00121381903F0ADFA69460090012044
:1023400004F030F86946CDE900060320029604F057
:10235000AFF84FF4C870FFF718FF6946002003F08C
:102360007FFF6420FFF711FF0134E0E7694600209A
:1023700003F076FF4FF49670FFF707FF07B0BDE854
:10238000F08300BF240800201C040020C4CE0200FB
:10239000250800205C0800204CCF0200D3CE0200AC
:1023A00064080020F8CE0200540800201DCF02006F
:1023B0004C0800207CCF0200F8B5134E33780BB3E5
:1023C000124D134C28682188124F13220BF03FFF47
:1023D0004FF6FF732380104B286800241C600F4BBE
:1023E0001C700BF032FF0AF001FD396828682246A4
:1023F0000CF086F920460BF0D9FB094B2C603C60B1
:102400001C603470F8BD00BF240800205C08002068
:102410000400002064080020200400204C08002054
:102420005408002010B50E4C20688CB0B0B10BF0F1
:102430000CFF0AF0DBFC20680BF007FF094904469B
:102440006846FFF7B2FE694606A80CF062FD20461A
:1024500006A90AF006FB684625F030FE0CB010BD58
:102460005C080020D3CE020010B5114B1B6886B06B
:10247000DBB10BF07FFA04460AF0C1FC0D4920469F
:102480000AF0E4FD0C496846FFF78FFE69462046D6
:102490000AF056FE684625F011FE084B1B7823B162
:1024A0000022114620460AF001FB06B010BD00BF15
:1024B0005C080020D3CE0200250800204C08002034
:1024C00008B1FFF795BEFFF777BF01207047000006
:1024D0002DE9F043464D2B6887B006460C46002B8D
:1024E00049D0444821F038FD022862DD052021F062
:1024F00067FF404821F030FD1428024601A9A8BF1B
:1025000014223C4821F0DBFC01AB0022023890424F
:102510004FDD13F8011BFA2902F10102F7D11978F6
:102520001A29F4D15F78002FF1D1DFF8D890DFF8C5
:10253000D880B9F80010D8F8000013220BF087FEFD
:102540004FF6FF73A9F800302B4BD8F8000019683C
:102550003A460CF0D5F8294B2F601F70254821F022
:10256000FBFC844222463146A8BF0246214821F0A6
:10257000A6FC044637E0DFF8848098F80030002B92
:10258000ECD105F06DFC074698B9DFF87C90D9F8DE
:10259000000070B1184B19680CF094F8D9F80000DD
:1025A0000BF053FE3A4639460AF080FA012388F8C8
:1025B00000302B68002BD1D0114F3D68AC42A8BF32
:1025C0002C4684B1DFF844802246414630462D1B1C
:1025D00029F0ACFA002D05DD2A4608EB040140463F
:1025E00029F0A4FA3D60204607B0BDE8F08300BFA3
:1025F0002004002040090120640800204C0800202D
:1026000050080020040000205C0800202404002062
:102610000B462DE9F341D41A1B4B1B68411833B903
:102620001A48224602B0BDE8F04121F0ADBB184D7A
:10263000019102F055FC2B68019998423CBF0023A0
:102640002B602B68C31A132B06461BD9002C19DDEF
:10265000FA2CDFF844800F4FD8F80000A8BFFA2406
:10266000002322463B600AF093FFD8F800000AF0EE
:1026700083FF3B682E60002B18BF0024204602B069
:10268000BDE8F0810024F9E7200400204009012082
:1026900048080020580800205408002008B50548C4
:1026A00021F032FCBDE8084002484FF4E13121F04E
:1026B00019BC00BF40090120037883B11A0601D478
:1026C0000130704703F0C003C02B08BF0130024641
:1026D00010460132037803F0C003802BF8D0704716
:1026E00073B50646084611F00101144627D10428A7
:1026F00042D9036803F00F03042B3DD1D30714D450
:10270000042A39D9136803F00F03042B34D102F0E3
:1027100097FE0546204602F093FE0146284629F022
:1027200075FB002830DB21D129E0019102F088FE01
:1027300001990A2229F03EFC0546641013E012F0CC
:10274000010117D1042A17D9136803F00F03042BD2
:1027500012D145101046019102F072FE01990A2231
:1027600029F028FC0446A5420EDB08DD002E09DC1A
:1027700000200CE04510E0E7064B0F221A700136EE
:10278000022EF5D8042002E0701700F0040002B019
:1027900070BD00BF8C08002007B510F0010104D007
:1027A0004110084603B05DF804FB042813D9026801
:1027B00002F00F02042A09D1019102F041FE0199B1
:1027C0000A2203B05DF804EB29F0F4BB032A02D11E
:1027D0000A220430F5E7024B0D221A70E1E700BF30
:1027E0008C0800202DE9F041304E05460024337955
:1027F000032B0FD00134FF2C06F10806F7D1284631
:1028000004F0CEFF20B92A4B1B221A704FF0FF3084
:10281000BDE8F081284629F003FB29460246E0B2D4
:1028200005F04AF800283ED132685768111DB842B9
:10283000E0D051F8043FF02B00F1010301D018461D
:10284000F5E79B000833D00702EB0301D2D404293B
:10285000D0D9D35803F00F02042ACBD1C3F30F13FE
:102860000133CF0701EB8300C4D40428C2D951F847
:10287000233003F00F03042BBCD102F0E1FD4FF035
:10288000030807460921384629F0B3FA0028B1D0D9
:10289000B8F1010800F10107F4D12946384629F0C2
:1028A000ECFA8742A6D164F0FF00B1E79825012039
:1028B0008C08002010F0010210B516D1042802D9AE
:1028C0000268C2F30F1211F0010310D1042902D9DA
:1028D0000B68C3F30F13934214D1043000EB83034E
:1028E0000331834205D8012010BD0022EBE700230D
:1028F000F1E710F8014B11F8012F54EA020CF2D065
:102900009442EED00020EFE72DE9F04F85B0CDE9FD
:102910000113314F314E80468AB102233B700123AF
:1029200033603368DFF8C890DFF8C8A0DFF8C8B0BC
:102930000024FC54444504DB05B0BDE8F08F326050
:10294000EFE7019B316853F82400C30707EB01054B
:10295000C1F5487105D5224A4310284624F0E2FA11
:1029600004E0A8B91F4A284624F0DCFA1A4829F0E6
:1029700057FA029B30604BB108F1FF33A34205DDEB
:10298000431C20223A540022FA5433600134D1E728
:10299000042801D1144AE6E71BD9026802F00F03AC
:1029A000042B06D1039102F04BFD104A0399034614
:1029B000D3E7092B03D143685A465B10CDE7032BBD
:1029C00008D1C2F30F13C2F34172C2EB8303524624
:1029D000C3E701234A46C0E78D080020B00B002062
:1029E00051D30200A0CF0200A6CF0200D3170300EC
:1029F000C5CF0200BACF0200ABCF0200014B187066
:102A0000002070478C080020024B1878003818BF4F
:102A1000012070478C080020024B1860024BFF22F7
:102A20001A707047B80B00208C08002008B50023EE
:102A30001A46FFF769FF034B0348196805F046FC87
:102A4000002008BDB00B00208D08002010B502F05A
:102A500053FA084C231D01461F22184629F0FAF9A3
:102A600029F0DEF9031D9B081B0143F004032360DA
:102A7000204610BD680800202DE9F04F074607F1F9
:102A8000180979693D6985B009EB81010291C24954
:102A9000D0E902300E78AA0003EB800409EB85052B
:102AA0008846002E49D153F8203092101E123A6108
:102AB00003F07F03B94A52F823300434924643F0BE
:102AC00001031847BA68BB787878A21A921043EAD3
:102AD000022205F0FEF800233B7088F80030BB6846
:102AE000E41A029BA5EB0905A3EB0909A410AD109C
:102AF0004FEAA903FC603D617B6105B0BDE8F08F42
:102B0000787805F0E0F800233B70E8E798F80030AB
:102B10009BB954F8043BA5EB09021E1203F07F0396
:102B200092105AF823303A61C9E7291DA1EB090335
:102B3000D82B18DD1A2388F8003098F80010FF29E8
:102B4000C0D1974E002388F800303368002BC6DDD3
:102B500001233B7002F0BCF933684FF47A7202FB38
:102B600003007860BBE79A1098F800302E600BB134
:102B70000D46E2E754F8043B3A611E1203F07F036E
:102B80000D465AF823309AE7291DA1EB0903D82BEB
:102B900003DD1A2388F80030CFE7204650F8042BD5
:102BA0002A609A1098F8003013B10D460446C4E725
:102BB00063683A611E1203F07F030D465AF8233012
:102BC00008347CE7291DA1EB0903D82B03DD1A2368
:102BD00088F80030B1E79A1098F8003004EB8606C8
:102BE0002E600BB10D46A8E754F8043B3A611E1263
:102BF00003F07F030D465AF8233060E7291DA1EB4F
:102C00000903D82B03DD1A2388F8003095E7654ABD
:102C100052F826202A609A1098F800300BB10D4621
:102C20008BE754F8043B3A611E1203F07F030D4614
:102C30005AF8233043E75B4B55F8042D43F8262020
:102C400098F80030002B7FF478AF54F8043BA5EBE4
:102C500009021E1203F07F0392105AF823303A61E2
:102C60002DE7DFF840B15BF82600FFF795FD98F8F7
:102C70000020002A7FF461AF009055F8040DFFF7A3
:102C80008BFD009B1844400098F8003040F0010094
:102C9000A5EB09024BF826009210002B7FF44DAFF4
:102CA00054F8043B3A611E1203F07F035AF82330B4
:102CB00005E72A1DA2EB0903D82B03DD1A2388F8A8
:102CC00000303AE7029B994534BF53F80C3C01238E
:102CD0002B6098F80030A2EB090189100BB1154662
:102CE0002BE754F8043B39611E1203F07F031546AD
:102CF0005AF82330E3E62A1DA2EB0903D82B03DDA3
:102D00001A2388F8003018E7029989450FD251F844
:102D10000C0C06F18046033EA6EB600651F8261027
:102D20002960991098F8003043B1154605E718233B
:102D300088F8003000232B601546FEE654F8043B6B
:102D400039611E1203F07F0315465AF82330B6E6A8
:102D5000029B99451CD2029A55F8043D52F80C0C7E
:102D600006F18046033EA6EB600642F8263098F84E
:102D70000030A5EB09029210002B7FF4DEAE54F870
:102D8000043B3A611E1203F07F035AF8233096E6A3
:102D9000182388F80030D0E68C080020E8CF020025
:102DA000B80B0020902D0120029B99452DD253F89D
:102DB0000C3C029A06F18046033EA6EB630352F8F0
:102DC0002300FFF7E9FC834655F8040DFFF7E4FC08
:102DD000029B029A53F80C3C5844A6EB630643004E
:102DE00043F0010342F8263098F80030A5EB0902C1
:102DF0009210002B7FF4A1AE54F8043B3A611E12EE
:102E000003F07F035AF8233059E6182388F800307E
:102E100093E6291DA1EB0903D82B03DD1A2388F8BB
:102E200000308AE6029A52F826202A609A1098F812
:102E300000300BB10D4680E654F8043B3A611E1297
:102E400003F07F030D465AF8233038E6029A55F80E
:102E5000043D42F8263098F80030002B7FF46DAE28
:102E600054F8043BA5EB09021E1203F07F039210F5
:102E70005AF823303A6122E6029B53F826004FEAC3
:102E8000600B55F8040DFFF787FC5844029B400087
:102E900040F0010043F8260098F80030002B7FF442
:102EA0004CAE54F8043BA5EB09021E1203F07F035D
:102EB00092105AF823303A6101E6A5EB8605A94540
:102EC000A5EB09060ED898F80020B310002A7FF46D
:102ED00034AE54F8042B3B61161202F07F025AF80C
:102EE0002230ECE5C94802F09BFA98F80020B310B4
:102EF000002A7FF422AE54F8042B3B61161202F034
:102F00007F025AF82230DAE5002E04EB8604FFF641
:102F1000E6AD98F80030A5EB09029210002B7FF483
:102F20000CAE54F8043B3A611E1203F07F035AF8CA
:102F30002330C4E555F8043D042B04D1002E04EBE6
:102F40008604FFF6CCAD98F80030A5EB090292108C
:102F5000002B7FF4F2AD54F8043B3A611E1203F0EB
:102F60007F035AF82330AAE555F8043D042B04D01A
:102F7000002E04EB8604FFF6B2AD98F80030A5EB06
:102F800009029210002B7FF4D8AD54F8043B3A614B
:102F90001E1203F07F035AF8233090E555F8040C15
:102FA000C107A5F1040B0BD54010013800280ADB3E
:102FB000400040F0010004EB8604CBF800008EE5F1
:102FC000FFF7EAFBF1E798F80030ABEB090292104B
:102FD0000BB15D46B1E554F8043B3A611E1203F0B3
:102FE0007F035D465AF8233069E5029B05F10C0E1C
:102FF000AEEB0901A3EB0903D8294FEAA30303DDD4
:103000001A2388F8003098E5760006F4FF7646F03B
:1030100001062E60AB46BD68641BBD78A41045EA6E
:1030200004256D005B0045F0010543F00103CBF87A
:103030000450CBF80830BA7098F8002050F83C30B3
:10304000BB607546891022B103F10804CDF808E091
:1030500073E503F10C049B68CDF808E01E1203F041
:103060007F0339615AF8233029E5029B55F8046C37
:1030700099452CD1F2071ED4042E15D9336803F0DC
:103080000F03042B19D1304602F0DAF928F0C8FEFC
:10309000B0F5487FA8BF4FF448700630643004F0A4
:1030A0003DFC78B9043C1AE50AD0002E0CBF07207D
:1030B0004FF40070F2E70A20F0E74FF40070EDE7FC
:1030C0000720EBE77878314604F01AFE1BE5029BF7
:1030D0004F4953F80C2C4F4B98F80000A3EB6203B8
:1030E000029A42F8236002EB830552F8083C5A101A
:1030F000BA70D2B2043551F83210029AB96052F85F
:10310000042C521009EB8202C3F355230292A5EB63
:10311000090201EB8304921000287FF40EAD51F8F0
:1031200023303A611E1203F07F0304345AF823302F
:10313000C5E455F8040CFFF72FFB1E28A5EB860508
:103140002FDCA5EB090B00284FEAAB0B0EDC98F83F
:103150000030002B7FF4F1AC54F8043BC7F810B0FA
:103160001E1203F07F035AF82330A8E4009001F008
:10317000AFFE009B033B1E1801F0AAFE264B801BEE
:103180009842F9D298F80030002B7FF4D6AC54F86E
:10319000043BC7F810B01E1203F07F035AF8233027
:1031A0008DE401223A70009001F092FE009B0A38F3
:1031B00003447B6093E455F8040CFFF7EDFAA5EBAC
:1031C0008605061E10DC98F80030A5EB0902921067
:1031D000002B7FF4B2AC54F8043B3A611E1203F0AA
:1031E0007F035AF823306AE40C4B9E4203DD1D2313
:1031F00088F80030A1E401233B7001F069FE4FF430
:103200007A7303FB06000A38ABE400BFD7CF020095
:1032100098250120FDFFFF3F8096980080EE360044
:1032200000233046A5EB8605CD4E1A462946FFF70A
:103230006BFB3168CB4802F02DFBCB4B316818603B
:10324000C84804F017FF3168C64805F03FF898F801
:103250000030002B7FF471AC54F8043BA5EB09025D
:103260001E1203F07F0392105AF823303A6126E4CD
:1032700098F80030A5EB8605002B7FF45EAC54F87F
:10328000043BA5EB09021E1203F07F0392105AF8CB
:1032900023303A6113E4384604F09EFB98F800307E
:1032A000002B7FF44AAC54F8043BA5EB09021E1234
:1032B00003F07F0392105AF823303A61FFF7FFBB07
:1032C00055F8043C002B48D155F80C0C10F0010BBC
:1032D00020D04FEA600B4FEA4B0343F0010345F85F
:1032E000083CBBF1000F40F3998055F8080C4FEAF9
:1032F0004B03CBEB600B55F80C0C43F0010345F886
:10330000043CC3072ED50BF1010B4FEA4B0343F0EE
:10331000010332E004281BD9036803F00F02092AD5
:1033200001D14068D5E7042A09D102F089F8037871
:10333000002BD0D0FFF7C0F90BF1010BF7E7032A00
:1033400006D1C3F30F1BC3F34173C3EB8B0BC2E76F
:10335000192388F80030FFF7F0BB4FEA630B0BF13D
:10336000FF3BBEE7042854D9036803F00F03092B81
:1033700018D10BF1020B50F82B30029A42F826308C
:1033800098F80030A5EB09029210002B7FF4D5AB22
:1033900054F8043B3A611E1203F07F035AF82330BD
:1033A000FFF78DBB042B2DD1029B03EB860300930B
:1033B00002F046F80BF1010B0646BBF1010F10DCE1
:1033C0003046FFF779F9821B1046039202F05AFA51
:1033D000834670B102F034F8039A314628F0A6FB18
:1033E00007E030780BF1FF3B38B9122388F8003042
:1033F0008346009BC3F800B0C2E73046FFF75CF994
:103400000646DAE7032B04D183449BF804305B00C3
:103410007DE7192388F80030FFF78FBB0434AFE74E
:1034200005EB8603A3EB0903D82B16DC0122002E43
:1034300006F1FF3316DC98F80030A5EB0902921074
:10344000002B7FF47AAB54F8043B3A611E1203F070
:103450007F035AF82330FFF732BB1A2388F8003075
:10346000FFF76BBB45F8042B1E46E0E72B1DA3EBD3
:103470000903D82B04DD1A2388F80030FFF75DBB61
:10348000029B994531D255F8040CFFF785F90028C5
:1034900027DD029B53F80C3CB0EB630F4FEA63024D
:1034A0001FDC801A00F18040029B043853F8202072
:1034B000A5EB86031A60C6F1010605EB860598F8B0
:1034C0000030A5EB09029210002B7FF436AB54F8C4
:1034D000043B3A611E1203F07F035AF82330FFF7D2
:1034E000EEBA202388F80030E5E71823FAE71E4BF0
:1034F0001A68A5EB8603C6F101061A6098F8003039
:1035000005EB8605002B7FF418AB54F8043BA5EBC4
:1035100009021E1203F07F0392105AF823303A6119
:10352000FFF7CDBA55F8043C042BA5F1040298F836
:10353000003008BF2A46A2EB090108BF04EB86044D
:10354000891013B11546FFF7F8BA54F8043B3961F6
:103550001E1203F07F0315465AF82330FFF7AFBA67
:10356000B00B00208D0800201000002055F8043D0D
:10357000042B1CBF002345F8043B98F80030A5EB52
:10358000090218BF04EB86049210002B7FF4D5AA21
:1035900054F8043B3A611E1203F07F035AF82330BB
:1035A000FFF78DBA002EA5EB86011ADC1C2388F8E4
:1035B00000300022C6F1010605EB860598F80030C0
:1035C0000A60A5EB09029210002B7FF4B6AA54F80A
:1035D000043B3A611E1203F07F035AF82330FFF7D1
:1035E0006EBA0B684FF0000C5B1051F82C0010F015
:1035F000010203D10D2388F80030DBE7401083423D
:103600000CF1010CA8BF03466645EEDC5B0043F0FD
:103610000102CFE7002EA5EB86011ADC1C2388F8F7
:1036200000300022C6F1010605EB860598F800304F
:103630000A60A5EB09029210002B7FF47EAA54F8D1
:10364000043B3A611E1203F07F035AF82330FFF760
:1036500036BA0B684FF0000C5B1051F82C0010F0DC
:10366000010203D10D2388F80030DBE740108342CC
:103670000CF1010CB8BF03466645EEDC5B0043F07D
:103680000102CFE755F8081C11F0010F4FEA86033D
:1036900023D055F8042C12F0010F1ED05210B2EBBB
:1036A000610FA5EB0303CCBF042200221A60C6F110
:1036B000010605EB860598F80030A5EB090292108B
:1036C000002B7FF43AAA54F8043B3A611E1203F02F
:1036D0007F035AF82330FFF7F2B955F8042C6FF046
:1036E0000100A5EB030BFEF7FBFFCBF80000DEE7C4
:1036F00055F8081C11F0010F4FEA860323D055F846
:10370000042C12F0010F1ED05210B2EB610FA5EB8A
:103710000303ACBF042200221A60C6F1010605EBC8
:10372000860598F80030A5EB09029210002B7FF473
:1037300004AA54F8043B3A611E1203F07F035AF8BE
:103740002330FFF7BCB955F8042C4FF0FF30A5EB40
:10375000030BFEF7C5FFCBF80000DEE755E90201D9
:103760004FEA860B8142A5EB0B0B18D10423CBF853
:103770000030C6F1010605EB860598F80030A5EB90
:1037800009029210002B7FF4D8A954F8043B3A6147
:103790001E1203F07F035AF82330FFF790B9042874
:1037A00001D80023E3E7C207FBD4036803F00F034B
:1037B000042BF6D1CB07F4D40429F2D90B6803F01B
:1037C0000F03042BEDD1FFF775F8002814BF042375
:1037D0000023CCE755E902014FEA860B8142A5EBB5
:1037E0000B0B18D10023CBF80030C6F1010605EB16
:1037F000860598F80030A5EB09029210002B7FF4A3
:103800009CA954F8043B3A611E1203F07F035AF856
:103810002330FFF754B9042801D80423E3E7C20793
:10382000FBD4036803F00F03042BF6D1CB07F4D4C9
:103830000429F2D90B6803F00F03042BEDD1FFF735
:1038400039F8002814BF00230423CCE755F8081CDE
:1038500011F0010F4FEA860323D055F8042C12F023
:10386000010F1ED05210B2EB610FA5EB0303D4BFC2
:10387000042200221A60C6F1010605EB860598F8BD
:103880000030A5EB09029210002B7FF456A954F8E2
:10389000043B3A611E1203F07F035AF82330FFF70E
:1038A0000EB955F8042C0120A5EB030BFEF718FF09
:1038B000CBF80000DFE755F8081C11F0010F4FEAC4
:1038C000860323D055F8042C12F0010F1ED052109D
:1038D000B2EB610FA5EB0303B4BF042200221A6010
:1038E000C6F1010605EB860598F80030A5EB090244
:1038F0009210002B7FF421A954F8043B3A611E1268
:1039000003F07F035AF82330FFF7D9B855F8042C99
:103910000220A5EB030BFEF7E3FECBF80000DFE788
:1039200055F8043C042BA5EB86030CBF00220422AF
:10393000C6F101061A6005EB860598F80030A5EB84
:1039400009029210002B7FF4F8A854F8043B3A6166
:103950001E1203F07F035AF82330FFF7B0B855F872
:10396000080CFEF719FF834655F8040CFEF714FF08
:103970005844A5EB8603400040F00100186098F819
:103980000030C6F1010605EB8605002B7FF4D5A8B3
:1039900054F8043BA5EB09021E1203F07F039210BA
:1039A0005AF823303A61FFF78AB855F8080CFEF749
:1039B000F3FE834655F8040CFEF7EEFEABEB000079
:1039C000A5EB8603400040F00100186098F8003035
:1039D000C6F1010605EB8605002B7FF4AEA854F86E
:1039E000043BA5EB09021E1203F07F0392105AF864
:1039F00023303A61FFF763B855F8080CFEF7CCFEA8
:103A0000834655F8040CFEF7C7FE00FB0BF0A5EB50
:103A10008603400040F00100186098F80030C6F1BD
:103A2000010605EB8605002B7FF487A854F8043BBC
:103A3000A5EB09021E1203F07F0392105AF82330FF
:103A40003A61FFF73CB855F8040CFEF7A5FE834633
:103A5000D8B91F2388F80030A5EB8603C6F101060C
:103A6000186005EB860598F80030A5EB0902921066
:103A7000002B7FF462A854F8043B3A611E1203F055
:103A80007F035AF82330FFF71AB855F8080CFEF7F1
:103A900083FE90FBFBF0400040F00100DCE7A5EB6B
:103AA000860BDBF80000FEF777FE0090DBF80400E1
:103AB000FEF772FE009BD0B91F2388F80030C6F1D4
:103AC000010605EB860598F80030CBF80000A5EB61
:103AD00009029210002B7FF430A854F8043B3A619D
:103AE0001E1203F07F035AF82330FEF7E8BF80EA86
:103AF000E072A2EBE07293FBF2F002FB10300028C0
:103B0000B8BF8018400040F00100D8E755F8040C19
:103B1000FEF742FE0028B8BF4042A5EB86034000F6
:103B200040F00100186098F80030C6F1010605EB7E
:103B30008605002B7FF401A854F8043BA5EB09028D
:103B40001E1203F07F0392105AF823303A61FEF7F9
:103B5000B6BF012EA5EB860B35D1DBF80000FEF7D2
:103B60001BFE0028ACBF01224FF0FF32824202DD73
:103B70001346024618460130831A0392009328F038
:103B800033F8009B039A90FBF3F101FB13031A44F3
:103B90005200C6F1010642F0010205EB860598F8D5
:103BA0000030CBF80020A5EB09029210002B7EF428
:103BB000C4AF54F8043B3A611E1203F07F035AF875
:103BC0002330FEF77CBF022E0AD1DBF80000FEF79F
:103BD000E3FD0090DBF80400FEF7DEFD009AC5E788
:103BE00064200122C7E7A5EB860B3046594601F059
:103BF000ACFF98F80030CBF80000C6F1010605EBE9
:103C00008605002B7EF499AF54F8043BA5EB09021E
:103C10001E1203F07F0392105AF823303A61FEF728
:103C20004EBF55F8080CFEF7B7FD834655F8040C57
:103C3000FEF7B2FD0BEA0000A5EB8603400040F062
:103C40000100186098F80030C6F1010605EB860502
:103C5000002B7EF472AF54F8043BA5EB09021E1250
:103C600003F07F0392105AF823303A61FEF727BF22
:103C700055F8080CFEF790FD834655F8040CFEF746
:103C80008BFD4BEA0000A5EB8603400040F00100ED
:103C9000186098F80030C6F1010605EB8605002B88
:103CA0007EF44BAF54F8043BA5EB09021E1203F05F
:103CB0007F0392105AF823303A61FEF700BF55F89F
:103CC000080CFEF769FD834655F8040CFEF764FD09
:103CD0008BEA0000A5EB8603400040F0010018606D
:103CE00098F80030C6F1010605EB8605002B7EF43E
:103CF00024AF54F8043BA5EB09021E1203F07F0326
:103D000092105AF823303A61FEF7D9BE55F8040CE8
:103D1000FEF742FDC043A5EB8603400040F00100E2
:103D2000186098F80030C6F1010605EB8605002BF7
:103D30007EF403AF54F8043BA5EB09021E1203F016
:103D40007F0392105AF823303A61FEF7B8BE55F857
:103D5000080CFEF721FD834655F8040CFEF71CFD08
:103D60000BFA00F0A5EB8603400040F0010018605C
:103D700098F80030C6F1010605EB8605002B7EF4AD
:103D8000DCAE54F8043BA5EB09021E1203F07F03DE
:103D900092105AF823303A61FEF791BE55F8080C9C
:103DA000FEF7FAFC834655F8040CFEF7F5FC4BFAD7
:103DB00000F0A5EB8603400040F00100186098F881
:103DC0000030C6F1010605EB8605002B7EF4B5AE8A
:103DD00054F8043BA5EB09021E1203F07F03921076
:103DE0005AF823303A61FEF76ABE55F80C0CFEF71C
:103DF000D3FC834655F8080CFEF7CEFC8BFB002362
:103E000055F8040CCDE90023FEF7C6FCDDE90023DC
:103E1000C0F1200CB0F1200103FA0CFC22FA00F0F2
:103E200040EA0C005CBF43FA01F10843A5EB860EA3
:103E3000400098F8003040F00100C6F10106CEF8CD
:103E4000000005EB8605002B7EF477AE54F8043BAA
:103E5000A5EB09021E1203F07F0392105AF82330DB
:103E60003A61FEF72CBEA5EB860B30465946FDF7AE
:103E700017FF98F80030CBF80000C6F1010605EBFB
:103E80008605002B7EF459AE54F8043BA5EB0902DD
:103E90001E1203F07F0392105AF823303A61FEF7A6
:103EA0000EBEA5EB860529463046FDF713FF98F8B0
:103EB0000030002B7EF441AE54F8043BA5EB090220
:103EC0001E1203F07F0392105AF823303A61FEF776
:103ED000F6BDA5EB860B30465946FDF73FFF98F837
:103EE0000030CBF80000C6F1010605EB8605002B7B
:103EF0007EF423AE54F8043BA5EB09021E1203F036
:103F00007F0392105AF823303A61FEF7D8BDA5EB33
:103F1000860529463046FDF7C7FF98F80030002B8C
:103F20007EF40BAE54F8043BA5EB09021E1203F01D
:103F30007F0392105AF823303A61FEF7C0BDA5EB1B
:103F4000860B30465946FEF73FF898F80030CBF81C
:103F50000000C6F1010605EB8605002B7EF4EDADF1
:103F600054F8043BA5EB09021E1203F07F039210E4
:103F70005AF823303A61FEF7A2BD55F8040C01F05F
:103F80005FFA55F8083CDA072ED4042B0CD91B68CD
:103F900003F00F03013B082B10D8DFE803F00525E1
:103FA0002B270F0F0F0F2900C54927F02FFFA5EB77
:103FB000860300280CBF042200221A60C6F1010605
:103FC00005EB860598F80030A5EB09029210002B4E
:103FD0007EF4B3AD54F8043B3A611E1203F07F0344
:103FE0005AF82330FEF76BBDB649DEE7B649DCE789
:103FF000B649DAE7B649D8E705F1040BABEB090699
:10400000D82E04DD1A2388F80030FEF796BD00F0A4
:1040100067FF98F80030400040F001002860B210BF
:1040200013B15D46FEF789BD54F8043B3A611E1298
:1040300003F07F035D465AF82330FEF740BD05F1DB
:10404000040BABEB0906D82E04DD1A2388F80030E8
:10405000FEF773BD00F03CFF9E4B03EA400098F86A
:10406000003040F001002860B21013B15D46FEF749
:1040700064BD54F8043B3A611E1203F07F035D46B1
:104080005AF82330FEF71BBD05F1040BABEB090317
:10409000D82B04DD1A2388F80030FEF74EBD00F05F
:1040A0001FFF8D4B1B6898423DBFC3F5830303F68A
:1040B0003713C018C01A400098F8003040F00100D3
:1040C000ABEB09022860921013B15D46FEF735BDD7
:1040D00054F8043B3A611E1203F07F035D465AF820
:1040E0002330FEF7ECBC00F0FBFE7B4B186098F829
:1040F0000030A5EB8605002B7EF41FAD54F8043B81
:10410000A5EB09021E1203F07F0392105AF8233028
:104110003A61FEF7D4BC03F0A3FEB30090B9ED1AE8
:1041200098F80030A5EB09029210002B7EF405AD43
:1041300054F8043B3A611E1203F07F035AF823300F
:10414000FEF7BDBC3046A5EB0308644E01231A46BA
:104150004146FEF7D9FB3068643003F0DFFB0028EE
:104160003EF4A0AF7A7831685D4803F0CEFD0123BC
:104170003B7000F0ADFE5B4A33681268063302FB09
:10418000030078604546FEF7AABC03F069FEB10063
:1041900090B96D1A98F80030A5EB09029210002B27
:1041A0007EF4CBAC54F8043B3A611E1203F07F035B
:1041B0005AF82330FEF783BC3046A5EB0108474E82
:1041C000012300224146FEF79FFB3068643003F074
:1041D000A5FB00283EF466AF414803F057FDC6E753
:1041E000FEF734FCA5EB860B98F80030CBF8000006
:1041F000C6F1010605EB8605002B7EF49EAC54F853
:10420000043BA5EB09021E1203F07F0392105AF83B
:1042100023303A61FEF753BC98F80030A5EB8605D1
:10422000002B7EF48AAC54F8043BA5EB09021E1265
:1042300003F07F0392105AF823303A61FEF73FBC37
:10424000012E4FEA86021BDC1C2388F80030AA1AD4
:1042500000231360C6F1010605EB860598F80030CF
:10426000A5EB09029210002B7EF467AC54F8043BD6
:104270003A611E1203F07F035AF82330FEF71FBC89
:10428000029B9945A5EB020202D355F8043CE0E7F6
:1042900055F8083C55F8041C5B10002B0DDD029806
:1042A00050F80C0CB3EB600F4FEA600CDFBFA3EBD0
:1042B0000C030299043B51F823101160CAE700BFB8
:1042C000E2CB0200EACB0200F1CB0200F8CB020005
:1042D000FDCB0200FEFFFF7FBC0B0020B00B0020D7
:1042E0008D0800200C000020A5EB860B584600F03E
:1042F00030FE98F80030CBF80000C6F1010605EB5F
:104300008605002B7EF419AC54F8043BA5EB09029A
:104310001E1203F07F0392105AF823303A61FEF721
:10432000CEBBA5EB860B584600F015FE98F8003082
:10433000CBF80000C6F1010605EB8605002B7EF4E4
:10434000FCAB54F8043BA5EB09021E1203F07F03FB
:1043500092105AF823303A61FEF7B1BBA5EB860BF9
:104360003046594600F0DAFC98F80030CBF80000EF
:10437000C6F1010605EB8605002B7EF4DEAB54F892
:10438000043BA5EB09021E1203F07F0392105AF8BA
:1043900023303A61FEF793BBA5EB8605284600F073
:1043A000DDFD98F80030002B7EF4C7AB54F8043BD9
:1043B000A5EB09021E1203F07F0392105AF8233076
:1043C0003A61FEF77CBBA5EB860B3046594600F000
:1043D00067FC98F80030CBF80000C6F1010605EB49
:1043E0008605002B7EF4A9AB54F8043BA5EB09022B
:1043F0001E1203F07F0392105AF823303A61FEF741
:104400005EBBA5EB8605284600F09AFE98F80030C2
:10441000002B7EF492AB54F8043BA5EB09021E126C
:1044200003F07F0392105AF823303A61FEF747BB3E
:104430000121304600F042FE98F80030002B7EF457
:104440007CAB54F8043BA5EB09021E1203F07F037A
:1044500092105AF823303A61FEF731BB0021304602
:1044600000F02CFE98F80030002B7EF466AB54F878
:10447000043BA5EB09021E1203F07F0392105AF8C9
:1044800023303A61FEF71BBBA5EB860B584600F0C4
:10449000D7FD98F80030CBF80000C6F1010605EB17
:1044A0008605002B7EF449AB54F8043BA5EB0902CA
:1044B0001E1203F07F0392105AF823303A61FEF780
:1044C000FEBAA5EB860B584600F0CEFD98F80030FA
:1044D000CBF80000C6F1010605EB8605002B7EF443
:1044E0002CAB54F8043BA5EB09021E1203F07F032A
:1044F00092105AF823303A61FEF7E1BAA5EB86052F
:10450000284600F07FFD98F80030002B7EF415ABB4
:1045100054F8043BA5EB09021E1203F07F0392102E
:104520005AF823303A61FEF7CABAA5EB8605284649
:1045300004F04EFB98F80030002B7EF4FEAA54F8ED
:10454000043BA5EB09021E1203F07F0392105AF8F8
:1045500023303A61FEF7B3BAA5EB860B584604F058
:1045600043FC98F80030CBF80000C6F1010605EBDB
:104570008605002B7EF4E1AA54F8043BA5EB090262
:104580001E1203F07F0392105AF823303A61FEF7AF
:1045900096BAA5EB8605284604F064FA98F8003030
:1045A000002B7EF4CAAA54F8043BA5EB09021E12A4
:1045B00003F07F0392105AF823303A61FEF77FBA76
:1045C000A5EB860B584604F06BFA98F80030CBF850
:1045D0000000C6F1010605EB8605002B7EF4ADAAAE
:1045E00054F8043BA5EB09021E1203F07F0392105E
:1045F0005AF823303A61FEF762BAA5EB86052946E0
:10460000304602F047F898F80030002B7EF495AA67
:1046100054F8043BA5EB09021E1203F07F0392102D
:104620005AF823303A61FEF74ABAA5EB86052946C7
:10463000304601F015FE98F80030002B7EF47DAA7C
:1046400054F8043BA5EB09021E1203F07F039210FD
:104650005AF823303A61FEF732BAA5EB86052946AF
:10466000304601F0D7FE98F80030002B7EF465AAA2
:1046700054F8043BA5EB09021E1203F07F039210CD
:104680005AF823303A61FEF71ABAA5EB8605294697
:10469000304601F0E5FE98F80030002B7EF44DAA7C
:1046A00054F8043BA5EB09021E1203F07F0392109D
:1046B0005AF823303A61FEF702BAA5EB860B304672
:1046C000594604F0ADFC98F80030CBF80000C6F174
:1046D000010605EB8605002B7EF42FAA54F8043B57
:1046E000A5EB09021E1203F07F0392105AF8233043
:1046F0003A61FEF7E4B9A5EB860B3046594604F063
:1047000097FC98F80030CBF80000C6F1010605EBE5
:104710008605002B7EF411AA54F8043BA5EB090290
:104720001E1203F07F0392105AF823303A61FEF70D
:10473000C6B9A5EB860B3046594604F081FC98F8C3
:104740000030CBF80000C6F1010605EB8605002B12
:104750007EF4F3A954F8043BA5EB09021E1203F002
:104760007F0392105AF823303A61FEF7A8B9A5EBFF
:10477000860B3046594604F00BF898F80030CBF819
:104780000000C6F1010605EB8605002B7EF4D5A9D5
:1047900054F8043BA5EB09021E1203F07F039210AC
:1047A0005AF823303A61FEF78AB9A5EB8605294607
:1047B000304601F0F9FE98F80030002B7EF4BDA9D8
:1047C00054F8043BA5EB09021E1203F07F0392107C
:1047D0005AF823303A61FEF772B9A5EB86052946EF
:1047E000304601F065FE98F80030002B7EF4A5A954
:1047F00054F8043BA5EB09021E1203F07F0392104C
:104800005AF823303A61FEF75AB9A5EB860B3046C9
:10481000594601F0C7FD98F80030CBF80000C6F10A
:10482000010605EB8605002B7EF487A954F8043BAE
:10483000A5EB09021E1203F07F0392105AF82330F1
:104840003A61FEF73CB9A5EB86052946304601F0F2
:104850004DFD98F80030002B7EF46FA954F8043B0E
:10486000A5EB09021E1203F07F0392105AF82330C1
:104870003A61FEF724B9002E40F38880012E55F8E6
:1048800004BC48D11BF0010F52D1BBF1040F4FD92A
:10489000DBF8003003F00F03042B49D1584600F039
:1048A000CFFDFDF79FFF03465A1CA5EB86056DD093
:1048B000022E4ED11BF0010F43D1BBF1040F40D9A2
:1048C000DBF8002002F00F02092A3AD1DBF80400DD
:1048D0002E1FC0F34700012181422CDD05EB80052E
:1048E000A5EB090292103A6123F0FF0212F5807FD6
:1048F00031D11E02B6B206434A48C6F3072C00EB7C
:10490000CC0332121B79032B3EF46FAB022388F8E1
:104910000030FEF712B9022E0AD155F8080CC10773
:1049200006D4042804D9036803F00F03042BB6D07F
:104930004FF0FF33B8E701315BF8212046F8042F30
:10494000CAE70B2388F80030002345F8043BFEF744
:10495000F4B80020C4E7A5EB800529469847324A01
:104960000023136045F8040B98F80030A5EB09020A
:104970009210002B7EF4E1A854F8043B3A611E1219
:1049800003F07F035AF82330FEF799B8002345F867
:10499000043B98F80030A5EB09029210002B7EF43E
:1049A000CCA854F8043B3A611E1203F07F035AF876
:1049B0002330FEF784B8A5EB86052946304603F080
:1049C00089FA98F80030002B7EF4B7A854F8043B1D
:1049D000A5EB09021E1203F07F0392105AF8233050
:1049E0003A61FEF76CB8A5EB860B3046594603F0EA
:1049F00071FA98F80030CBF80000C6F1010605EB1B
:104A00008605002B7EF499A854F8043BA5EB090217
:104A10001E1203F07F0392105AF823303A61FEF71A
:104A20004EB800BF98250120A0C700202DE9F84FFF
:104A300003F064FC03F054FB01F042FE1E4E6427B9
:104A40000025DFF88080284617E0012B0ED108B939
:104A500000F03EFAF02303FB09F39B441749DBF80F
:104A60000420821A8A423CBF0222E254F02303FB54
:104A700009F3E35C022B18D00135D8F80020AA42D4
:104A800016DD33680E4C01339342A8BF0023336018
:104A9000D6F80090F02303FB09F304EB030AE35C70
:104AA000A346002BE8D0022BCFD15046FDF7E4FF00
:104AB000013FC5D1BDE8F88F08000020809698001E
:104AC000381C0120B40B002020B1034B800143F0BF
:104AD00001031847704700BF10D302000A4B4FF480
:104AE00000721A60094B01211964D3F84025053280
:104AF000C3F84825C3F84C254FF44022C3F80423DB
:104B0000034B1970704700BF00E100E000900040C7
:104B1000030C002004207047F8B5D1E9003513F0EC
:104B2000010031D015F001002ED0392B4FEA63047B
:104B300044D8234F6D1041F288363B5DAE42A8BF8A
:104B40002E46012B05D00121204622F0CBFD01236A
:104B50003B551C4B1B780BB9FFF7C0FF002D1A4BC0
:104B600013DC1A49002240F2DC50FF2513F8016BD8
:104B7000B44208BF21F8120002F1010208BF03F895
:104B8000015C082AF2D10420F8BD1946184600221B
:104B900010F8015BAC4203D10C4B23F81260F2E732
:104BA0000132082AF4D1002211F8010BFF2801D1AB
:104BB0009C54F1E70132082AF6D1E4E70020E3E74C
:104BC000E40B0020030C00202C0000201600002025
:104BD0000A68012838B5CCBF4B680123D00711D52E
:104BE000D9070FD5012A0DDD392B4FEA630409D807
:104BF000054D2B5D012B05D00121204622F072FDD1
:104C000001232B55002038BDE40B002070B5D1E9FD
:104C1000003513F0010020D015F001001DD0392B14
:104C20004FEA6304174E88BF1B24335D012B05D068
:104C30000121204622F056FD01233355124B6D1001
:104C4000A5F110029A42114B08D94FF0FF32002112
:104C500020461A6022F084FD042070BD1C600C4BBD
:104C60000C4890FBF5F018800B4B1B780BB9FFF745
:104C700035FF0A4B01229A64D3F848251044C3F843
:104C80004805E9E7E40B0020908601002800002099
:104C90001400002020A10700030C00200090004019
:104CA0000B68DA0770B504D40D20FDF7A7FE0120CC
:104CB00070BD392B4FEA630414D8012814DD4B680A
:104CC000042B14BF00250225094E335DAB4204D0EE
:104CD0002946204622F006FD3555204622F064FD87
:104CE000012803D00020E3E70025EDE70420DFE7FB
:104CF000E40B0020002802DC1C20FDF77FBE0B68BF
:104D0000DB0701D40D20F8E700207047002802DC03
:104D10001C20FDF773BE0120704700000B68DA0706
:104D200073B505460C4604D40D20FDF767FE01203F
:104D300009E05B100A2B23D0062B06D103F0C2FE3C
:104D4000400040F0010002B070BDF0D80D4A0E4E98
:104D500052F82300335C33B10021019022F0C2FCF1
:104D6000019800233354012D07DD6368042B04D11F
:104D70000221019022F0B6FC019822F0CDFBDFE782
:104D80000523E3E7F0D20200E40B002007B510F0A2
:104D9000010104D04110084603B05DF804FB04286B
:104DA00013D9026802F00F02042A09D1019100F020
:104DB00047FB01990A2203B05DF804EB27F0FAB82B
:104DC000032A02D10A220430F5E70D200191FDF7F4
:104DD00015FE0199DFE700000228F8B50D4604DC56
:104DE000BDE8F8401C20FDF709BE0868FFF7CEFFBC
:104DF00006466868FFF7CAFF0446A868FFF7C6FFC3
:104E00001C2C05465BD82F4F3B5D012B05D00121A3
:104E1000204622F067FC01233B550021204622F06A
:104E20009FFC294B93FBF5F5013D2846FFF74CFE0F
:104E300006F00101204622F093FC2846FFF744FECD
:104E4000C6F34001204622F08BFC2846FFF73CFECB
:104E5000C6F38001204622F083FC2846FFF734FE8B
:104E6000C6F3C001204622F07BFC2846FFF72CFE4B
:104E7000C6F30011204622F073FC2846FFF724FEFB
:104E8000C6F34011204622F06BFC2846FFF71CFEBB
:104E9000C6F38011204622F063FC2846FFF714FE7B
:104EA000C6F3C011204622F05BFC2846FFF70CFE3B
:104EB0002046012122F054FC2846FFF705FE002081
:104EC000F8BD00BFE40B002040420F0004207047F3
:104ED000024B01221A64D3F840057047009000404D
:104EE000044B01221A64D3F840054FF47A73B0FBE7
:104EF000F3F070470090004000487047E8D102008E
:104F00001D20704770B5054E335C8B4204460D463C
:104F100002D022F0E7FB355570BD00BFE40B002046
:104F200070B50024094D264615F8013B012B09D127
:104F30000021204622F014FC0021204622F0D2FB62
:104F400005F8016C01341D2CEED170BDE40B00207E
:104F500070470F2070473B20704700000368D90757
:104F600070B502D54668F20704D4BDE870400D2044
:104F7000FDF744BD392B4FEA630432D8194D2B5D40
:104F8000012B18D00121204622F0ACFB01231B2C61
:104F90002B5510D1144BDA6E144B202AB8BF4FF0AA
:104FA000A04302F01F0203EB8203D3F8002742F470
:104FB0004072C3F800270E4BD3F8082132B1D3F862
:104FC0001821002AFBD00022C3F81821A6F34A01B9
:104FD0008910204622F034FB2B5D012B04BF054ACB
:104FE000135570BDE40B0020E8C902000003005017
:104FF00000C00140C00B002008B50846FFF7AEFF17
:10500000002008BD13B50A4A044692E8030022684E
:105010006B46042A83E8030019464FF0020003D1CF
:1050200001F0F8F902B010BD01F01AFAFAE700BF7A
:1050300080D2020008B50846FFF7E4FF002008BD53
:1050400010B5084C63792BB10021052022F04AFBF2
:1050500000236371052022F0A7FB00280CBF042069
:10506000002010BDE40B002010B5084CE37A2BB1F2
:1050700000210B2022F036FB0023E3720B2022F0EC
:1050800093FB00280CBF0420002010BDE40B00207F
:1050900007480849084A012343604B6053600023D6
:1050A000C0F80035C1F80035C2F80035704700BFC0
:1050B00000C0014000100240002002401C2870B5D2
:1050C00004460D4632D81A4E335C012B04D0012120
:1050D00022F008FB012333551C2C12D1FFF7D8FF17
:1050E000144B1A6F144B202AB8BF4FF0A04302F0A4
:1050F0001F0203EB8203D3F8002742F44072C3F887
:1051000000270E4B1B5D4BB1002D40F2FF312046B6
:1051100008BF0021BDE8704022F092BA291E204647
:1051200018BF0121BDE8704022F01ABB70BD00BF5E
:10513000E40B0020E8C9020000030050C00B00206F
:105140000368D90702D40D20FDF758BC41680A1F37
:10515000514251415810FFF7B1BF08B50846FFF75B
:10516000EFFF002008BD0000F8B5324CD4F84831FC
:10517000ABB10023D4F84855C4F848312E4B186819
:1051800000280CDB2D4A1178B1FA81F14909117020
:1051900022F0E6FA2A4B1B882B44C4F84835254BED
:1051A000D3F84C21002A37D0264ED3F84C45264D53
:1051B0000021C3F84C11337833B12B68072B03D887
:1051C000224AD05C22F0CCFA2B68204F01335A429D
:1051D00002F0070203F0070358BF53422B6000227E
:1051E000082B194619D00133F81810F8010CFF28C4
:1051F00001D10122F4E702B12960012122F0B0FAC5
:1052000001232A683370124B33F8122004F10C0387
:105210001344084AC2F84C35F8BD4FF0FF33054A35
:105220002B6004F58C4400235C343370C2F84C4589
:10523000F2E700BF0090004028000020020C002090
:1052400014000020010C0020E00B00202C000020A6
:10525000160000200849094A10B50823FF2440F22F
:10526000DC50013B01F8014B22F8020BF9D1044A52
:105270001370044A136010BD2C000020160000209B
:10528000010C0020E00B0020024B4FF0FF321A60AF
:10529000704700BF28000020024A03480D2102F099
:1052A0006BBA00BF88D2020055DD020038B54FF45A
:1052B000E1312A481EF016FE294B012200211A6115
:1052C000C3F804150321C3F808150421C3F8101509
:1052D0001A604FF080430221C3F818159A604FF00E
:1052E0001023D3F80C32DB070FD51E4BC3F804256F
:1052F000D3F80024002AFBD04FF010226FF00101F8
:10530000C2F80C120022C3F80425082022F0ECF8A1
:10531000154A0023FF2101331D2B02F8011BFAD18E
:10532000124B134D01221A600020124A0423014639
:105330001468002CFCD02C681160013B44EA00206A
:10534000F6D10D4B01221A601EF030FF01F02EFA4B
:1053500004F0FEFCBDE8384004F0E4BC4009012044
:105360000090004000E00140E40B002000D000402D
:1053700008D5004000D1004004D00040C3070CD441
:10538000064B1B68984208D3054B1B68984204D80B
:1053900050F8043C002B18BF184670470C0C002036
:1053A000080C00200B4908B5012200230133642BAF
:1053B00041F8042BFAD1084B1A60084B4BF6903297
:1053C0001846002126F0DAFB054B40F8043F054B58
:1053D000186008BD902D012010000020100C002046
:1053E00020EE0200040C0020034B044A1A60044B18
:1053F000044A1A60FFF7D6BF0C0C0020100C0020E6
:10540000080C0020A0C70020044B1B681868C0F3DC
:105410000F10023820EAE070704700BF040C002033
:1054200000B59BB00246054901A821F067FD01A81F
:1054300002F02AFD02F062FFFCE700BF16D3020073
:10544000C30713D4042802D812D00B48704703684E
:1054500003F00F03042B01D104307047092B09D04E
:10546000064A0748032B08BF104670470548704797
:105470000548704705487047A0CF020041D302009D
:1054800027D3020030D30200A6CF02003AD3020095
:1054900000B59BB002460B4601A8044921F02EFD41
:1054A00001A802F0F1FC1BB05DF804FB4DD3020033
:1054B000064B074900201A6843F8040CC2F30F1288
:1054C000023203EB82038B42F5D37047140C0020A9
:1054D000A0C700202C4B2D4A18682D4B2DE9F04118
:1054E0001C682C4D13681F0726D41368C3F30F13D1
:1054F000023302EB8302AA42F4D3274964220868EC
:10550000FFF73CFF013A41F8040BF8D1234A106839
:10551000FFF734FF1060224A106810B1FFF72EFF2A
:105520001060204B20491E6800240F464FF03C08B5
:10553000B44214DBBDE8F081C3F30F1302EB830325
:105540009A42D2D01968CE0707D4884205D28C423D
:1055500003D351F8041C01B11960043BF0E70B7848
:1055600013B90134F031E3E70A69551E08FB042240
:10557000053207EB8202002DF3DB1068FFF7FEFE19
:10558000013D42F80409F6E70C0C0020140C002041
:10559000080C0020A0C70020902D01201000002042
:1055A000A0C70020B40B0020381C0120C307F0B5B1
:1055B0003ED4204B1C68A0423AD31F4B1D68A84222
:1055C00036D850F8043C9BBB03680246C3F30F1364
:1055D000012673B9904242F8046C29D0116851F841
:1055E000043C51F82370176041F82320013B0A4620
:1055F000EFE752F82310CF0702EB830C16D48C424E
:1056000014D88D4212D351F8047C7FB90F6817F07B
:10561000080F08D0CCF8007042F8043C0B680A6010
:10562000C3F30F13E3E741F8046CD2E7013BD0E783
:10563000F0BD00BF0C0C0020080C00200D4930B557
:105640000D4C0B461A6853F8045CC2F30F12901C01
:1056500065B18B4214BF0A46002243F8042C01EBCB
:10566000800103EB8003A342ECD330BD12011A602A
:10567000F7E700BF140C0020A0C70020144B2DE951
:10568000F041144C1D464FF000082A68C2F30F1772
:1056900012070FD09D4207F1010605D01846B2004F
:1056A000294626F051FA034603EB860213460433DB
:1056B000C2F80080023705EB8705A542E5D3E41A5E
:1056C000A410054A013C24011C601360BDE8F08170
:1056D000140C0020A0C70020040C00202DE9F0418C
:1056E0009AB0FFF7F5FB224D0646002455F8040B4F
:1056F0000134FFF75BFF642CF8D11E4B1868FFF7ED
:1057000055FF1D4B186808B1FFF750FF1B4DDFF820
:1057100078800027D8F800309F4218DBFFF78EFF13
:10572000FFF7D8FEFFF7AAFFFFF7D2FB144B15498E
:105730001B681B68C3F30F13821B023B01A821F0F7
:10574000DDFB01A802F0A0FB1AB0BDE8F08115F85E
:10575000183C13B90137F035DCE755F8084C013C2B
:10576000002CF7DB55F82400FFF720FFF7E700BF18
:10577000902D012010000020A0C70020501C012007
:10578000040C002054D30200B40B00202DE9F84390
:105790001C4C23681B6801F10109C3F30F139945E1
:1057A00005460F461646A0460CDBFFF797FF236819
:1057B0001B68C3F30F13994504DBBDE8F8430A20C7
:1057C000FDF71CB9BC1CD8F800001B1B1B0140F8DE
:1057D0002430002340F8043C05F00F0343EA071788
:1057E000034600EB840243F8047B03EB8404C8F80F
:1057F0000020083CA34201D3BDE8F88343F8046BC2
:10580000F8E700BF040C0020F8B510F001070446CB
:105810000E462CD1174B1B68834228D8164B1B68A9
:10582000834224D9154D28600068012200F00F0042
:10583000FFF7ACFF2C682F600546C0B1214604304D
:1058400051F8042BC2F30F12B242A8BF32469200A5
:1058500026F06CF9FFF72CFE44F8045CFFF73AFEE3
:105860002268074B44F8047C134023602C462046F2
:10587000F8BD00BF0C0C0020080C0020A0C70020C1
:10588000F0FF0F00011D48BFC11D00228910042038
:10589000FFF77CBF38B5054608460C46FFF7F2FF18
:1058A00048B1C21C0023A34206DB002CACBF041984
:1058B000041C0023237138BDE95C02F8011F013389
:1058C000F1E770B502289AB00C4604DC1C20FDF705
:1058D00095F81AB070BD0868C20706D4042804D928
:1058E000036803F00F03042B01D00E20EFE74B6891
:1058F00013F00106F9D1042BF7D91B6803F00F034D
:10590000042BF2D18B68DB0701D40D20DFE7FFF712
:1059100097FD05466068FFF793FDA4688DF8046065
:1059200001466410284604F0EAFB2146642301AADC
:1059300004F047FC01A826F073FA014601A8FFF71E
:10594000A9FFC6E710B50446ADF5806D10B9FFF7A5
:1059500099FF0BE004F0F9FA0138062827D8DFE8B0
:1059600000F0080810172804230000200DF5806DB2
:1059700010BD204604F063FB011B2046FFF78AFFA1
:10598000F4E7204604F00FFB400040F00100EDE793
:1059900069464FF48062204604F01FFB684626F0FB
:1059A0003FFA01466846E9E703480421E6E700209C
:1059B000CDE70420DAE700BF74D30200022838B52F
:1059C0000C4604DC1C20BDE83840FDF717B8086819
:1059D000C10706D4042804D9036803F00F03042B7D
:1059E00001D00E20EFE76368DA07FAD4042BF8D968
:1059F0001B6803F00F03042BF3D1A368DB0701D46A
:105A00000D20E0E7FFF71CFD05466068FFF718FD75
:105A1000A46801466410284604F071FB214604F096
:105A2000ADFBBDE83840FFF78DBF012838B50C4607
:105A300004DC1C20BDE83840FCF7E0BF0868C10763
:105A400006D4042804D9036803F00F03042B01D003
:105A50000E20EFE76368DA07FAD4042BF8D91B6845
:105A600003F00F03042BF3D1FFF7EAFC054660684F
:105A7000FFF7E6FC0146284604F041FB04F0BDFBBD
:105A8000400040F0010038BD012870B505460C46C5
:105A900004DC1C20BDE87040FCF7B0BF0868C107FB
:105AA00006D4042804D9036803F00F03042B01D0A3
:105AB0000E20EFE76368DA07FAD4042BF8D91B68E5
:105AC00003F00F03042BF3D1FFF7BAFC064660681E
:105AD000FFF7B6FC022D014615D0A568EB0712D5DD
