:1000000000000220D54F020015500200715302007B
:10001000195002001B5002001D5002000000000099
:10002000000000000000000000000000315A020043
:100030002150020000000000515A02002550020029
:10004000DD5C0200718C0100392102000595000081
:10005000F9940000275002002750020027500200A8
:10006000275002004148000027500200898C0100FF
:10007000275002007D8C010027500200275002000B
:10008000275002003D2402002750020027500200A2
:10009000275002002750020027500200275002007C
:1000A000275002002750020027500200275002006C
:1000B000275002002750020000000000000000004E
:1000C000275002002750020027500200275002004C
:1000D000275002002750020027500200275002003C
:1000E0002750020000000000000000000000000097
:1000F000000000002750020000000000275002000E
:1001000000000000000000000000000000000000EF
:1001100000000000000000000000000000000000DF
:1001200000000000000000000000000000000000CF
:1001300000000000000000000000000000000000BF
:1001400000000000000000000000000000000000AF
:10015000000000000000000000000000000000009F
:10016000000000000000000000000000000000008F
:10017000000000000000000000000000000000007F
:10018000000000000000000000000000000000006F
:10019000000000000000000000000000000000005F
:1001A000000000000000000000000000000000004F
:1001B000000000000000000000000000000000003F
:1001C000000000000000000000000000000000002F
:1001D000000000000000000000000000000000001F
:1001E000000000000000000000000000000000000F
:1001F00000000000000000000000000000000000FF
:1002000010B5054C237833B9044B13B10448AFF350
:1002100000800123237010BD200200200000000098
:100220009CF1020008B5034B1BB103490348AFF32F
:10023000008008BD00000000240200209CF10200A4
:10024000A3F5803A704700BF174B002B08BF134B34
:100250009D46FFF7F5FF00218B460F461348144AD1
:10026000121A28F0C3FF0E4B002B00D098470D4BFD
:10027000002B00D098470020002104000D000D48FD
:10028000002802D00C48AFF3008028F0EDFE2000DB
:10029000290024F063FE28F0D3FE00BF0000080010
:1002A00000000000000000000000022020020020EA
:1002B000647701200000000000000000024A0348AB
:1002C000002106F075B900BFE8A00200E4A002001A
:1002D00000207047002070470020704700207047C2
:1002E000024A0348042106F063B900BF18A10200C6
:1002F000E8A00200C30711D404280FD9026802F055
:100300000F03032B0AD101F00301C1F104035B07C2
:1003100003F0C04322F0C04213430360704702461B
:1003200010F001000FD1042A0ED91368C3F30F1087
:1003300050B1431E9800031D0432115C21B10130FD
:100340008342FAD1704700207047037883B11A06C0
:1003500001D40130704703F0C003C02B08BF013047
:10036000024610460132037803F0C003802BF8D018
:10037000704708B5002103780BB9084608BDFFF7A0
:10038000E4FF0131F7E7014600787F2829DDDF2807
:1003900007DC8301487803F4F86300F03F0018435A
:1003A0007047EF2808DC4A780303920102F47C626C
:1003B0009BB288781343F0E7F72810DC4A7883046F
:1003C0001203C87802F47C3203F4E01300F03F001B
:1003D000134303438878800100F47C60DFE74FF02B
:1003E000FF30704738B5002204460D46411C0920F5
:1003F00004F03AFD40B16300024643F0010342F8C5
:10040000043F0023A34200DB38BD55F8231042F817
:10041000041F0133F6E7002838B504DC1C20BDE8D2
:10042000384001F00BBE0C68E20701D40D20F6E75E
:1004300001281ED04A68D307F8D5B2F5007F4FEAED
:10044000620301D31320EAE71A0442EA03621A4363
:1004500042EA0322641024EAE474E11C89100320B8
:1004600004F002FD054610B12146FFF743FF284680
:1004700038BD0022EEE7012838B504DC1C20BDE8B9
:10048000384001F0DBBD0C68E20701D41120F6E72B
:100490004868C30706D4042804D9036803F00F038F
:1004A000042B01D00E20EAE704F038FB6410002C86
:1004B000054603DDFFF75DFFA04205DA1220DEE707
:1004C000FFF743FF013C0546012C2846F8D1FFF712
:1004D0005AFF400040F0010038BD01282DE9F347E4
:1004E0008246884605DC1C2002B0BDE8F04701F0DA
:1004F000A5BD4C6814F0010901D10D20F4E70228D4
:1005000002D08B68DA07F8D5D8F80070FB0700F145
:10051000B180042F40F2AE803D686410012C05F0DC
:100520000F02B8BF0124092A2CD17B68BAF1020F4F
:1005300018BFD8F808704FEA63030CBF1F467F103E
:100540009F42A8BF1F463D1B0135012225EAE575E4
:10055000A918092004F088FC064648B16D0003463E
:1005600045F00105D8F8002043F8045FBC4203DDE4
:10057000304602B0BDE8F087013452F8241043F849
:10058000041FF3E7042A43D1384604F0C7FAFFF703
:10059000F0FEBAF1020F16BFD8F8086006467610D2
:1005A0008642A8BF0646B44205DD002002B0BDE881
:1005B000F04704F0D5BC384604F0B0FA05464C4587
:1005C0001FD1384604F0AAFA0746284609F1010966
:1005D000FFF7BBFE4E45F9DA441B204604F0C0FC91
:1005E00006460028C4D004F099FA8146D8F80000E5
:1005F00004F094FAED1B41192246484628F0CEFD3E
:10060000B6E72846FFF7A1FE09F101090546D6E73E
:10061000032A2FD1BAF1020FC5F30F12C5F34175AA
:10062000C5EB820216BFD8F8085015466D109542EA
:10063000A8BF1546AC4207DD00221146032002B0D8
:10064000BDE8F04704F010BC2D1B291D48BFE91D73
:1006500000228910032004F007FC0646002887D0FA
:100660006A1C11460192FFF745FEE11C019A3944CC
:100670000430C3E7212037E70028F8B504DC1C204C
:10068000BDE8F84001F0DABC0D6815F0010713D0A1
:10069000B5F5007F4FEA650601D31320F0E700228D
:1006A0000121032004F0E0FB044618B10121FFF70B
:1006B00021FE06712046F8BD042DEED92B6803F00B
:1006C0000F03042B1AD12846FFF729FEC11C48BF8F
:1006D000811D064600228910032004F0C5FB044654
:1006E0000028E7D03146FFF705FE284604F016FA49
:1006F00032460146201D28F051FDDBE7092B1FD1B2
:100700006E687610F11C48BFB11D002289100320CD
:1007100004F0AAFB04460028CCD03146FFF7EAFDDE
:100720000435021DB742C5DA55F8043FD90705D58F
:10073000B3F5007F4FEA6301AFD2D1550137F1E73E
:10074000032BAAD12C46B5E7486838B5C3070D4638
:1007500006D4042804D9026802F00F03092B04D040
:10076000BDE838400B2001F069BC4368C2F30F12AA
:10077000511EB1EB630F4FEA630411D80B2C4FF0FD
:10078000030304DD94FBF3F3642BA8BF64239918DF
:1007900004F0A8FB0368C3F30F13013B9C4208D28B
:1007A000A31C013464002A6840F8232044F00104AB
:1007B0004460002038BD01282DE9F84304DC1C20EA
:1007C000BDE8F84301F03ABC02284E680CD08C68B2
:1007D000E70709D56410012CB8BF0124F50705D53A
:1007E0004FF0FF30BDE8F8830124F7E7042EF7D976
:1007F00033680D6803F00F02042A30D1E80706D4ED
:10080000042D04D92B6803F00F03042B01D00E2014
:10081000D6E73046FFF783FDA042E1DB304604F027
:100820007DF90646284604F079F903780146002B45
:10083000D6D0601E304428F058FE04460028CFD0A1
:10084000012133780BB1A64203D3480040F00100E8
:10085000C8E73046FFF779FD06460131F1E7092A7E
:1008600038D17368B4EB630F4FEA6309B8DCE9076A
:1008700028D4042D26D92B6803F00F03042B21D193
:10088000284604F04BF980462746013456F82400E8
:10089000854201D17800D9E7C2070ED404280CD9CB
:1008A000036803F00F03042B07D104F037F9014666
:1008B000404628F0E3FD0028ECD04C45E4DD8FE70E
:1008C0004C458DDC2046013456F82430AB42F7D13C
:1008D0004000BBE7032A83D1C3F30F18C3F341736E
:1008E000C3EB880844453FF77BAFEB0727D4042DC3
:1008F00025D92B6803F00F02032A16D1C3F30F107A
:10090000C3F341732F1DC3EB8000A8EB00083B1815
:10091000013C033644453FF763AF31193A469A42EA
:1009200010460ED314D1601CD2E7042A07D1284602
:1009300004F0F4F807462846FFF7F1FCE5E70F203E
:100940003EE711F8015F0078854202F10102E6D02E
:100950000134DFE701282DE9F047884604DC1C203C
:10096000BDE8F04701F06ABB0868C20706D4042856
:1009700004D9036803F00F03042B01D00E20EFE726
:100980004B6813F00109F9D1042BF7D91B6803F068
:100990000F03042BF2D104F0C1F80446D8F8040088
:1009A00004F0BCF8074628F073FD064678B92046E7
:1009B000FFF7DFFC05460122A918092004F054FACC
:1009C000374B18609A4690B90020BDE8F087394649
:1009D000204628F08AFD231A5D425D4120463946B3
:1009E0003044013528F081FD0028F8D1E3E76B00A1
:1009F00043F001034360D6B92046FFF7A6FC4D45FE
:100A0000064602DCDAF80000DFE7311B204604F07E
:100A1000AFFA0028D8D0DAF8003003EB8903344667
:100A200098603046FFF791FC09F10109E7E7012DD5
:100A300003D1D8F800308360C7E73946204628F054
:100A400054FD4FF001088146B9F1000F16D045451D
:100A5000D8DBA9EB0401204604F08AFA0028B3D0C1
:100A6000DAF8003008F1010809EB060443F8280021
:100A70003946204628F039FD8146E5E74545C1DB8A
:100A8000204628F005FD0146204604F071FA0028B2
:100A90009AD0DAF8003008F1010843F82800B1E7ED
:100AA0000804012008B504F01DF8400040F00100E2
:100AB00008BD7F2902DC00F8011B7047B1F5006F0B
:100AC0000CDA03468A1162F03F0203F8022B01F0B0
:100AD0003F0161F07F01417018467047B1F5803FDA
:100AE0000FDA0B1363F01F030370C1F3851301F0DA
:100AF0003F0163F07F0361F07F0143708170033039
:100B00007047B1F5883F0DDAF023037090234370EE
:100B10008B1101F03F0163F07F0361F07F0183706F
:100B2000C17004307047000010B5094C00222060ED
:100B30000221092004F098F9226820B9BDE810408C
:100B40000A2001F07BBA0321C0E9011210BD00BFE9
:100B50000804012038B5C30709D5B0F5007F4FEA76
:100B6000600507D31320BDE8384001F067BA051EC1
:100B700018BF012500220121032004F075F908B9EE
:100B80000A20F0E70121FFF7B5FB057138BD07B575
:100B900010F0010104D04110084603B05DF804FBD9
:100BA000042813D9026802F00F02042A09D1019126
:100BB00003F0B4FF01990A2203B05DF804EB28F0BA
:100BC00031BD032A02D10A220430F5E70D2001913C
:100BD00001F034FA0199DFE70128F8B507460E461F
:100BE00004DC1C20BDE8F84001F028BA0868FFF7D3
:100BF000CEFF05467068FFF7CAFF022F044606D0F5
:100C0000B068FFF7C4FF061E02DC2920EAE70126D0
:100C1000A542D5BF641B2C1BB4FBF6F4B4FBF6F461
:100C2000D4BF013401344FF0000204F101014FF050
:100C30000900C8BF764204F017F980B1630002468C
:100C400043F0010342F8043F6D00730002EB84049B
:100C500045F0010142F8041F94421D44F8D1F8BD4B
:100C600000282DE9F3410F4603DC1C2001F0E6F9D2
:100C700016E00C6814F0010506D1042C1DD9236878
:100C800003F00F03042B0DD12046FFF780FF6C46C5
:100C900001462046FFF70DFF011B204604F068F9CE
:100CA000044634E0092B08D166684FF0010876103D
:100CB000B04504DD01F0C8F9E0B12A20D6E708F11B
:100CC000010854F82800FFF762FF7F280CDDB0F51B
:100CD000006F0BDBB0F5803F0ADBB0F5883FACBF9F
:100CE000002304231D44E3E70123FBE70223F9E784
:100CF0000323F7E7284604F033F9044638B1D7F860
:100D0000008003F00BFF01270546B74203DD2046B4
:100D100002B0BDE8F081013758F82700FFF737FF30
:100D200001462846FFF7C5FE0546EEE710B5044626
:100D300011F0010011D104290ED90A6802F00F0246
:100D4000042A09D1084603F0E9FE0146204628F0AE
:100D500095FBB0FA80F0400910BD0020FCE70000D0
:100D60000128F8B50E4604DC1C20BDE8F84001F06F
:100D700065B94D68EA0706D4042D04D92B6803F041
:100D80000F02092A01D00B20EFE76A680968C3F354
:100D90000F13B3EB620F4FEA620498BF03F1FF3405
:100DA00011F001070DD0481000283CDD84423ADBE9
:100DB0002B1D844219DD013053F8202045F82020F6
:100DC000F7E71A48FFF7B2FF40B10123BC4201DA4E
:100DD0000020F8BD013745F82730F7E7316814489F
:100DE000FFF7A4FF50B1002CF2D00122631C013C9C
:100DF0009440144345F823206C60E9E73068C3074A
:100E00000FD404280DD9036803F00F03042B08D175
:100E1000FFF7BDFE0028C8D131680648FFF786FFFE
:100E200008B91120A1E712209FE700BF38A10200F6
:100E30003CA10200C4CC0200002310B50B70C30714
:100E40000C4606D50E4942102046BDE8104024F05D
:100E50002DB828B90B492046BDE8104028F0F2BA59
:100E6000042801D10849F6E709D9036803F00F0304
:100E7000042B04D103F052FE04490246E4E710BDFE
:100E8000D1A80200C4CC0200FCD8020041A102009B
:100E90002DE9F04301288FB080460E4607DC1C2068
:100EA00001F0CCF8054628460FB0BDE8F0830B688A
:100EB00013F0010440F0AE80042B40F2E2801B6886
:100EC00003F00F03092B48D1274656F8273013F0BB
:100ED000010906D1042B04D9186800F00F00092875
:100EE00003D02220DCE71F46EFE75B6804EB6304D6
:100EF0007B1C9845F7D10122A11803F0B5FF0546E8
:100F000008B90025CFE7640044F001044460494675
:100F100000F1080456F821301868D3F804C0C0F373
:100F20000F10B0EB6C0F4FEA6C0203F1040398BF93
:100F300000F1FF320020824209DC22EAE2728F4295
:100F400004EB820401F10103ADDD1946E2E753F839
:100F500004CF44F820C00130EDE7032B40F091802E
:100F6000274656F82700C507BBD40428B9D903681B
:100F700003F00F02032A3CD1C3F30F12C3F34173F2
:100F8000C3EB82031C447B1C984530D1E11C48BF55
:100F9000A11D00228910032003F066FF05460028EA
:100FA000AFD02146FFF7A6F94FF0000800F1040981
:100FB00056F82840E10723D4042C21D9206800F0FA
:100FC0000F03032B1CD1C0F30F13C0F34170C0EB10
:100FD000830003340023834216DB0028A8BF81442A
:100FE000474508F101037FF75EAF9846E0E71F46EB
:100FF000B7E7042A7FF475AFFFF791F90444C2E71D
:101000002046FFF78CF9E4E714F8012F09F80320D4
:101010000133E0E700252C4656F82500C20732D4FC
:10102000042830D9036803F00F02042A32D1FFF7F5
:1010300076F904440135A845EED1204603F090FF2F
:10104000054600283FF45DAF041DB14606EB880855
:1010500059F8046BF30728D4042E26D9336803F01B
:101060000F02042A34D13046FFF759F907463046BB
:1010700003F054FD3A460146204628F08FF83C44E0
:1010800021E02546C8E701A9FFF7D6FE01A828F010
:10109000FFF9CEE7032A7FF424AFC3F30F12C3F3A3
:1010A0004173C3EB82031C44C4E701A93046FFF738
:1010B000C3FE01A828F0ECF901A906460246204625
:1010C00028F06CF83444C845C2D100232370EAE606
:1010D000032AF8D1C3F30F17C3F34173C3EB870798
:1010E0003A46311DC8E700002DE9F04F002893B0C3
:1010F0000E4607DC1C2000F0A1FF0446204613B07A
:10110000BDE8F08F0C6814F0010906D1042C04D955
:10111000236803F00F03092B01D00B20EBE7636872
:101120004FEA6308B8F1000F03DC484603F018FFEC
:10113000E3E7012827D04868C20724D4042822D92D
:10114000036803F00F03042B1DD103F0E7FC0546F1
:10115000284628F09DF9043408F1FF33074601932F
:1011600003FB00FB04EB880A54F8040FC3076BD49D
:10117000042869D9026802F00F01042905D1FFF79C
:10118000CEF883440AE0354DE2E7032963D1C2F388
:101190000F11C2F34172C2EB81029344A245E3D125
:1011A000584603F0DDFE04460028A7D0D6F800A07C
:1011B0001FB1706803F0B2FC0546204603F0AEFC98
:1011C0000AF1040A06465AF804BF584603F0A6FC82
:1011D0001BF001030146029302D1BBF1040F04D8B6
:1011E00005A95846FFF728FE05A90846039128F0EF
:1011F0004FF9DDE9023102468BB9BBF1040F0ED97C
:10120000DBF8000000F00F0CBCF1030F01BFC0F3CE
:101210000F12C0F341700BF10401C0EB82023046A3
:10122000029227F0BBFF029A164447B1019B4B453F
:1012300005DD30463A46294627F0B0FF3E4409F125
:101240000109C845BFD159E705A9FFF7F5FD05A874
:1012500028F01EF995E703F061FCF9E74DD502008F
:101260002DE9F041012888B003DC1C2000F0E6FEE7
:101270005EE00C68E30730D4042C30D9266806F011
:101280000F06486803F04AFCB349074628F0F6F811
:10129000B249002838460CBF01254FF0FF3528F031
:1012A000EDF8AF490028384608BF022528F0E6F8D7
:1012B000AC490028384608BF042528F0DFF8AA49C1
:1012C0000028384608BF092528F0D8F8002800F083
:1012D000EA816F1C05D13020C8E70226D1E701263C
:1012E000CFE7013E082E17D8DFE816F009002400EA
:1012F000730153001600160016001600CF00023DC1
:10130000072D09D8DFE805F004410C080808083D5E
:10131000042C0CBF03240124204608B0BDE8F08152
:101320009248934B0121042C18BF184603F020FE6D
:101330000446F1E7013D082DEED801A353F825F04E
:1013400065130000191300008B1300006D130000DB
:1013500019130000191300001913000019130000DD
:1013600083130000630835D00424D5E78149621057
:10137000684623F09BFD684628F08AF801466846D7
:10138000D4E72046FFF7D0FBD2E72046FFF7E2FB89
:10139000CEE7013D082DBFD801A353F825F000BFCB
:1013A000C5130000D91300004514000019130000F4
:1013B000191300001913000019130000191300007D
:1013C000E7130000204603F0A9FB694928F056F80E
:1013D0000028C9D100249FE72046FFF7D8FB400032
:1013E00040F0010498E7204603F098FBFEF7C1FFA8
:1013F000614D411C0646002209202C6003F034FD9B
:10140000044608B90A2031E70746730043F0010398
:10141000286847F8043F03F081FB4FF000080546B9
:1014200046457FF779AF2846FEF7ADFF400040F014
:10143000010047F8040F2846FEF787FF08F101086E
:101440000546EDE7204603F069FB28F021F84A4DF8
:10145000C11C06460022891003202C6003F004FD05
:1014600004460028CED02D683146FEF743FF2846BB
:1014700003F054FBE21C00239E427FF74DAFC15C9A
:1014800002F8011F0133F7E7032566686B1E76102B
:10149000032B3FF641AFDFE803F00212713A012E51
:1014A0000BD1A468E00708D4042C7FF635AF23687D
:1014B00003F00F03012B3FF42FAF2D20D6E6012EB2
:1014C00003D1A468E1073FF527AF2C20CEE6013712
:1014D00054F82700FFF75BFB7F2812DDB0F5006FA3
:1014E00011DBB0F5803F10DBB0F5883FB4BF2B4671
:1014F00000239844BE42EADA00F0A6FD58B12A2043
:10150000B4E60123F5E70223F3E70323F1E701271C
:101510004FF00008EEE7184D40462C6003F020FD28
:101520002F68044600283FF455AF03F0F7FA012571
:10153000AE42FFF6F1AE013557F82530DA0701D497
:10154000272093E6B3F5081F4FEA630101D331204A
:101550008CE6FFF7AEFAEBE74AA1020052A10200C7
:1015600059A1020060A1020065A10200FCD802009E
:10157000C4CC0200D1A8020008040120F11C48BF1D
:10158000B11D554D0022891003202C6003F06CFC26
:10159000044600283FF436AF31462D68FEF7AAFE18
:1015A000021D6FF0030005F10803001B11188E42A5
:1015B0007FF7B2AE53F8041BCD07C1D5B1F5007F5C
:1015C0004FEA610501D3132050E602F8015BEDE715
:1015D00035462668013DC6F30F13C6F34176C6EBC8
:1015E0008306082D3FF698AE01A353F825F000BFFF
:1015F0001516000025160000191300002F16000014
:10160000191300001913000019130000191300002A
:1016100063160000012E7FF450AF2379002B7FF476
:10162000A3AED7E6012E7FF450AF2079D7E62A4D3E
:1016300030462C6003F094FC2B68044600283FF4ED
:10164000E1AE1A1DC3F1FF2303F57F03C11CFC3378
:10165000D018B042BFF660AE12F8010B01F8010FCE
:10166000F6E71D4D0022711C09202C6003F0FCFBE5
:101670002B68044600283FF4C5AE0146720042F0D4
:10168000010241F8042F6FF00202D81CD21A13187D
:101690009E427FF741AE10F8013F5B0043F001032B
:1016A00041F8043FF3E7731E082B3FF635AE01A265
:1016B00052F823F08B1300008B130000D1150000AB
:1016C000451400001913000019130000191300003D
:1016D000191300008914000008040120021E10B52F
:1016E00013DD0B6813F001041CBF5C1024EAE474E2
:1016F000012A00D04A68611C092003F0B5FB18B12B
:10170000640044F00104446010BD00240122F2E7AB
:101710000A6812F0010038B53AD1042A38D91368A2
:10172000496803F00F04092C1AD15568C3F30F134D
:10173000B3EB650F4FEA650498BF03F1FF34151D45
:10174000844205DC01330220984205DB002038BDCD
:1017500045F8041F0130F3E742F820100130F3E7A9
:10176000032C15D1C80704D4BDE83840132000F07D
:1017700065BCB1F5007F4FEA6100F5D20432C3F3D6
:101780000F1302EB83039A42E0D202F8010BFAE74F
:101790000B2000F053FCD9E72DE9F0414E6816F01C
:1017A000010788462BD1042E29D9326802F00F0395
:1017B000092B14D17368C2F30F12B2EB630F4FEA17
:1017C000630500D8551ED8F8008018F0010F1AD014
:1017D0004FEA6804002C1CDDA54223DA19E0042B33
:1017E00004D13046FEF79BFD0546ECE7032B08D1FC
:1017F000C2F30F13C2F34172C2EB8305E3E7002586
:10180000E1E73D46DFE734484146FFF78FFAC0B1D4
:101810000DB912202FE027F01FFD90FBF5F303FB1D
:1018200015035C1C002F54D1042E52D9336803F0E9
:101830000F03092B25D1013456F824402046BDE87A
:10184000F08126484146FFF771FAC0B9B8F1040F9C
:1018500010D9D8F8003003F00F03042B0AD140460A
:10186000FFF795F9041EB6D11D484146FFF75EFA11
:101870000028CED11120BDE8F04100F0DFBB2C469E
:10188000D0E7042B1DD1304603F048F9012C054662
:101890000FDCFEF75AFD461B304603F061FB0446A1
:1018A0000028CBD003F03AF93246294627F076FCDF
:1018B000C4E72B78013C002BABD02846FEF745FD52
:1018C000E4E7032B05D13444E478640044F00104D8
:1018D000B4E70B20CFE700BF70A102003CA10200DB
:1018E000C4CC02002DE9F0414C6814F00106884692
:1018F00032D1042C30D923688F6803F00F02092AF3
:1019000015D16268C3F30F13B3EB620F4FEA6205A0
:1019100000D85D1ED8F800103748FFF707FA98B3D3
:10192000236803F00F03092B20D1012319E0032AB8
:1019300012D1FA0704D41320BDE8F04100F07EBBB9
:10194000B7F5007F4FEA6706F5D2C3F30F15C3F36F
:101950004173C3EB8505DDE70B20EDE7013344F868
:1019600023709D42FADA0020BDE8F081032BFAD102
:10197000E31CC4F1FF2404F57F04FE34E218AA42FC
:10198000F1DC03F8016FF9E7D8F8008018F0010FD7
:101990000ED04FEA6800002822DD854220DB236854
:1019A00003F00F03092B21D1013044F82070DAE74E
:1019B00012484146FFF7BAF9B0B9B8F1040F11D98E
:1019C000D8F8003003F00F03042B0BD14046FFF78B
:1019D000DEF80028E0D10A484146FFF7A7F908B130
:1019E0001220A9E71120A7E72846D8E7032B04BF58
:1019F0002418E670B7E700BF38A102003CA102003E
:101A0000C4CC0200086808B5C3071BD4042819D940
:101A1000036803F00F02092A01D1406808BD032AB8
:101A200009D1C3F30F12C3F34170C0EB8200400031
:101A300040F00100F2E7042A04D103F06FF8FEF74A
:101A400098FCF4E70120E9E7024A03480F2104F07B
:101A5000AFBD00BF0CA2020077A1020000207047BA
:101A60000420704701207047002003F079BA00205D
:101A7000704700207047002070470020704700200A
:101A800070470020704700207047002070470020FA
:101A9000704700207047012070470000024A034849
:101AA0000F2104F085BD00BF18A3020084A202002C
:101AB00070470020704700207047002070470020CA
:101AC00070470020704700207047002070470020BA
:101AD00070470000024A0348082104F069BD00BFB6
:101AE000ECA3020090A3020070477047014A136004
:101AF000704700BF44060020704710B5044623F02D
:101B000067FA204610BD0000F0B5104E85B00022E7
:101B100001A809F0D5FE3468BDF80A50019FC4F54C
:101B20008062954204DD0A4803680133036015466C
:101B300008482A463946204427F030FB2C443846D2
:101B4000346022F076F805B0F0BD00BF3C060020FE
:101B50004C0600203C02002010B5034B03600446F5
:101B600009F0EEFD204610BDFCA4020010B50446AD
:101B7000FFF7F2FF204623F02BFA204610BD0000AD
:101B80002DE9F041344A354DDFF8F08086B0A2F1FE
:101B90000F0102A8009024F0EEF80F230193009BA0
:101BA0000027DF7368460AF0FBF9684624F0D2F894
:101BB0000AF0A8F904462860042023F005FA284B0F
:101BC00003600146012220460AF002FD25492868EB
:101BD0000AF01BFF102224494FF4007304460BF057
:101BE000B1FA224B06461860042023F0EDF90146B5
:101BF000C0F80080304609F0A7FF4FF400730422BC
:101C00001B4920460BF09EFA0646042023F0DCF91F
:101C10000146C0F80080304609F096FF20460BF0E0
:101C200023F928680AF0CDFC2146064668460BF0E9
:101C3000D9F86946304609F037FD28680AF0C1FC3A
:101C40003A46394609F07CFA0A490B4820F0D8F8A0
:101C500006B0BDE8F08100BF3BA4020048060020AA
:101C6000CCA402003CA4020061A4020040060020B3
:101C700086A40200ABA4020000450120FCA40200DF
:101C8000F8B50B4E3568A942A8BF29460C4669B184
:101C9000084F0A462D1B394627F080FA002D04DD37
:101CA0002A463919384627F079FA35602046F8BDBA
:101CB0003C0600203C02002070B5541AFA2C0B4E52
:101CC0000B4DA8BFFA2400230144224630682B6044
:101CD00009F042FF3068012109F02EFF2B6813B193
:101CE000052020F04BFB204670BD00BF40060020C1
:101CF000440600207047037883B11A0601D40130EE
:101D0000704703F0C003C02B08BF013002461046E5
:101D10000132037803F0C003802BF8D07047000035
:101D200073B50646084611F00101144627D1042870
:101D300042D9036803F00F03042B3DD1D30714D419
:101D4000042A39D9136803F00F03042B34D102F0AD
:101D5000E5FE0546204602F0E1FE0146284627F052
:101D60008DFB002830DB21D129E0019102F0D6FE65
:101D700001990A2227F056FC0546641013E012F080
:101D8000010117D1042A17D9136803F00F03042B9C
:101D900012D145101046019102F0C0FE01990A22AD
:101DA00027F040FC0446A5420EDB08DD002E09DCCE
:101DB00000200CE04510E0E7064B0F221A700136B8
:101DC000022EF5D8042002E0701700F0040002B0E3
:101DD00070BD00BF7406002007B510F0010104D0EB
:101DE0004110084603B05DF804FB042813D90268CB
:101DF00002F00F02042A09D1019102F08FFE01992D
:101E00000A2203B05DF804EB27F00CBC032A02D1D0
:101E10000A220430F5E7024B0D221A70E1E700BFF9
:101E2000740600202DE9F041304E05460024337938
:101E3000032B0FD00134FF2C06F10806F7D12846FA
:101E400004F0CAFB20B92A4B1B221A704FF0FF3056
:101E5000BDE8F081284627F01BFB29460246E0B288
:101E600004F046FC00283ED132685768111DB84284
:101E7000E0D051F8043FF02B00F1010301D01846E7
:101E8000F5E79B000833D00702EB0301D2D4042905
:101E9000D0D9D35803F00F02042ACBD1C3F30F13C8
:101EA0000133CF0701EB8300C4D40428C2D951F811
:101EB000233003F00F03042BBCD102F02FFE4FF0B0
:101EC000030807460921384627F0CBFA0028B1D08D
:101ED000B8F1010800F10107F4D12946384627F08E
:101EE00004FB8742A6D164F0FF00B1E758610120EE
:101EF0007406002010F0010210B516D1042802D992
:101F00000268C2F30F1211F0010310D1042902D9A3
:101F10000B68C3F30F13934214D1043000EB830317
:101F20000331834205D8012010BD0022EBE70023D6
:101F3000F1E710F8014B11F8012F54EA020CF2D02E
:101F40009442EED00020EFE72DE9F04F85B0CDE9C7
:101F50000113314F314E80468AB102233B70012379
:101F600033603368DFF8C890DFF8C8A0DFF8C8B086
:101F70000024FC54444504DB05B0BDE8F08F32601A
:101F8000EFE7019B316853F82400C30707EB010515
:101F9000C1F5487105D5224A4310284622F09AFF20
:101FA00004E0A8B91F4A284622F094FF1A4827F0F7
:101FB0006FFA029B30604BB108F1FF33A34205DD9D
:101FC000431C20223A540022FA5433600134D1E7F2
:101FD000042801D1144AE6E71BD9026802F00F0376
:101FE000042B06D1039102F099FD104A0399034690
:101FF000D3E7092B03D143685A465B10CDE7032B87
:1020000008D1C2F30F13C2F34172C2EB83035246ED
:10201000C3E701234A46C0E775060020980900205F
:10202000D1A8020020A5020026A502005BEC020058
:1020300045A502003AA502002BA50200014B18702D
:102040000020704774060020024B1878003818BF33
:102050000120704774060020024B1860024BFF22DB
:102060001A707047A00900207406002008B50023EC
:102070001A46FFF769FF034B0348196805F042F859
:10208000002008BD980900207506002010B502F058
:1020900095FA084C231D01461F22184627F012FA14
:1020A00027F0F6F9031D9B081B0143F0040323608E
:1020B000204610BD500600202DE9F04F074607F1DD
:1020C000180979693D6985B009EB81010291C2491E
:1020D000D0E902300E78AA0003EB800409EB8505F5
:1020E0008846002E49D153F8203092101E123A61D2
:1020F00003F07F03B94A52F823300434924643F088
:1021000001031847BA68BB787878A21A921043EA9C
:10211000022204F0FAFC00233B7088F80030BB6810
:10212000E41A029BA5EB0905A3EB0909A410AD1065
:102130004FEAA903FC603D617B6105B0BDE8F08F0B
:10214000787804F0DCFC00233B70E8E798F8003076
:102150009BB954F8043BA5EB09021E1203F07F0360
:1021600092105AF823303A61C9E7291DA1EB0903FF
:10217000D82B18DD1A2388F8003098F80010FF29B2
:10218000C0D1974E002388F800303368002BC6DD9D
:1021900001233B7002F0FEF933684FF47A7202FBC0
:1021A00003007860BBE79A1098F800302E600BB1FE
:1021B0000D46E2E754F8043B3A611E1203F07F0338
:1021C0000D465AF823309AE7291DA1EB0903D82BB5
:1021D00003DD1A2388F80030CFE7204650F8042B9F
:1021E0002A609A1098F8003013B10D460446C4E7EF
:1021F00063683A611E1203F07F030D465AF82330DC
:1022000008347CE7291DA1EB0903D82B03DD1A2331
:1022100088F80030B1E79A1098F8003004EB860691
:102220002E600BB10D46A8E754F8043B3A611E122C
:1022300003F07F030D465AF8233060E7291DA1EB18
:102240000903D82B03DD1A2388F8003095E7654A87
:1022500052F826202A609A1098F800300BB10D46EB
:102260008BE754F8043B3A611E1203F07F030D46DE
:102270005AF8233043E75B4B55F8042D43F82620EA
:1022800098F80030002B7FF478AF54F8043BA5EBAE
:1022900009021E1203F07F0392105AF823303A61AC
:1022A0002DE7DFF840B15BF82600FFF795FD98F8C1
:1022B0000020002A7FF461AF009055F8040DFFF76D
:1022C0008BFD009B1844400098F8003040F001005E
:1022D000A5EB09024BF826009210002B7FF44DAFBE
:1022E00054F8043B3A611E1203F07F035AF823307E
:1022F00005E72A1DA2EB0903D82B03DD1A2388F872
:1023000000303AE7029B994534BF53F80C3C012357
:102310002B6098F80030A2EB090189100BB115462B
:102320002BE754F8043B39611E1203F07F03154676
:102330005AF82330E3E62A1DA2EB0903D82B03DD6C
:102340001A2388F8003018E7029989450FD251F80E
:102350000C0C06F18046033EA6EB600651F82610F1
:102360002960991098F8003043B1154605E7182305
:1023700088F8003000232B601546FEE654F8043B35
:1023800039611E1203F07F0315465AF82330B6E672
:10239000029B99451CD2029A55F8043D52F80C0C48
:1023A00006F18046033EA6EB600642F8263098F818
:1023B0000030A5EB09029210002B7FF4DEAE54F83A
:1023C000043B3A611E1203F07F035AF8233096E66D
:1023D000182388F80030D0E67406002068A50200B3
:1023E000A009002050690120029B99452DD253F885
:1023F0000C3C029A06F18046033EA6EB630352F8BA
:102400002300FFF7E9FC834655F8040DFFF7E4FCD1
:10241000029B029A53F80C3C5844A6EB6306430017
:1024200043F0010342F8263098F80030A5EB09028A
:102430009210002B7FF4A1AE54F8043B3A611E12B7
:1024400003F07F035AF8233059E6182388F8003048
:1024500093E6291DA1EB0903D82B03DD1A2388F885
:1024600000308AE6029A52F826202A609A1098F8DC
:1024700000300BB10D4680E654F8043B3A611E1261
:1024800003F07F030D465AF8233038E6029A55F8D8
:10249000043D42F8263098F80030002B7FF46DAEF2
:1024A00054F8043BA5EB09021E1203F07F039210BF
:1024B0005AF823303A6122E6029B53F826004FEA8D
:1024C000600B55F8040DFFF787FC5844029B400051
:1024D00040F0010043F8260098F80030002B7FF40C
:1024E0004CAE54F8043BA5EB09021E1203F07F0327
:1024F00092105AF823303A6101E6A5EB8605A9450A
:10250000A5EB09060ED898F80020B310002A7FF436
:1025100034AE54F8042B3B61161202F07F025AF8D5
:102520002230ECE5C94802F0E9FA98F80020B3102F
:10253000002A7FF422AE54F8042B3B61161202F0FD
:102540007F025AF82230DAE5002E04EB8604FFF60B
:10255000E6AD98F80030A5EB09029210002B7FF44D
:102560000CAE54F8043B3A611E1203F07F035AF894
:102570002330C4E555F8043D042B04D1002E04EBB0
:102580008604FFF6CCAD98F80030A5EB0902921056
:10259000002B7FF4F2AD54F8043B3A611E1203F0B5
:1025A0007F035AF82330AAE555F8043D042B04D0E4
:1025B000002E04EB8604FFF6B2AD98F80030A5EBD0
:1025C00009029210002B7FF4D8AD54F8043B3A6115
:1025D0001E1203F07F035AF8233090E555F8040CDF
:1025E000C107A5F1040B0BD54010013800280ADB08
:1025F000400040F0010004EB8604CBF800008EE5BB
:10260000FFF7EAFBF1E798F80030ABEB0902921014
:102610000BB15D46B1E554F8043B3A611E1203F07C
:102620007F035D465AF8233069E5029B05F10C0EE5
:10263000AEEB0901A3EB0903D8294FEAA30303DD9D
:102640001A2388F8003098E5760006F4FF7646F005
:1026500001062E60AB46BD68641BBD78A41045EA38
:1026600004256D005B0045F0010543F00103CBF844
:102670000450CBF80830BA7098F8002050F83C307D
:10268000BB607546891022B103F10804CDF808E05B
:1026900073E503F10C049B68CDF808E01E1203F00B
:1026A0007F0339615AF8233029E5029B55F8046C01
:1026B00099452CD1F2071ED4042E15D9336803F0A6
:1026C0000F03042B19D1304602F028FA26F0E0FE61
:1026D000B0F5487FA8BF4FF448700630643004F06E
:1026E00039F878B9043C1AE50AD0002E0CBF07204F
:1026F0004FF40070F2E70A20F0E74FF40070EDE7C6
:102700000720EBE77878314604F016FA1BE5029BC8
:102710004F4953F80C2C4F4B98F80000A3EB620381
:10272000029A42F8236002EB830552F8083C5A10E3
:10273000BA70D2B2043551F83210029AB96052F828
:10274000042C521009EB8202C3F355230292A5EB2D
:10275000090201EB8304921000287FF40EAD51F8BA
:1027600023303A611E1203F07F0304345AF82330F9
:10277000C5E455F8040CFFF72FFB1E28A5EB8605D2
:102780002FDCA5EB090B00284FEAAB0B0EDC98F809
:102790000030002B7FF4F1AC54F8043BC7F810B0C4
:1027A0001E1203F07F035AF82330A8E4009001F0D2
:1027B000F1FE009B033B1E1801F0ECFE264B801B34
:1027C0009842F9D298F80030002B7FF4D6AC54F838
:1027D000043BC7F810B01E1203F07F035AF82330F1
:1027E0008DE401223A70009001F0D4FE009B0A387B
:1027F00003447B6093E455F8040CFFF7EDFAA5EB76
:102800008605061E10DC98F80030A5EB0902921030
:10281000002B7FF4B2AC54F8043B3A611E1203F073
:102820007F035AF823306AE40C4B9E4203DD1D23DC
:1028300088F80030A1E401233B7001F0ABFE4FF4B7
:102840007A7303FB06000A38ABE400BF57A5020009
:1028500058610120FDFFFF3F8096980080EE360012
:1028600000233046A5EB8605CD4E1A462946FFF7D4
:102870006BFB3168CB4802F07BFBCB4B31681860B7
:10288000C84804F013FB3168C64804F03BFC98F8D4
:102890000030002B7FF471AC54F8043BA5EB090227
:1028A0001E1203F07F0392105AF823303A6126E497
:1028B00098F80030A5EB8605002B7FF45EAC54F849
:1028C000043BA5EB09021E1203F07F0392105AF895
:1028D00023303A6113E4384603F09AFF98F8003049
:1028E000002B7FF44AAC54F8043BA5EB09021E12FE
:1028F00003F07F0392105AF823303A61FFF7FFBBD1
:1029000055F8043C002B48D155F80C0C10F0010B85
:1029100020D04FEA600B4FEA4B0343F0010345F828
:10292000083CBBF1000F40F3998055F8080C4FEAC2
:102930004B03CBEB600B55F80C0C43F0010345F84F
:10294000043CC3072ED50BF1010B4FEA4B0343F0B8
:10295000010332E004281BD9036803F00F02092A9F
:1029600001D14068D5E7042A09D102F0D7F80378ED
:10297000002BD0D0FFF7BFF90BF1010BF7E7032ACB
:1029800006D1C3F30F1BC3F34173C3EB8B0BC2E739
:10299000192388F80030FFF7F0BB4FEA630B0BF107
:1029A000FF3BBEE7042854D9036803F00F03092B4B
:1029B00018D10BF1020B50F82B30029A42F8263056
:1029C00098F80030A5EB09029210002B7FF4D5ABEC
:1029D00054F8043B3A611E1203F07F035AF8233087
:1029E000FFF78DBB042B2DD1029B03EB86030093D5
:1029F00002F094F80BF1010B0646BBF1010F10DC5D
:102A00003046FFF778F9821B1046039202F0A8FACD
:102A1000834670B102F082F8039A314626F0BEFB7D
:102A200007E030780BF1FF3B38B9122388F800300B
:102A30008346009BC3F800B0C2E73046FFF75BF95E
:102A40000646DAE7032B04D183449BF804305B008D
:102A50007DE7192388F80030FFF78FBB0434AFE718
:102A600005EB8603A3EB0903D82B16DC0122002E0D
:102A700006F1FF3316DC98F80030A5EB090292103E
:102A8000002B7FF47AAB54F8043B3A611E1203F03A
:102A90007F035AF82330FFF732BB1A2388F800303F
:102AA000FFF76BBB45F8042B1E46E0E72B1DA3EB9D
:102AB0000903D82B04DD1A2388F80030FFF75DBB2B
:102AC000029B994531D255F8040CFFF785F900288F
:102AD00027DD029B53F80C3CB0EB630F4FEA630217
:102AE0001FDC801A00F18040029B043853F820203C
:102AF000A5EB86031A60C6F1010605EB860598F87A
:102B00000030A5EB09029210002B7FF436AB54F88D
:102B1000043B3A611E1203F07F035AF82330FFF79B
:102B2000EEBA202388F80030E5E71823FAE71E4BB9
:102B30001A68A5EB8603C6F101061A6098F8003002
:102B400005EB8605002B7FF418AB54F8043BA5EB8E
:102B500009021E1203F07F0392105AF823303A61E3
:102B6000FFF7CDBA55F8043C042BA5F1040298F800
:102B7000003008BF2A46A2EB090108BF04EB860417
:102B8000891013B11546FFF7F8BA54F8043B3961C0
:102B90001E1203F07F0315465AF82330FFF7AFBA31
:102BA00098090020750600200C00002055F8043D0F
:102BB000042B1CBF002345F8043B98F80030A5EB1C
:102BC000090218BF04EB86049210002B7FF4D5AAEB
:102BD00054F8043B3A611E1203F07F035AF8233085
:102BE000FFF78DBA002EA5EB86011ADC1C2388F8AE
:102BF00000300022C6F1010605EB860598F800308A
:102C00000A60A5EB09029210002B7FF4B6AA54F8D3
:102C1000043B3A611E1203F07F035AF82330FFF79A
:102C20006EBA0B684FF0000C5B1051F82C0010F0DE
:102C3000010203D10D2388F80030DBE74010834206
:102C40000CF1010CA8BF03466645EEDC5B0043F0C7
:102C50000102CFE7002EA5EB86011ADC1C2388F8C1
:102C600000300022C6F1010605EB860598F8003019
:102C70000A60A5EB09029210002B7FF47EAA54F89B
:102C8000043B3A611E1203F07F035AF82330FFF72A
:102C900036BA0B684FF0000C5B1051F82C0010F0A6
:102CA000010203D10D2388F80030DBE74010834296
:102CB0000CF1010CB8BF03466645EEDC5B0043F047
:102CC0000102CFE755F8081C11F0010F4FEA860307
:102CD00023D055F8042C12F0010F1ED05210B2EB85
:102CE000610FA5EB0303CCBF042200221A60C6F1DA
:102CF000010605EB860598F80030A5EB0902921055
:102D0000002B7FF43AAA54F8043B3A611E1203F0F8
:102D10007F035AF82330FFF7F2B955F8042C6FF00F
:102D20000100A5EB030BFEF7FBFFCBF80000DEE78D
:102D300055F8081C11F0010F4FEA860323D055F80F
:102D4000042C12F0010F1ED05210B2EB610FA5EB54
:102D50000303ACBF042200221A60C6F1010605EB92
:102D6000860598F80030A5EB09029210002B7FF43D
:102D700004AA54F8043B3A611E1203F07F035AF888
:102D80002330FFF7BCB955F8042C4FF0FF30A5EB0A
:102D9000030BFEF7C5FFCBF80000DEE755E90201A3
:102DA0004FEA860B8142A5EB0B0B18D10423CBF81D
:102DB0000030C6F1010605EB860598F80030A5EB5A
:102DC00009029210002B7FF4D8A954F8043B3A6111
:102DD0001E1203F07F035AF82330FFF790B904283E
:102DE00001D80023E3E7C207FBD4036803F00F0315
:102DF000042BF6D1CB07F4D40429F2D90B6803F0E5
:102E00000F03042BEDD1FFF775F8002814BF04233E
:102E10000023CCE755E902014FEA860B8142A5EB7E
:102E20000B0B18D10023CBF80030C6F1010605EBDF
:102E3000860598F80030A5EB09029210002B7FF46C
:102E40009CA954F8043B3A611E1203F07F035AF820
:102E50002330FFF754B9042801D80423E3E7C2075D
:102E6000FBD4036803F00F03042BF6D1CB07F4D493
:102E70000429F2D90B6803F00F03042BEDD1FFF7FF
:102E800039F8002814BF00230423CCE755F8081CA8
:102E900011F0010F4FEA860323D055F8042C12F0ED
:102EA000010F1ED05210B2EB610FA5EB0303D4BF8C
:102EB000042200221A60C6F1010605EB860598F887
:102EC0000030A5EB09029210002B7FF456A954F8AC
:102ED000043B3A611E1203F07F035AF82330FFF7D8
:102EE0000EB955F8042C0120A5EB030BFEF718FFD3
:102EF000CBF80000DFE755F8081C11F0010F4FEA8E
:102F0000860323D055F8042C12F0010F1ED0521066
:102F1000B2EB610FA5EB0303B4BF042200221A60D9
:102F2000C6F1010605EB860598F80030A5EB09020D
:102F30009210002B7FF421A954F8043B3A611E1231
:102F400003F07F035AF82330FFF7D9B855F8042C63
:102F50000220A5EB030BFEF7E3FECBF80000DFE752
:102F600055F8043C042BA5EB86030CBF0022042279
:102F7000C6F101061A6005EB860598F80030A5EB4E
:102F800009029210002B7FF4F8A854F8043B3A6130
:102F90001E1203F07F035AF82330FFF7B0B855F83C
:102FA000080CFEF719FF834655F8040CFEF714FFD2
:102FB0005844A5EB8603400040F00100186098F8E3
:102FC0000030C6F1010605EB8605002B7FF4D5A87D
:102FD00054F8043BA5EB09021E1203F07F03921084
:102FE0005AF823303A61FFF78AB855F8080CFEF713
:102FF000F3FE834655F8040CFEF7EEFEABEB000043
:10300000A5EB8603400040F00100186098F80030FE
:10301000C6F1010605EB8605002B7FF4AEA854F837
:10302000043BA5EB09021E1203F07F0392105AF82D
:1030300023303A61FFF763B855F8080CFEF7CCFE71
:10304000834655F8040CFEF7C7FE00FB0BF0A5EB1A
:103050008603400040F00100186098F80030C6F187
:10306000010605EB8605002B7FF487A854F8043B86
:10307000A5EB09021E1203F07F0392105AF82330C9
:103080003A61FFF73CB855F8040CFEF7A5FE8346FD
:10309000D8B91F2388F80030A5EB8603C6F10106D6
:1030A000186005EB860598F80030A5EB0902921030
:1030B000002B7FF462A854F8043B3A611E1203F01F
:1030C0007F035AF82330FFF71AB855F8080CFEF7BB
:1030D00083FE90FBFBF0400040F00100DCE7A5EB35
:1030E000860BDBF80000FEF777FE0090DBF80400AB
:1030F000FEF772FE009BD0B91F2388F80030C6F19E
:10310000010605EB860598F80030CBF80000A5EB2A
:1031100009029210002B7FF430A854F8043B3A6166
:103120001E1203F07F035AF82330FEF7E8BF80EA4F
:10313000E072A2EBE07293FBF2F002FB1030002889
:10314000B8BF8018400040F00100D8E755F8040CE3
:10315000FEF742FE0028B8BF4042A5EB86034000C0
:1031600040F00100186098F80030C6F1010605EB48
:103170008605002B7FF401A854F8043BA5EB090257
:103180001E1203F07F0392105AF823303A61FEF7C3
:10319000B6BF012EA5EB860B35D1DBF80000FEF79C
:1031A0001BFE0028ACBF01224FF0FF32824202DD3D
:1031B0001346024618460130831A0392009326F004
:1031C0004BF8009B039A90FBF3F101FB13031A44A5
:1031D0005200C6F1010642F0010205EB860598F89F
:1031E0000030CBF80020A5EB09029210002B7EF4F2
:1031F000C4AF54F8043B3A611E1203F07F035AF83F
:103200002330FEF77CBF022E0AD1DBF80000FEF768
:10321000E3FD0090DBF80400FEF7DEFD009AC5E751
:1032200064200122C7E7A5EB860B3046594601F022
:10323000FAFF98F80030CBF80000C6F1010605EB64
:103240008605002B7EF499AF54F8043BA5EB0902E8
:103250001E1203F07F0392105AF823303A61FEF7F2
:103260004EBF55F8080CFEF7B7FD834655F8040C21
:10327000FEF7B2FD0BEA0000A5EB8603400040F02C
:103280000100186098F80030C6F1010605EB8605CC
:10329000002B7EF472AF54F8043BA5EB09021E121A
:1032A00003F07F0392105AF823303A61FEF727BFEC
:1032B00055F8080CFEF790FD834655F8040CFEF710
:1032C0008BFD4BEA0000A5EB8603400040F00100B7
:1032D000186098F80030C6F1010605EB8605002B52
:1032E0007EF44BAF54F8043BA5EB09021E1203F029
:1032F0007F0392105AF823303A61FEF700BF55F869
:10330000080CFEF769FD834655F8040CFEF764FDD2
:103310008BEA0000A5EB8603400040F00100186036
:1033200098F80030C6F1010605EB8605002B7EF407
:1033300024AF54F8043BA5EB09021E1203F07F03EF
:1033400092105AF823303A61FEF7D9BE55F8040CB2
:10335000FEF742FDC043A5EB8603400040F00100AC
:10336000186098F80030C6F1010605EB8605002BC1
:103370007EF403AF54F8043BA5EB09021E1203F0E0
:103380007F0392105AF823303A61FEF7B8BE55F821
:10339000080CFEF721FD834655F8040CFEF71CFDD2
:1033A0000BFA00F0A5EB8603400040F00100186026
:1033B00098F80030C6F1010605EB8605002B7EF477
:1033C000DCAE54F8043BA5EB09021E1203F07F03A8
:1033D00092105AF823303A61FEF791BE55F8080C66
:1033E000FEF7FAFC834655F8040CFEF7F5FC4BFAA1
:1033F00000F0A5EB8603400040F00100186098F84B
:103400000030C6F1010605EB8605002B7EF4B5AE53
:1034100054F8043BA5EB09021E1203F07F0392103F
:103420005AF823303A61FEF76ABE55F80C0CFEF7E5
:10343000D3FC834655F8080CFEF7CEFC8BFB00232B
:1034400055F8040CCDE90023FEF7C6FCDDE90023A6
:10345000C0F1200CB0F1200103FA0CFC22FA00F0BC
:1034600040EA0C005CBF43FA01F10843A5EB860E6D
:10347000400098F8003040F00100C6F10106CEF897
:10348000000005EB8605002B7EF477AE54F8043B74
:10349000A5EB09021E1203F07F0392105AF82330A5
:1034A0003A61FEF72CBEA5EB860B30465946FEF777
:1034B00015F998F80030CBF80000C6F1010605EBCD
:1034C0008605002B7EF459AE54F8043BA5EB0902A7
:1034D0001E1203F07F0392105AF823303A61FEF770
:1034E0000EBEA5EB860529463046FEF711F998F881
:1034F0000030002B7EF441AE54F8043BA5EB0902EA
:103500001E1203F07F0392105AF823303A61FEF73F
:10351000F6BDA5EB860B30465946FEF73DF998F807
:103520000030CBF80000C6F1010605EB8605002B44
:103530007EF423AE54F8043BA5EB09021E1203F0FF
:103540007F0392105AF823303A61FEF7D8BDA5EBFD
:10355000860529463046FEF7C5F998F80030002B5D
:103560007EF40BAE54F8043BA5EB09021E1203F0E7
:103570007F0392105AF823303A61FEF7C0BDA5EBE5
:10358000860B30465946FEF73DFA98F80030CBF8E6
:103590000000C6F1010605EB8605002B7EF4EDADBB
:1035A00054F8043BA5EB09021E1203F07F039210AE
:1035B0005AF823303A61FEF7A2BD55F8040C01F029
:1035C000ADFA55F8083CDA072ED4042B0CD91B6849
:1035D00003F00F03013B082B10D8DFE803F00525AB
:1035E0002B270F0F0F0F2900C54925F047FFA5EB2B
:1035F000860300280CBF042200221A60C6F10106CF
:1036000005EB860598F80030A5EB09029210002B17
:103610007EF4B3AD54F8043B3A611E1203F07F030D
:103620005AF82330FEF76BBDB649DEE7B649DCE752
:10363000B649DAE7B649D8E705F1040BABEB090662
:10364000D82E04DD1A2388F80030FEF796BD00F06E
:10365000A9FF98F80030400040F001002860B21047
:1036600013B15D46FEF789BD54F8043B3A611E1262
:1036700003F07F035D465AF82330FEF740BD05F1A5
:10368000040BABEB0906D82E04DD1A2388F80030B2
:10369000FEF773BD00F07EFF9E4B03EA400098F8F2
:1036A000003040F001002860B21013B15D46FEF713
:1036B00064BD54F8043B3A611E1203F07F035D467B
:1036C0005AF82330FEF71BBD05F1040BABEB0903E1
:1036D000D82B04DD1A2388F80030FEF74EBD00F029
:1036E00061FF8D4B1B6898423DBFC3F5830303F612
:1036F0003713C018C01A400098F8003040F001009D
:10370000ABEB09022860921013B15D46FEF735BDA0
:1037100054F8043B3A611E1203F07F035D465AF8E9
:103720002330FEF7ECBC00F03DFF7B4B186098F8AF
:103730000030A5EB8605002B7EF41FAD54F8043B4A
:10374000A5EB09021E1203F07F0392105AF82330F2
:103750003A61FEF7D4BC03F09FFAB30090B9ED1ABA
:1037600098F80030A5EB09029210002B7EF405AD0D
:1037700054F8043B3A611E1203F07F035AF82330D9
:10378000FEF7BDBC3046A5EB0308644E01231A4684
:103790004146FEF7D9FB3068643002F0DBFF0028B9
:1037A0003EF4A0AF7A7831685D4803F0CAF901238E
:1037B0003B7000F0EFFE5B4A33681268063302FB91
:1037C000030078604546FEF7AABC03F065FAB10035
:1037D00090B96D1A98F80030A5EB09029210002BF1
:1037E0007EF4CBAC54F8043B3A611E1203F07F0325
:1037F0005AF82330FEF783BC3046A5EB0108474E4C
:10380000012300224146FEF79FFB3068643002F03E
:10381000A1FF00283EF466AF414803F053F9C6E724
:10382000FEF734FCA5EB860B98F80030CBF80000CF
:10383000C6F1010605EB8605002B7EF49EAC54F81C
:10384000043BA5EB09021E1203F07F0392105AF805
:1038500023303A61FEF753BC98F80030A5EB86059B
:10386000002B7EF48AAC54F8043BA5EB09021E122F
:1038700003F07F0392105AF823303A61FEF73FBC01
:10388000012E4FEA86021BDC1C2388F80030AA1A9E
:1038900000231360C6F1010605EB860598F8003099
:1038A000A5EB09029210002B7EF467AC54F8043BA0
:1038B0003A611E1203F07F035AF82330FEF71FBC53
:1038C000029B9945A5EB020202D355F8043CE0E7C0
:1038D00055F8083C55F8041C5B10002B0DDD0298D0
:1038E00050F80C0CB3EB600F4FEA600CDFBFA3EB9A
:1038F0000C030299043B51F823101160CAE700BF82
:103900004AA1020052A1020059A1020060A10200D6
:1039100065A10200FEFFFF7FA40900209809002096
:103920007506002008000020A5EB860B584600F025
:1039300072FE98F80030CBF80000C6F1010605EBE6
:103940008605002B7EF419AC54F8043BA5EB090264
:103950001E1203F07F0392105AF823303A61FEF7EB
:10396000CEBBA5EB860B584600F057FE98F800300A
:10397000CBF80000C6F1010605EB8605002B7EF4AE
:10398000FCAB54F8043BA5EB09021E1203F07F03C5
:1039900092105AF823303A61FEF7B1BBA5EB860BC3
:1039A0003046594600F01CFD98F80030CBF8000076
:1039B000C6F1010605EB8605002B7EF4DEAB54F85C
:1039C000043BA5EB09021E1203F07F0392105AF884
:1039D00023303A61FEF793BBA5EB8605284600F03D
:1039E0001FFE98F80030002B7EF4C7AB54F8043B60
:1039F000A5EB09021E1203F07F0392105AF8233040
:103A00003A61FEF77CBBA5EB860B3046594600F0C9
:103A1000A9FC98F80030CBF80000C6F1010605EBD0
:103A20008605002B7EF4A9AB54F8043BA5EB0902F4
:103A30001E1203F07F0392105AF823303A61FEF70A
:103A40005EBBA5EB8605284600F0E6FE98F8003040
:103A5000002B7EF492AB54F8043BA5EB09021E1236
:103A600003F07F0392105AF823303A61FEF747BB08
:103A70000121304600F08EFE98F80030002B7EF4D5
:103A80007CAB54F8043BA5EB09021E1203F07F0344
:103A900092105AF823303A61FEF731BB00213046CC
:103AA00000F078FE98F80030002B7EF466AB54F8F6
:103AB000043BA5EB09021E1203F07F0392105AF893
:103AC00023303A61FEF71BBBA5EB860B584600F08E
:103AD00019FE98F80030CBF80000C6F1010605EB9E
:103AE0008605002B7EF449AB54F8043BA5EB090294
:103AF0001E1203F07F0392105AF823303A61FEF74A
:103B0000FEBAA5EB860B584600F010FE98F8003080
:103B1000CBF80000C6F1010605EB8605002B7EF40C
:103B20002CAB54F8043BA5EB09021E1203F07F03F3
:103B300092105AF823303A61FEF7E1BAA5EB8605F8
:103B4000284600F0C1FD98F80030002B7EF415AB3C
:103B500054F8043BA5EB09021E1203F07F039210F8
:103B60005AF823303A61FEF7CABAA5EB8605284613
:103B700003F046FF98F80030002B7EF4FEAA54F8BC
:103B8000043BA5EB09021E1203F07F0392105AF8C2
:103B900023303A61FEF7B3BAA5EB860B584604F022
:103BA0003BF898F80030CBF80000C6F1010605EBB1
:103BB0008605002B7EF4E1AA54F8043BA5EB09022C
:103BC0001E1203F07F0392105AF823303A61FEF779
:103BD00096BAA5EB8605284603F05CFE98F80030FF
:103BE000002B7EF4CAAA54F8043BA5EB09021E126E
:103BF00003F07F0392105AF823303A61FEF77FBA40
:103C0000A5EB860B584603F063FE98F80030CBF81E
:103C10000000C6F1010605EB8605002B7EF4ADAA77
:103C200054F8043BA5EB09021E1203F07F03921027
:103C30005AF823303A61FEF762BAA5EB86052946A9
:103C4000304602F039F898F80030002B7EF495AA3F
:103C500054F8043BA5EB09021E1203F07F039210F7
:103C60005AF823303A61FEF74ABAA5EB8605294691
:103C7000304601F007FE98F80030002B7EF47DAA54
:103C800054F8043BA5EB09021E1203F07F039210C7
:103C90005AF823303A61FEF732BAA5EB8605294679
:103CA000304601F0C9FE98F80030002B7EF465AA7A
:103CB00054F8043BA5EB09021E1203F07F03921097
:103CC0005AF823303A61FEF71ABAA5EB8605294661
:103CD000304601F0D7FE98F80030002B7EF44DAA54
:103CE00054F8043BA5EB09021E1203F07F03921067
:103CF0005AF823303A61FEF702BAA5EB860B30463C
:103D0000594604F0A3F898F80030CBF80000C6F14B
:103D1000010605EB8605002B7EF42FAA54F8043B20
:103D2000A5EB09021E1203F07F0392105AF823300C
:103D30003A61FEF7E4B9A5EB860B3046594604F02C
:103D40008DF898F80030CBF80000C6F1010605EBBD
:103D50008605002B7EF411AA54F8043BA5EB09025A
:103D60001E1203F07F0392105AF823303A61FEF7D7
:103D7000C6B9A5EB860B3046594604F077F898F89B
:103D80000030CBF80000C6F1010605EB8605002BDC
:103D90007EF4F3A954F8043BA5EB09021E1203F0CC
:103DA0007F0392105AF823303A61FEF7A8B9A5EBC9
:103DB000860B3046594603F003FC98F80030CBF8E8
:103DC0000000C6F1010605EB8605002B7EF4D5A99F
:103DD00054F8043BA5EB09021E1203F07F03921076
:103DE0005AF823303A61FEF78AB9A5EB86052946D1
:103DF000304601F0EBFE98F80030002B7EF4BDA9B0
:103E000054F8043BA5EB09021E1203F07F03921045
:103E10005AF823303A61FEF772B9A5EB86052946B8
:103E2000304601F057FE98F80030002B7EF4A5A92B
:103E300054F8043BA5EB09021E1203F07F03921015
:103E40005AF823303A61FEF75AB9A5EB860B304693
:103E5000594601F0B9FD98F80030CBF80000C6F1E2
:103E6000010605EB8605002B7EF487A954F8043B78
:103E7000A5EB09021E1203F07F0392105AF82330BB
:103E80003A61FEF73CB9A5EB86052946304601F0BC
:103E90003FFD98F80030002B7EF46FA954F8043BE6
:103EA000A5EB09021E1203F07F0392105AF823308B
:103EB0003A61FEF724B9002E40F38880012E55F8B0
:103EC00004BC48D11BF0010F52D1BBF1040F4FD9F4
:103ED000DBF8003003F00F03042B49D1584600F003
:103EE0001DFEFDF79FFF03465A1CA5EB86056DD00E
:103EF000022E4ED11BF0010F43D1BBF1040F40D96C
:103F0000DBF8002002F00F02092A3AD1DBF80400A6
:103F10002E1FC0F34700012181422CDD05EB8005F7
:103F2000A5EB090292103A6123F0FF0212F5807F9F
:103F300031D11E02B6B206434A48C6F3072C00EB45
:103F4000CC0332121B79032B3EF46FAB022388F8AB
:103F50000030FEF712B9022E0AD155F8080CC1073D
:103F600006D4042804D9036803F00F03042BB6D049
:103F70004FF0FF33B8E701315BF8212046F8042FFA
:103F8000CAE70B2388F80030002345F8043BFEF70E
:103F9000F4B80020C4E7A5EB800529469847324ACB
:103FA0000023136045F8040B98F80030A5EB0902D4
:103FB0009210002B7EF4E1A854F8043B3A611E12E3
:103FC00003F07F035AF82330FEF799B8002345F831
:103FD000043B98F80030A5EB09029210002B7EF408
:103FE000CCA854F8043B3A611E1203F07F035AF840
:103FF0002330FEF784B8A5EB86052946304602F04B
:1040000085FE98F80030002B7EF4B7A854F8043BE6
:10401000A5EB09021E1203F07F0392105AF8233019
:104020003A61FEF76CB8A5EB860B3046594602F0B4
:104030006DFE98F80030CBF80000C6F1010605EBE4
:104040008605002B7EF499A854F8043BA5EB0902E1
:104050001E1203F07F0392105AF823303A61FEF7E4
:104060004EB800BF58610120080401202DE9F84F27
:1040700003F060F802F050FF01F034FE1E4E64279A
:104080000025DFF88080284617E0012B0ED108B903
:1040900000F080FAF02303FB09F39B441749DBF897
:1040A0000420821A8A423CBF0222E254F02303FB1E
:1040B00009F3E35C022B18D00135D8F80020AA429E
:1040C00016DD33680E4C01339342A8BF00233360E2
:1040D000D6F80090F02303FB09F304EB030AE35C3A
:1040E000A346002BE8D0022BCFD15046FDF7E4FFCA
:1040F000013FC5D1BDE8F88F0400002080969800EC
:10410000F85701209C09002020B1034B800143F0A7
:1041100001031847704700BF90A802000A4B4FF4F4
:1041200000721A60094B01211964D3F84025053249
:10413000C3F84825C3F84C254FF44022C3F80423A4
:10414000034B1970704700BF00E100E00090004091
:10415000EB09002004207047F8B5D1E9003513F0D1
:10416000010031D015F001002ED0392B4FEA630445
:1041700044D8234F6D1041F288363B5DAE42A8BF54
:104180002E46012B05D00121204621F083FA012380
:104190003B551C4B1B780BB9FFF7C0FF002D1A4B8A
:1041A00013DC1A49002240F2DC50FF2513F8016BA2
:1041B000B44208BF21F8120002F1010208BF03F85F
:1041C000015C082AF2D10420F8BD194618460022E5
:1041D00010F8015BAC4203D10C4B23F81260F2E7FC
:1041E0000132082AF4D1002211F8010BFF2801D175
:1041F0009C54F1E70132082AF6D1E4E70020E3E716
:10420000CC090020EB09002028000020120000202B
:1042100070B50C680128CCBF4A68012214F0010077
:1042200046D012F0010043D06410002C05DC214B75
:104230000122C3F8082500203AE0392A4FEA620536
:10424000F9D81D4E735D012B05D00121284621F0C0
:1042500021FA01237355194A194B93FBF4F3934246
:10426000DEBF05330A22B3FBF2F3164A164952F8B1
:10427000252016484FEA022242F00312C1F8102509
:104280000C4AC2F81005C2F814154FF00101C2F82B
:104290000415A2F5A832C8BF4FF6FF7310690020BD
:1042A000C2F81005C2F840350420C2F800121160AF
:1042B00070BD00BF00F00140CC090020FAFF0900EA
:1042C00000B4C40458A002000060004040A10040B7
:1042D00070B5D1E9003513F0010020D015F00100D0
:1042E0001DD0392B4FEA6304174E88BF1B24335D62
:1042F000012B05D00121204621F0CCF901233355B3
:10430000124B6D10A5F110029A42114B08D94FF0D3
:10431000FF32002120461A6021F0FAF9042070BD16
:104320001C600C4B0C4890FBF5F018800B4B1B7875
:104330000BB9FFF7F3FE0A4B01229A64D3F8482524
:104340001044C3F84805E9E7CC0900209086010035
:10435000240000201000002020A10700EB0900200D
:10436000009000400B68DA0770B504D40D20FDF70B
:1043700065FE012070BD392B4FEA630414D8012873
:1043800014DD4B68042B14BF00250225094E335D54
:10439000AB4204D02946204621F07CF93555204611
:1043A00021F0DAF9012803D00020E3E70025EDE74A
:1043B0000420DFE7CC090020002802DC1C20FDF7E8
:1043C0003DBE0B68DB0701D40D20F8E700207047E5
:1043D000002802DC1C20FDF731BE012070470000E0
:1043E0000B68DA0773B505460C4604D40D20FDF7BB
:1043F00025FE012009E05B100A2B23D0062B06D1F5
:1044000003F078FA400040F0010002B070BDF0D82F
:104410000D4A0E4E52F82300335C33B10021019057
:1044200021F038F9019800233354012D07DD63682A
:10443000042B04D10221019021F02CF9019821F0E4
:1044400043F8DFE70523E3E770A80200CC0900206A
:1044500007B510F0010104D04110084603B05DF823
:1044600004FB042813D9026802F00F02042A09D1C0
:10447000019100F053FB01990A2203B05DF804EBAF
:1044800025F0D0B8032A02D10A220430F5E70D2026
:104490000191FDF7D3FD0199DFE700000228F8B58F
:1044A0000D4604DCBDE8F8401C20FDF7C7BD0868D8
:1044B000FFF7CEFF06466868FFF7CAFF0446A86804
:1044C000FFF7C6FF1C2C05465BD82F4F3B5D012B29
:1044D00005D00121204621F0DDF801233B550021C4
:1044E000204621F015F9294B93FBF5F5013D2846AF
:1044F000FFF70AFE06F00101204621F009F92846DF
:10450000FFF702FEC6F34001204621F001F92846DC
:10451000FFF7FAFDC6F38001204621F0F9F828469E
:10452000FFF7F2FDC6F3C001204621F0F1F828465E
:10453000FFF7EAFDC6F30011204621F0E9F828460E
:10454000FFF7E2FDC6F34011204621F0E1F82846CE
:10455000FFF7DAFDC6F38011204621F0D9F828468E
:10456000FFF7D2FDC6F3C011204621F0D1F828464E
:10457000FFF7CAFD2046012121F0CAF82846FFF7BF
:10458000C3FD0020F8BD00BFCC09002040420F0051
:1045900004207047024B01221A64D3F8400570478B
:1045A00000900040044B01221A64D3F840054FF4F8
:1045B0007A73B0FBF3F070470090004000487047FA
:1045C00068A702001D20704770B5054E335C8B4212
:1045D00004460D4602D021F05DF8355570BD00BF90
:1045E000CC09002070B50024094D264615F8013B82
:1045F000012B09D10021204621F08AF80021204614
:1046000021F048F805F8016C01341D2CEED170BD85
:10461000CC09002070470F2070473B2070470000F6
:104620000368D90770B502D54668F20704D4BDE81F
:1046300070400D20FDF702BD392B4FEA630432D8DC
:10464000194D2B5D012B18D00121204621F022F8B5
:1046500001231B2C2B5510D1144BDA6E144B202A3E
:10466000B8BF4FF0A04302F01F0203EB8203D3F860
:10467000002742F44072C3F800270E4BD3F80821FC
:1046800032B1D3F81821002AFBD00022C3F8182138
:10469000A6F34A018910204620F0AAFF2B5D012BCA
:1046A00004BF054A135570BDCC09002058A0020074
:1046B0000003005000C00140A809002008B50846CA
:1046C000FFF7AEFF002008BD13B50A4A044692E882
:1046D000030022686B46042A83E8030019464FF062
:1046E000020003D101F0A8F902B010BD01F0CAF92F
:1046F000FAE700BF00A8020008B50846FFF7E4FF8C
:10470000002008BD10B5084C63792BB100210520AD
:1047100020F0C0FF00236371052021F01DF8002860
:104720000CBF0420002010BDCC09002010B5084C9F
:10473000E37A2BB100210B2020F0ACFF0023E372C1
:104740000B2021F009F800280CBF0420002010BD28
:10475000CC09002010B50B4A0B4C0C480C49002327
:10476000C2F80035A2F5C832C2F8103501226260E5
:1047700042604A60C4F80035C0F80035C1F8003521
:1047800010BD00BF00F0014000C001400010024019
:10479000002002401C2870B504460D4632D81A4E3F
:1047A000335C012B04D0012120F074FF0123335529
:1047B0001C2C12D1FFF7CEFF144B1A6F144B202A7A
:1047C000B8BF4FF0A04302F01F0203EB8203D3F8FF
:1047D000002742F44072C3F800270E4B1B5D4BB11B
:1047E000002D40F2FF31204608BF0021BDE8704097
:1047F00020F0FEBE291E204618BF0121BDE87040F2
:1048000020F086BF70BD00BFCC09002058A0020078
:1048100000030050A80900200368D90702D40D2026
:10482000FDF70CBC41680A1F514251415810FFF777
:10483000B1BF08B50846FFF7EFFF002008BD000034
:10484000F8B5324CD4F84831ABB10023D4F8485510
:10485000C4F848312E4B186800280CDB2D4A11781B
:10486000B1FA81F14909117020F052FF2A4B1B88DF
:104870002B44C4F84835254BD3F84C21002A37D0B7
:10488000264ED3F84C45264D0021C3F84C11337801
:1048900033B12B68072B03D8224AD05C20F038FFB5
:1048A0002B68204F01335A4202F0070203F007033E
:1048B00058BF53422B600022082B194619D00133F0
:1048C000F81810F8010CFF2801D10122F4E702B119
:1048D0002960012120F01CFF01232A683370124B4C
:1048E00033F8122004F10C031344084AC2F84C3583
:1048F000F8BD4FF0FF33054A2B6004F58C440023CC
:104900005C343370C2F84C45F2E700BF00900040C1
:1049100024000020EA09002010000020E9090020FE
:10492000C809002028000020120000200849094A78
:1049300010B50823FF2440F2DC50013B01F8014B85
:1049400022F8020BF9D1044A1370044A136010BD17
:104950002800002012000020E9090020C8090020DA
:10496000024B4FF0FF321A60704700BF2400002056
:10497000024A03480D2101F01BBE00BF08A8020037
:104980009EB2020038B52C484FF4E1311DF090FA88
:104990002A4B012400221C61C3F804250322C3F81A
:1049A00008250422C3F810251C60FDF7E9F84FF034
:1049B00080430222C3F818259C604FF01023D3F8DF
:1049C0000C32DB070FD51E4BC3F80445D3F8002487
:1049D000002AFBD04FF010226FF00101C2F80C1238
:1049E0000022C3F80425082020F056FD154A0023B4
:1049F000FF2101331D2B02F8011BFAD1124B134D7D
:104A000001221A600020124A042301461468002C77
:104A1000FCD02C681160013B44EA0020F6D10D4B1C
:104A200001221A601DF0A8FB01F0D2F904F084F80D
:104A3000BDE8384004F06AB800450120009000400D
:104A400000E00140CC09002000D0004008D5004023
:104A500000D1004004D00040C3070CD4064B1B68B3
:104A6000984208D3054B1B68984204D850F8043C80
:104A7000002B18BF18467047F4090020F0090020E9
:104A80000B4908B5012200230133642B41F8042BA4
:104A9000FAD1084B1A60084B4FF610221846002135
:104AA00024F0A4FB054B40F8043F054B186008BDFB
:104AB000506901200C000020F809002020E80300C4
:104AC000EC090020034B044A1A60044B044A1A60A4
:104AD000FFF7D6BFF4090020F8090020F0090020F4
:104AE00008040120044B1B681868C0F30F1002383B
:104AF00020EAE070704700BFEC09002000B59BB0D1
:104B00000246054901A820F0D1F901A802F0D8F821
:104B100002F010FBFCE700BF96A80200C30713D405
:104B2000042802D812D00B487047036803F00F0323
:104B3000042B01D104307047092B09D0064A0748DD
:104B4000032B08BF1046704705487047054870475B
:104B50000548704720A50200C1A80200A7A80200CE
:104B6000B0A8020026A50200BAA8020000B59BB0BA
:104B700002460B4601A8044920F098F901A802F06A
:104B80009FF81BB05DF804FBCDA80200064B074957
:104B900000201A6843F8040CC2F30F12023203EB30
:104BA00082038B42F5D37047FC09002008040120E2
:104BB0002C4B2D4A18682D4B2DE9F0411C682C4DCB
:104BC00013681F0726D41368C3F30F13023302EBD5
:104BD0008302AA42F4D3274964220868FFF73CFF06
:104BE000013A41F8040BF8D1234A1068FFF734FF6B
:104BF0001060224A106810B1FFF72EFF1060204BA2
:104C000020491E6800240F464FF03C08B44214DBD4
:104C1000BDE8F081C3F30F1302EB83039A42D2D0B5
:104C20001968CE0707D4884205D28C4203D351F8C5
:104C3000041C01B11960043BF0E70B7813B901348F
:104C4000F031E3E70A69551E08FB0422053207EB41
:104C50008202002DF3DB1068FFF7FEFE013D42F8F3
:104C60000409F6E7F4090020FC090020F0090020FF
:104C700008040120506901200C00002008040120D4
:104C80009C090020F8570120C307F0B53ED4204B03
:104C90001C68A0423AD31F4B1D68A84236D850F872
:104CA000043C9BBB03680246C3F30F13012673B990
:104CB000904242F8046C29D0116851F8043C51F834
:104CC0002370176041F82320013B0A46EFE752F8B2
:104CD0002310CF0702EB830C16D48C4214D88D42DC
:104CE00012D351F8047C7FB90F6817F0080F08D071
:104CF000CCF8007042F8043C0B680A60C3F30F1351
:104D0000E3E741F8046CD2E7013BD0E7F0BD00BF18
:104D1000F4090020F00900200D4930B50D4C0B4678
:104D20001A6853F8045CC2F30F12901C65B18B42F1
:104D300014BF0A46002243F8042C01EB800103EB68
:104D40008003A342ECD330BD12011A60F7E700BF25
:104D5000FC09002008040120144B2DE9F041144CFB
:104D60001D464FF000082A68C2F30F1712070FD034
:104D70009D4207F1010605D01846B200294624F0ED
:104D80001BFA034603EB860213460433C2F8008085
:104D9000023705EB8705A542E5D3E41AA410054ABE
:104DA000013C24011C601360BDE8F081FC09002077
:104DB00008040120EC0900202DE9F0419AB0FFF72A
:104DC000E9FB224D0646002455F8040B0134FFF799
:104DD0005BFF642CF8D11E4B1868FFF755FF1D4B85
:104DE000186808B1FFF750FF1B4DDFF878800027E7
:104DF000D8F800309F4218DBFFF78EFFFFF7D8FE90
:104E0000FFF7AAFFFFF7C6FB144B15491B681B6889
:104E1000C3F30F13821B023B01A820F047F801A83F
:104E200001F04EFF1AB0BDE8F08115F8183C13B937
:104E30000137F035DCE755F8084C013C002CF7DB76
:104E400055F82400FFF720FFF7E700BF5069012065
:104E50000C0000200804012010580120EC0900205B
:104E6000D4A802009C0900202DE9F8431C4C2368BB
:104E70001B6801F10109C3F30F13994505460F465D
:104E80001646A0460CDBFFF797FF23681B68C3F3A9
:104E90000F13994504DBBDE8F8430A20FDF7CEB8AF
:104EA000BC1CD8F800001B1B1B0140F82430002359
:104EB00040F8043C05F00F0343EA0717034600EBF4
:104EC000840243F8047B03EB8404C8F80020083C08
:104ED000A34201D3BDE8F88343F8046BF8E700BFB1
:104EE000EC090020F8B510F0010704460E462CD15D
:104EF000174B1B68834228D8164B1B68834224D962
:104F0000154D28600068012200F00F00FFF7ACFF8C
:104F10002C682F600546C0B12146043051F8042B9F
:104F2000C2F30F12B242A8BF3246920024F036F903
:104F3000FFF72CFE44F8045CFFF73AFE2268074BAB
:104F400044F8047C134023602C462046F8BD00BF83
:104F5000F4090020F009002008040120F0FF0F00F0
:104F6000011D48BFC11D002289100420FFF77CBF2E
:104F700038B5054608460C46FFF7F2FF48B1C21C9B
:104F80000023A34206DB002CACBF0419041C002341
:104F9000237138BDE95C02F8011F0133F1E770B5F8
:104FA00002289AB00C4604DC1C20FDF747F81AB022
:104FB00070BD0868C20706D4042804D9036803F04A
:104FC0000F03042B01D00E20EFE74B6813F001060E
:104FD000F9D1042BF7D91B6803F00F03042BF2D18E
:104FE0008B68DB0701D40D20DFE7FFF797FD05464F
:104FF0006068FFF793FDA4688DF8046001466410B3
:10500000284603F070FF2146642301AA03F0CDFF78
:1050100001A824F03DFA014601A8FFF7A9FFC6E761
:1050200010B50446ADF5806D10B9FFF799FF0BE0A0
:1050300003F07FFE0138062827D8DFE800F00808D3
:1050400010172804230000200DF5806D10BD2046A8
:1050500003F0E9FE011B2046FFF78AFFF4E7204634
:1050600003F095FE400040F00100EDE769464FF483
:105070008062204603F0A5FE684624F009FA014646
:105080006846E9E703480421E6E70020CDE704206D
:10509000DAE700BFF4A80200022838B50C4604DCA9
:1050A0001C20BDE83840FCF7C9BF0868C10706D41A
:1050B000042804D9036803F00F03042B01D00E2049
:1050C000EFE76368DA07FAD4042BF8D91B6803F01A
:1050D0000F03042BF3D1A368DB0701D40D20E0E715
:1050E000FFF71CFD05466068FFF718FDA468014640
:1050F0006410284603F0F7FE214603F033FFBDE8B5
:105100003840FFF78DBF012838B50C4604DC1C2061
:10511000BDE83840FCF792BF0868C10706D40428F0
:1051200004D9036803F00F03042B01D00E20EFE72E
:105130006368DA07FAD4042BF8D91B6803F00F036D
:10514000042BF3D1FFF7EAFC05466068FFF7E6FCA5
:105150000146284603F0C7FE03F043FF400040F03D
:10516000010038BD012870B505460C4604DC1C2042
:10517000BDE87040FCF762BF0868C10706D4042888
:1051800004D9036803F00F03042B01D00E20EFE7CE
:105190006368DA07FAD4042BF8D91B6803F00F030D
:1051A000042BF3D1FFF7BAFC06466068FFF7B6FCA4
:1051B000022D014615D0A568EB0712D56D103046BB
:1051C00003F091FE044603F0B4FD012812D1002D36
:1051D00002DD0134012D07D12046BDE87040FFF704
:1051E0001FBF4FF0FF35EAE7204603F02BFE013DDD
:1051F0000446EFE70228EFD1002DEDDD0134012D4B
:10520000EAD000221146204603F046FE03F01AFEC3
:10521000013D0446F3E708B501F03EFD002814BF48
:105220000420002008BD086808B5C30706D4042878
:1052300004D9036803F00F03042B04D00E20BDE84B
:105240000840FCF7FBBEFFF769FC0378232B08BF7F
:1052500001301022002124F0E5F900F10053B3F1F0
:10526000804F01D31420EAE7400040F0010008BD60
:1052700007B510F0010104D04110084603B05DF8F5
:1052800004FB042813D9026802F00F02042A09D192
:105290000191FFF743FC01990A2203B05DF804EB8A
:1052A00024F0C0B9032A02D10A220430F5E70D2008
:1052B0000191FCF7C3FE0199DFE7000008B508681B
:1052C000FFF7D6FF23F028F941EC100B20F0D2FEB7
:1052D000084B002251EC100B23F088F941EC100B25
:1052E00020F04EFD51EC100B23F030FC400040F05C
:1052F000010008BD00408F4008B50868FFF7B8FFFF
:1053000007EE900A9FED0F7AF8EEE77A67EE877A5C
:1053100017EE900A23F012F941EC100B20F080FDFB
:10532000094B002251EC100B23F060F941EC100BFB
:1053300020F026FD51EC100B23F008FC400040F05B
:10534000010008BDD30237390000D04004282DE900
:10535000F0410C4604DC1C20BDE8F041FCF76EBEB9
:105360000868FFF785FF07466068FFF781FF06467C
:10537000A068FFF77DFF0546E068FFF779FF8046EC
:105380002069FFF775FFAE4201D11F20E4E7BB1B88
:10539000A0EB08025A43AB1B92FBF3F303EB0800AC
:1053A000400040F00100BDE8F08100002DE9F0432D
:1053B0000228A1B00C4605DC1C2021B0BDE8F0435A
:1053C000FCF73CBE0868FFF753FF06466068FFF72E
:1053D0004FFF0746A0682D4CFFF74AFF84460FCCCD
:1053E0006D460FC50FCC0FC50FCC0FC594E80F004D
:1053F000103485E80F000FCC10AD0FC50FCC0FC5D2
:105400000FCC0FC594E80F0085E80F00052140F28E
:105410003C520023C1FB0C2387F3040720A901EBB6
:10542000870151F8800C51F8401CA2FB008900FB59
:1054300003994FEA18444FEA294044EA09444FEAE5
:10544000E6794FEAC933F20343EA564312F17F4249
:1054500043F1FF331219A1FB044540EB030301FBA9
:105460000055600A540844EAC37440EAC550591014
:1054700000194FEA652646EB010123F0AFFB40001F
:1054800040F0010021B0BDE8F08300BF88A9020010
:105490000128D0B50C4604DCBDE8D0401C20FCF748
:1054A000CDBD4868401023F037F80646206840100C
:1054B0000F4623F031F802460B463046394623F0BA
:1054C000BFF99FED0D1B41EC100B20F001FD0E49C3
:1054D00053EC102B002022F0D1FE09A3D3E90023C6
:1054E00023F084F8094B002223F080F823F02EFBF0
:1054F000400040F00100D0BD6C45D9CC955BC83F61
:105500000000000040A5E5400000F03F00408F4053
:10551000024A03480C2101F04BB800BF08AA020060
:10552000F9A80200002070471E20FCF787BD1E204E
:10553000FCF784BD1E20FCF781BD1E20FCF77EBD5C
:105540001E20FCF77BBD1E20FCF778BD1E20FCF75B
:1055500075BD1E20FCF772BD1E20FCF76FBD1E201E
:10556000FCF76CBD1E20FCF769BD1E20FCF766BD74
:105570001E20FCF763BD1E20FCF760BD1E20FCF75B
:105580005DBD1E20FCF75ABD1E20FCF757BD1E2036
:10559000FCF754BD1E20FCF751BD1E20FCF74EBD8C
:1055A0001E20FCF74BBD1E20FCF748BD1E20FCF75B
:1055B00045BD1E20FCF742BD1E20FCF73FBD1E204E
:1055C000FCF73CBD1E20FCF739BD1E20FCF736BDA4
:1055D0001E20FCF733BD1E20FCF730BD024A0348F5
:1055E0001F2100F0E5BF00BF04AC020068AA020062
:1055F000002070470120704701207047002070474D
:10560000012070470020704700207047002070473D
:1056100000207047024A0348092100F0C9BF00BFBB
:105620004CAD0200FCAC0200034B01221A60034B9C
:105630001868904010437047300401200C0401208A
:105640002DE9F043EFF31084012304F0010483F308
:105650001088164A164912680E68013A9340154A96
:105660001568154A12684FF002094FF00E0C4FF002
:105670000D0E4FF00608A3B118422A600AD07746F3
:1056800039000139FDDC3260474639000139FDDC63
:105690005B08F0E74F4639000139FDDC32606746B0
:1056A000F3E784F31088BDE8F08300BF30000020EA
:1056B00014040120180401202004012070B5084EB4
:1056C000084D002456F8040B0021FEF77DFF01343D
:1056D00055F8040B0021FEF777FF052CF2D170BDC1
:1056E00028AE020084B102002DE9F843154E164D94
:1056F000164FDFF85C80002456F8040B0021FEF7FB
:1057000063FF55F8049B01214846FEF75DFFB9F1A0
:10571000220F11D857F82920202AB8BF4FF0A043F4
:1057200002F01F02A8BF434603EB8203D3F8002711
:1057300042F44072C3F800270134052CDCD1BDE8E7
:10574000F88300BF28AE020084B1020058A0020016
:1057500000030050F0B53D4D3D4B2C681A889B78F6
:1057600085B0ADF80C208DF80E30002C37D1FFF746
:10577000A5FF384F264657F8040B01900121FEF78C
:1057800023FF0136019800211FF0C2FF052EF2D140
:1057900003AE002716F8010B01900121FEF714FF5C
:1057A0000137019801211FF0B3FF032FF2D19DF8BB
:1057B0000C000021FEF708FF9DF80D000021FEF708
:1057C00003FF9DF80E000021FEF7FEFE01232B6073
:1057D000FEF7E0FE204B1860204605B0F0BD1E4BE2
:1057E0001C68FEF7D7FE844298BF001BB0F57A6FA5
:1057F00029DB02201FF056FE04201FF065FE044640
:1058000003201FF061FE07460A201FF05DFE0646DA
:1058100001201FF047FE3C4401201FF055FEA01957
:10582000C0F532600230831C0C4BB5BF002203224E
:105830001A6090FBF2F00A4AA8BF186000232B60A0
:1058400013600124C8E70024C6E700BF2804012034
:1058500094AD020084B10200340401200C04012044
:105860003004012008B50B68044A5B101360044B38
:10587000186803F020F9002008BD00BF34000020A4
:105880002C04012008B5054B00221A60044B1B684C
:105890000BB103F03BF9002008BD00BF2C04012030
:1058A0008019012010B5041E1DDA00241049114B87
:1058B000114A0B6004331360104B53F824301F2B34
:1058C00081BF0F4808600F49116003F01F024FF0BD
:1058D000010303FA02F398BF0B490C4A88BF0C314D
:1058E00013600B6010BDFEF76DFEA042DDDDDDE74D
:1058F00018040120080500501404012058A00200DB
:10590000080800500C080050180500502004012021
:105910000246086808B5C3074CBF40104FF0FF307F
:10592000012A0CDD4B68042B14BF18232023054AE1
:105930001360FEF76FFEFFF7B5FF002008BD1823C8
:10594000F5E700BF30000020002808B50CDD0B682B
:10595000042B084B14BF012200221A6006D0FFF767
:10596000ADFE054B00221A60002008BDFFF7BCFE0B
:10597000FAE700BF240401200C04012007B510F051
:10598000010104D04110084603B05DF804FB04286F
:1059900013D9026802F00F02042A09D10191FFF71E
:1059A000BDF801990A2203B05DF804EB23F03ABE7A
:1059B000032A02D10A220430F5E70D200191FCF7F9
:1059C0003DFB0199DFE700000B6813F0010070B5A3
:1059D0001CD01846FFF7D2FF20385E2827D8154B79
:1059E00000EB8000184406210122002301391AD05F
:1059F00010F8016B052410252E4218BF9B18013C9E
:105A00004FEA42024FEA6505F6D1EFE7042BE3D9EE
:105A10001A6802F00F010429DED1C2F30F1000282A
:105A2000DAD01879D8E7580040F0010070BD0120A5
:105A3000FCE700BF3CAE020038B508680D46FFF732
:105A40009DFF04466868FFF799FF621E042A13D879
:105A5000431E042B10D8094903EB83030D6813443C
:105A6000012202FA03F32B430B60054B1B681BB1A9
:105A70000146204603F01EF8002038BD2C0401200A
:105A80008019012038B508680D46FFF777FF0446F6
:105A90006868FFF773FF621E042A15D8431E042BA3
:105AA00012D80A4903EB83031344012202FA03F3D9
:105AB0000A6822EA0302064B0A601B6823B101460A
:105AC0000022204602F0F6FF002038BD2C04012001
:105AD000801901202DE9F04F054685B008680C4675
